{
  "_format": "hh-sol-artifact-1",
  "contractName": "LinkBecomeHuman",
  "sourceName": "contracts/LinkBecomeHuman.sol",
  "abi": [
    {
      "inputs": [
        {
          "internalType": "uint64",
          "name": "subscriptionId",
          "type": "uint64"
        }
      ],
      "stateMutability": "nonpayable",
      "type": "constructor"
    },
    {
      "inputs": [],
      "name": "EmptyArgs",
      "type": "error"
    },
    {
      "inputs": [],
      "name": "EmptySource",
      "type": "error"
    },
    {
      "inputs": [],
      "name": "NoInlineSecrets",
      "type": "error"
    },
    {
      "inputs": [
        {
          "internalType": "address",
          "name": "have",
          "type": "address"
        },
        {
          "internalType": "address",
          "name": "want",
          "type": "address"
        }
      ],
      "name": "OnlyCoordinatorCanFulfill",
      "type": "error"
    },
    {
      "inputs": [],
      "name": "OnlyRouterCanFulfill",
      "type": "error"
    },
    {
      "anonymous": false,
      "inputs": [
        {
          "indexed": true,
          "internalType": "address",
          "name": "owner",
          "type": "address"
        },
        {
          "indexed": true,
          "internalType": "address",
          "name": "approved",
          "type": "address"
        },
        {
          "indexed": true,
          "internalType": "uint256",
          "name": "tokenId",
          "type": "uint256"
        }
      ],
      "name": "Approval",
      "type": "event"
    },
    {
      "anonymous": false,
      "inputs": [
        {
          "indexed": true,
          "internalType": "address",
          "name": "owner",
          "type": "address"
        },
        {
          "indexed": true,
          "internalType": "address",
          "name": "operator",
          "type": "address"
        },
        {
          "indexed": false,
          "internalType": "bool",
          "name": "approved",
          "type": "bool"
        }
      ],
      "name": "ApprovalForAll",
      "type": "event"
    },
    {
      "anonymous": false,
      "inputs": [
        {
          "indexed": true,
          "internalType": "uint256",
          "name": "tokenId",
          "type": "uint256"
        },
        {
          "indexed": false,
          "internalType": "string",
          "name": "humanityScore",
          "type": "string"
        }
      ],
      "name": "HumanityScoreUpdated",
      "type": "event"
    },
    {
      "anonymous": false,
      "inputs": [
        {
          "indexed": true,
          "internalType": "address",
          "name": "from",
          "type": "address"
        },
        {
          "indexed": true,
          "internalType": "address",
          "name": "to",
          "type": "address"
        }
      ],
      "name": "OwnershipTransferRequested",
      "type": "event"
    },
    {
      "anonymous": false,
      "inputs": [
        {
          "indexed": true,
          "internalType": "address",
          "name": "from",
          "type": "address"
        },
        {
          "indexed": true,
          "internalType": "address",
          "name": "to",
          "type": "address"
        }
      ],
      "name": "OwnershipTransferred",
      "type": "event"
    },
    {
      "anonymous": false,
      "inputs": [
        {
          "indexed": true,
          "internalType": "bytes32",
          "name": "id",
          "type": "bytes32"
        }
      ],
      "name": "RequestFulfilled",
      "type": "event"
    },
    {
      "anonymous": false,
      "inputs": [
        {
          "indexed": true,
          "internalType": "bytes32",
          "name": "id",
          "type": "bytes32"
        }
      ],
      "name": "RequestSent",
      "type": "event"
    },
    {
      "anonymous": false,
      "inputs": [
        {
          "indexed": true,
          "internalType": "uint256",
          "name": "tokenId",
          "type": "uint256"
        },
        {
          "indexed": false,
          "internalType": "uint256",
          "name": "seed",
          "type": "uint256"
        }
      ],
      "name": "SeedUpdated",
      "type": "event"
    },
    {
      "anonymous": false,
      "inputs": [
        {
          "indexed": true,
          "internalType": "address",
          "name": "from",
          "type": "address"
        },
        {
          "indexed": true,
          "internalType": "address",
          "name": "to",
          "type": "address"
        },
        {
          "indexed": true,
          "internalType": "uint256",
          "name": "tokenId",
          "type": "uint256"
        }
      ],
      "name": "Transfer",
      "type": "event"
    },
    {
      "inputs": [],
      "name": "acceptOwnership",
      "outputs": [],
      "stateMutability": "nonpayable",
      "type": "function"
    },
    {
      "inputs": [
        {
          "internalType": "address",
          "name": "to",
          "type": "address"
        },
        {
          "internalType": "uint256",
          "name": "tokenId",
          "type": "uint256"
        }
      ],
      "name": "approve",
      "outputs": [],
      "stateMutability": "nonpayable",
      "type": "function"
    },
    {
      "inputs": [
        {
          "internalType": "address",
          "name": "owner",
          "type": "address"
        }
      ],
      "name": "balanceOf",
      "outputs": [
        {
          "internalType": "uint256",
          "name": "",
          "type": "uint256"
        }
      ],
      "stateMutability": "view",
      "type": "function"
    },
    {
      "inputs": [],
      "name": "character",
      "outputs": [
        {
          "internalType": "string",
          "name": "",
          "type": "string"
        }
      ],
      "stateMutability": "view",
      "type": "function"
    },
    {
      "inputs": [
        {
          "internalType": "bytes32",
          "name": "",
          "type": "bytes32"
        }
      ],
      "name": "functionRequestIdToTokenId",
      "outputs": [
        {
          "internalType": "uint256",
          "name": "",
          "type": "uint256"
        }
      ],
      "stateMutability": "view",
      "type": "function"
    },
    {
      "inputs": [
        {
          "internalType": "uint256",
          "name": "tokenId",
          "type": "uint256"
        }
      ],
      "name": "getApproved",
      "outputs": [
        {
          "internalType": "address",
          "name": "",
          "type": "address"
        }
      ],
      "stateMutability": "view",
      "type": "function"
    },
    {
      "inputs": [
        {
          "internalType": "uint256",
          "name": "_tokenId",
          "type": "uint256"
        }
      ],
      "name": "getMetaData",
      "outputs": [
        {
          "internalType": "string",
          "name": "",
          "type": "string"
        }
      ],
      "stateMutability": "view",
      "type": "function"
    },
    {
      "inputs": [
        {
          "internalType": "address",
          "name": "_address",
          "type": "address"
        }
      ],
      "name": "getTokenIdByAddress",
      "outputs": [
        {
          "internalType": "uint256",
          "name": "",
          "type": "uint256"
        }
      ],
      "stateMutability": "view",
      "type": "function"
    },
    {
      "inputs": [
        {
          "internalType": "bytes32",
          "name": "requestId",
          "type": "bytes32"
        },
        {
          "internalType": "bytes",
          "name": "response",
          "type": "bytes"
        },
        {
          "internalType": "bytes",
          "name": "err",
          "type": "bytes"
        }
      ],
      "name": "handleOracleFulfillment",
      "outputs": [],
      "stateMutability": "nonpayable",
      "type": "function"
    },
    {
      "inputs": [
        {
          "internalType": "uint256",
          "name": "",
          "type": "uint256"
        }
      ],
      "name": "humanityScores",
      "outputs": [
        {
          "internalType": "string",
          "name": "",
          "type": "string"
        }
      ],
      "stateMutability": "view",
      "type": "function"
    },
    {
      "inputs": [
        {
          "internalType": "address",
          "name": "owner",
          "type": "address"
        },
        {
          "internalType": "address",
          "name": "operator",
          "type": "address"
        }
      ],
      "name": "isApprovedForAll",
      "outputs": [
        {
          "internalType": "bool",
          "name": "",
          "type": "bool"
        }
      ],
      "stateMutability": "view",
      "type": "function"
    },
    {
      "inputs": [],
      "name": "mint",
      "outputs": [],
      "stateMutability": "nonpayable",
      "type": "function"
    },
    {
      "inputs": [],
      "name": "name",
      "outputs": [
        {
          "internalType": "string",
          "name": "",
          "type": "string"
        }
      ],
      "stateMutability": "view",
      "type": "function"
    },
    {
      "inputs": [],
      "name": "owner",
      "outputs": [
        {
          "internalType": "address",
          "name": "",
          "type": "address"
        }
      ],
      "stateMutability": "view",
      "type": "function"
    },
    {
      "inputs": [
        {
          "internalType": "uint256",
          "name": "tokenId",
          "type": "uint256"
        }
      ],
      "name": "ownerOf",
      "outputs": [
        {
          "internalType": "address",
          "name": "",
          "type": "address"
        }
      ],
      "stateMutability": "view",
      "type": "function"
    },
    {
      "inputs": [
        {
          "internalType": "uint256",
          "name": "requestId",
          "type": "uint256"
        },
        {
          "internalType": "uint256[]",
          "name": "randomWords",
          "type": "uint256[]"
        }
      ],
      "name": "rawFulfillRandomWords",
      "outputs": [],
      "stateMutability": "nonpayable",
      "type": "function"
    },
    {
      "inputs": [
        {
          "internalType": "uint256",
          "name": "_tokenId",
          "type": "uint256"
        }
      ],
      "name": "requestRandomness",
      "outputs": [],
      "stateMutability": "nonpayable",
      "type": "function"
    },
    {
      "inputs": [
        {
          "internalType": "address",
          "name": "from",
          "type": "address"
        },
        {
          "internalType": "address",
          "name": "to",
          "type": "address"
        },
        {
          "internalType": "uint256",
          "name": "tokenId",
          "type": "uint256"
        }
      ],
      "name": "safeTransferFrom",
      "outputs": [],
      "stateMutability": "nonpayable",
      "type": "function"
    },
    {
      "inputs": [
        {
          "internalType": "address",
          "name": "from",
          "type": "address"
        },
        {
          "internalType": "address",
          "name": "to",
          "type": "address"
        },
        {
          "internalType": "uint256",
          "name": "tokenId",
          "type": "uint256"
        },
        {
          "internalType": "bytes",
          "name": "data",
          "type": "bytes"
        }
      ],
      "name": "safeTransferFrom",
      "outputs": [],
      "stateMutability": "nonpayable",
      "type": "function"
    },
    {
      "inputs": [
        {
          "internalType": "uint256",
          "name": "",
          "type": "uint256"
        }
      ],
      "name": "seeds",
      "outputs": [
        {
          "internalType": "uint256",
          "name": "",
          "type": "uint256"
        }
      ],
      "stateMutability": "view",
      "type": "function"
    },
    {
      "inputs": [
        {
          "internalType": "uint64",
          "name": "subscriptionId",
          "type": "uint64"
        },
        {
          "internalType": "uint256",
          "name": "tokenId",
          "type": "uint256"
        }
      ],
      "name": "sendRequest",
      "outputs": [],
      "stateMutability": "nonpayable",
      "type": "function"
    },
    {
      "inputs": [
        {
          "internalType": "address",
          "name": "operator",
          "type": "address"
        },
        {
          "internalType": "bool",
          "name": "approved",
          "type": "bool"
        }
      ],
      "name": "setApprovalForAll",
      "outputs": [],
      "stateMutability": "nonpayable",
      "type": "function"
    },
    {
      "inputs": [
        {
          "internalType": "bytes4",
          "name": "interfaceId",
          "type": "bytes4"
        }
      ],
      "name": "supportsInterface",
      "outputs": [
        {
          "internalType": "bool",
          "name": "",
          "type": "bool"
        }
      ],
      "stateMutability": "view",
      "type": "function"
    },
    {
      "inputs": [],
      "name": "symbol",
      "outputs": [
        {
          "internalType": "string",
          "name": "",
          "type": "string"
        }
      ],
      "stateMutability": "view",
      "type": "function"
    },
    {
      "inputs": [
        {
          "internalType": "uint256",
          "name": "tokenId",
          "type": "uint256"
        }
      ],
      "name": "tokenURI",
      "outputs": [
        {
          "internalType": "string",
          "name": "",
          "type": "string"
        }
      ],
      "stateMutability": "view",
      "type": "function"
    },
    {
      "inputs": [
        {
          "internalType": "address",
          "name": "from",
          "type": "address"
        },
        {
          "internalType": "address",
          "name": "to",
          "type": "address"
        },
        {
          "internalType": "uint256",
          "name": "tokenId",
          "type": "uint256"
        }
      ],
      "name": "transferFrom",
      "outputs": [],
      "stateMutability": "nonpayable",
      "type": "function"
    },
    {
      "inputs": [
        {
          "internalType": "address",
          "name": "to",
          "type": "address"
        }
      ],
      "name": "transferOwnership",
      "outputs": [],
      "stateMutability": "nonpayable",
      "type": "function"
    },
    {
      "inputs": [
        {
          "internalType": "uint256",
          "name": "",
          "type": "uint256"
        }
      ],
      "name": "vrfRequestIdToTokenId",
      "outputs": [
        {
          "internalType": "uint256",
          "name": "",
          "type": "uint256"
        }
      ],
      "stateMutability": "view",
      "type": "function"
    }
  ],
  "bytecode": "0x60c0604052732ed832ba664535e5886b75d64c46eb9a228c2610600960006101000a81548173ffffffffffffffffffffffffffffffffffffffff021916908373ffffffffffffffffffffffffffffffffffffffff1602179055507f354d2f95da55398f44b7cff77da56283d9c6c829a4bdf1bbcaf2ad6a4d081f6160001b600a55619c40600b60006101000a81548163ffffffff021916908363ffffffff1602179055506003600b60046101000a81548161ffff021916908361ffff1602179055506001600b60066101000a81548163ffffffff021916908363ffffffff16021790555073a9d587a00a31a52ed70d6026794a8fc5e2f5dcb0600e60006101000a81548173ffffffffffffffffffffffffffffffffffffffff021916908373ffffffffffffffffffffffffffffffffffffffff160217905550620493e0600e60146101000a81548163ffffffff021916908363ffffffff1602179055507f66756e2d6176616c616e6368652d66756a692d3100000000000000000000000060001b600f55604051806101400160405280610116815260200162005f1e610116913960139081620001b0919062000865565b50348015620001be57600080fd5b5060405162006034380380620060348339818101604052810190620001e4919062000996565b33806000600e60009054906101000a900473ffffffffffffffffffffffffffffffffffffffff16600960009054906101000a900473ffffffffffffffffffffffffffffffffffffffff166040518060400160405280601081526020017f4c696e6b3a4265636f6d6548756d616e000000000000000000000000000000008152506040518060400160405280600381526020017f4c424800000000000000000000000000000000000000000000000000000000008152508160009081620002ab919062000865565b508060019081620002bd919062000865565b5050508073ffffffffffffffffffffffffffffffffffffffff1660808173ffffffffffffffffffffffffffffffffffffffff1681525050508073ffffffffffffffffffffffffffffffffffffffff1660a08173ffffffffffffffffffffffffffffffffffffffff168152505050600073ffffffffffffffffffffffffffffffffffffffff168273ffffffffffffffffffffffffffffffffffffffff16036200039c576040517f08c379a0000000000000000000000000000000000000000000000000000000008152600401620003939062000a29565b60405180910390fd5b81600660006101000a81548173ffffffffffffffffffffffffffffffffffffffff021916908373ffffffffffffffffffffffffffffffffffffffff160217905550600073ffffffffffffffffffffffffffffffffffffffff168173ffffffffffffffffffffffffffffffffffffffff161462000424576200042381620004ba60201b60201c565b5b505050600960009054906101000a900473ffffffffffffffffffffffffffffffffffffffff16600860006101000a81548173ffffffffffffffffffffffffffffffffffffffff021916908373ffffffffffffffffffffffffffffffffffffffff16021790555080600760146101000a81548167ffffffffffffffff021916908367ffffffffffffffff1602179055505062000abd565b3373ffffffffffffffffffffffffffffffffffffffff168173ffffffffffffffffffffffffffffffffffffffff16036200052b576040517f08c379a0000000000000000000000000000000000000000000000000000000008152600401620005229062000a9b565b60405180910390fd5b80600760006101000a81548173ffffffffffffffffffffffffffffffffffffffff021916908373ffffffffffffffffffffffffffffffffffffffff1602179055508073ffffffffffffffffffffffffffffffffffffffff16600660009054906101000a900473ffffffffffffffffffffffffffffffffffffffff1673ffffffffffffffffffffffffffffffffffffffff167fed8889f560326eb138920d842192f0eb3dd22b4f139c87a2c57538e05bae127860405160405180910390a350565b600081519050919050565b7f4e487b7100000000000000000000000000000000000000000000000000000000600052604160045260246000fd5b7f4e487b7100000000000000000000000000000000000000000000000000000000600052602260045260246000fd5b600060028204905060018216806200066d57607f821691505b60208210810362000683576200068262000625565b5b50919050565b60008190508160005260206000209050919050565b60006020601f8301049050919050565b600082821b905092915050565b600060088302620006ed7fffffffffffffffffffffffffffffffffffffffffffffffffffffffffffffffff82620006ae565b620006f98683620006ae565b95508019841693508086168417925050509392505050565b6000819050919050565b6000819050919050565b600062000746620007406200073a8462000711565b6200071b565b62000711565b9050919050565b6000819050919050565b620007628362000725565b6200077a62000771826200074d565b848454620006bb565b825550505050565b600090565b6200079162000782565b6200079e81848462000757565b505050565b5b81811015620007c657620007ba60008262000787565b600181019050620007a4565b5050565b601f8211156200081557620007df8162000689565b620007ea846200069e565b81016020851015620007fa578190505b6200081262000809856200069e565b830182620007a3565b50505b505050565b600082821c905092915050565b60006200083a600019846008026200081a565b1980831691505092915050565b600062000855838362000827565b9150826002028217905092915050565b6200087082620005eb565b67ffffffffffffffff8111156200088c576200088b620005f6565b5b62000898825462000654565b620008a5828285620007ca565b600060209050601f831160018114620008dd5760008415620008c8578287015190505b620008d4858262000847565b86555062000944565b601f198416620008ed8662000689565b60005b828110156200091757848901518255600182019150602085019450602081019050620008f0565b8683101562000937578489015162000933601f89168262000827565b8355505b6001600288020188555050505b505050505050565b600080fd5b600067ffffffffffffffff82169050919050565b620009708162000951565b81146200097c57600080fd5b50565b600081519050620009908162000965565b92915050565b600060208284031215620009af57620009ae6200094c565b5b6000620009bf848285016200097f565b91505092915050565b600082825260208201905092915050565b7f43616e6e6f7420736574206f776e657220746f207a65726f0000000000000000600082015250565b600062000a11601883620009c8565b915062000a1e82620009d9565b602082019050919050565b6000602082019050818103600083015262000a448162000a02565b9050919050565b7f43616e6e6f74207472616e7366657220746f2073656c66000000000000000000600082015250565b600062000a83601783620009c8565b915062000a908262000a4b565b602082019050919050565b6000602082019050818103600083015262000ab68162000a74565b9050919050565b60805160a05161542d62000af160003960008181610880015261273501526000818161095c01526109b0015261542d6000f3fe608060405234801561001057600080fd5b50600436106101c45760003560e01c806370a08231116100f9578063b88d4fde11610097578063e3ba336811610071578063e3ba336814610515578063e985e9c514610531578063f0503e8014610561578063f2fde38b14610591576101c4565b8063b88d4fde14610499578063c3a80f2b146104b5578063c87b56dd146104e5576101c4565b80638cbab7e4116100d35780638cbab7e4146104115780638da5cb5b1461044157806395d89b411461045f578063a22cb4651461047d576101c4565b806370a08231146103bb5780637363ae1f146103eb57806379ba509714610407576101c4565b806323b872dd11610166578063508225521161014057806350822552146102fb5780635280b0341461032b57806361eba5521461035b5780636352211e1461038b576101c4565b806323b872dd146102a557806342842e0e146102c15780634d2e03a0146102dd576101c4565b8063095ea7b3116101a2578063095ea7b3146102475780630ca76175146102635780631249c58b1461027f5780631fe543e314610289576101c4565b806301ffc9a7146101c957806306fdde03146101f9578063081812fc14610217575b600080fd5b6101e360048036038101906101de91906136d6565b6105ad565b6040516101f0919061371e565b60405180910390f35b61020161068f565b60405161020e91906137c9565b60405180910390f35b610231600480360381019061022c9190613821565b610721565b60405161023e919061388f565b60405180910390f35b610261600480360381019061025c91906138d6565b610767565b005b61027d60048036038101906102789190613a81565b61087e565b005b610287610940565b005b6102a3600480360381019061029e9190613bd4565b61095a565b005b6102bf60048036038101906102ba9190613c30565b610a1a565b005b6102db60048036038101906102d69190613c30565b610a7a565b005b6102e5610a9a565b6040516102f291906137c9565b60405180910390f35b61031560048036038101906103109190613821565b610b28565b60405161032291906137c9565b60405180910390f35b61034560048036038101906103409190613821565b610bc8565b6040516103529190613c92565b60405180910390f35b61037560048036038101906103709190613821565b610be0565b60405161038291906137c9565b60405180910390f35b6103a560048036038101906103a09190613821565b610d30565b6040516103b2919061388f565b60405180910390f35b6103d560048036038101906103d09190613cad565b610db6565b6040516103e29190613c92565b60405180910390f35b61040560048036038101906104009190613821565b610e6d565b005b61040f610ff5565b005b61042b60048036038101906104269190613cad565b61118c565b6040516104389190613c92565b60405180910390f35b6104496111ac565b604051610456919061388f565b60405180910390f35b6104676111d6565b60405161047491906137c9565b60405180910390f35b61049760048036038101906104929190613d06565b611268565b005b6104b360048036038101906104ae9190613d46565b61127e565b005b6104cf60048036038101906104ca9190613dc9565b6112e0565b6040516104dc9190613c92565b60405180910390f35b6104ff60048036038101906104fa9190613821565b6112f8565b60405161050c91906137c9565b60405180910390f35b61052f600480360381019061052a9190613e36565b611331565b005b61054b60048036038101906105469190613e76565b61152b565b604051610558919061371e565b60405180910390f35b61057b60048036038101906105769190613821565b6115bf565b6040516105889190613c92565b60405180910390f35b6105ab60048036038101906105a69190613cad565b6115d7565b005b60007f80ac58cd000000000000000000000000000000000000000000000000000000007bffffffffffffffffffffffffffffffffffffffffffffffffffffffff1916827bffffffffffffffffffffffffffffffffffffffffffffffffffffffff1916148061067857507f5b5e139f000000000000000000000000000000000000000000000000000000007bffffffffffffffffffffffffffffffffffffffffffffffffffffffff1916827bffffffffffffffffffffffffffffffffffffffffffffffffffffffff1916145b806106885750610687826115eb565b5b9050919050565b60606000805461069e90613ee5565b80601f01602080910402602001604051908101604052809291908181526020018280546106ca90613ee5565b80156107175780601f106106ec57610100808354040283529160200191610717565b820191906000526020600020905b8154815290600101906020018083116106fa57829003601f168201915b5050505050905090565b600061072c82611655565b6004600083815260200190815260200160002060009054906101000a900473ffffffffffffffffffffffffffffffffffffffff169050919050565b600061077282610d30565b90508073ffffffffffffffffffffffffffffffffffffffff168373ffffffffffffffffffffffffffffffffffffffff16036107e2576040517f08c379a00000000000000000000000000000000000000000000000000000000081526004016107d990613f88565b60405180910390fd5b8073ffffffffffffffffffffffffffffffffffffffff166108016116a0565b73ffffffffffffffffffffffffffffffffffffffff161480610830575061082f8161082a6116a0565b61152b565b5b61086f576040517f08c379a00000000000000000000000000000000000000000000000000000000081526004016108669061401a565b60405180910390fd5b61087983836116a8565b505050565b7f000000000000000000000000000000000000000000000000000000000000000073ffffffffffffffffffffffffffffffffffffffff163373ffffffffffffffffffffffffffffffffffffffff1614610903576040517fc6829f8300000000000000000000000000000000000000000000000000000000815260040160405180910390fd5b61090e838383611761565b827f85e1543bf2f84fe80c6badbce3648c8539ad1df4d2b3d822938ca0538be727e660405160405180910390a2505050565b600061094b3361118c565b905061095733826117de565b50565b7f000000000000000000000000000000000000000000000000000000000000000073ffffffffffffffffffffffffffffffffffffffff163373ffffffffffffffffffffffffffffffffffffffff1614610a0c57337f00000000000000000000000000000000000000000000000000000000000000006040517f1cf993f4000000000000000000000000000000000000000000000000000000008152600401610a0392919061403a565b60405180910390fd5b610a1682826119fb565b5050565b610a2b610a256116a0565b82611a89565b610a6a576040517f08c379a0000000000000000000000000000000000000000000000000000000008152600401610a61906140d5565b60405180910390fd5b610a75838383611b1e565b505050565b610a958383836040518060200160405280600081525061127e565b505050565b60108054610aa790613ee5565b80601f0160208091040260200160405190810160405280929190818152602001828054610ad390613ee5565b8015610b205780601f10610af557610100808354040283529160200191610b20565b820191906000526020600020905b815481529060010190602001808311610b0357829003601f168201915b505050505081565b60126020528060005260406000206000915090508054610b4790613ee5565b80601f0160208091040260200160405190810160405280929190818152602001828054610b7390613ee5565b8015610bc05780601f10610b9557610100808354040283529160200191610bc0565b820191906000526020600020905b815481529060010190602001808311610ba357829003601f168201915b505050505081565b600c6020528060005260406000206000915090505481565b6060610beb82611e17565b610c2a576040517f08c379a0000000000000000000000000000000000000000000000000000000008152600401610c2190614141565b60405180910390fd5b60006040518060400160405280601081526020017f4c696e6b3a4265636f6d6548756d616e00000000000000000000000000000000815250905060006040518060400160405280601c81526020017f54686973206973204c696e6b3a4265636f6d6548756d616e204e465400000000815250905060006040518060400160405280602081526020017f68747470733a2f2f706c616365686f6c642e6a702f353030783530302e706e678152509050600060405180606001604052806034815260200161538460349139905083838383610d028a611e58565b604051602001610d16959493929190614365565b604051602081830303815290604052945050505050919050565b600080610d3c83611f26565b9050600073ffffffffffffffffffffffffffffffffffffffff168173ffffffffffffffffffffffffffffffffffffffff1603610dad576040517f08c379a0000000000000000000000000000000000000000000000000000000008152600401610da49061443e565b60405180910390fd5b80915050919050565b60008073ffffffffffffffffffffffffffffffffffffffff168273ffffffffffffffffffffffffffffffffffffffff1603610e26576040517f08c379a0000000000000000000000000000000000000000000000000000000008152600401610e1d906144d0565b60405180910390fd5b600360008373ffffffffffffffffffffffffffffffffffffffff1673ffffffffffffffffffffffffffffffffffffffff168152602001908152602001600020549050919050565b3373ffffffffffffffffffffffffffffffffffffffff16610e8d82610d30565b73ffffffffffffffffffffffffffffffffffffffff1614610ee3576040517f08c379a0000000000000000000000000000000000000000000000000000000008152600401610eda9061453c565b60405180910390fd5b6000600860009054906101000a900473ffffffffffffffffffffffffffffffffffffffff1673ffffffffffffffffffffffffffffffffffffffff16635d3b1d30600a54600760149054906101000a900467ffffffffffffffff16600b60049054906101000a900461ffff16600b60009054906101000a900463ffffffff16600b60069054906101000a900463ffffffff166040518663ffffffff1660e01b8152600401610f949594939291906145b6565b6020604051808303816000875af1158015610fb3573d6000803e3d6000fd5b505050506040513d601f19601f82011682018060405250810190610fd7919061461e565b905081600c6000838152602001908152602001600020819055505050565b600760009054906101000a900473ffffffffffffffffffffffffffffffffffffffff1673ffffffffffffffffffffffffffffffffffffffff163373ffffffffffffffffffffffffffffffffffffffff1614611085576040517f08c379a000000000000000000000000000000000000000000000000000000000815260040161107c90614697565b60405180910390fd5b6000600660009054906101000a900473ffffffffffffffffffffffffffffffffffffffff16905033600660006101000a81548173ffffffffffffffffffffffffffffffffffffffff021916908373ffffffffffffffffffffffffffffffffffffffff1602179055506000600760006101000a81548173ffffffffffffffffffffffffffffffffffffffff021916908373ffffffffffffffffffffffffffffffffffffffff1602179055503373ffffffffffffffffffffffffffffffffffffffff168173ffffffffffffffffffffffffffffffffffffffff167f8be0079c531659141344cd1fd0a4f28419497f9722a3daafe3b4186f6b6457e060405160405180910390a350565b60008173ffffffffffffffffffffffffffffffffffffffff169050919050565b6000600660009054906101000a900473ffffffffffffffffffffffffffffffffffffffff16905090565b6060600180546111e590613ee5565b80601f016020809104026020016040519081016040528092919081815260200182805461121190613ee5565b801561125e5780601f106112335761010080835404028352916020019161125e565b820191906000526020600020905b81548152906001019060200180831161124157829003601f168201915b5050505050905090565b61127a6112736116a0565b8383611f63565b5050565b61128f6112896116a0565b83611a89565b6112ce576040517f08c379a00000000000000000000000000000000000000000000000000000000081526004016112c5906140d5565b60405180910390fd5b6112da848484846120cf565b50505050565b60116020528060005260406000206000915090505481565b606061130b61130683610be0565b61212b565b60405160200161131b9190614703565b6040516020818303038152906040529050919050565b600061133c82610d30565b90503373ffffffffffffffffffffffffffffffffffffffff168173ffffffffffffffffffffffffffffffffffffffff16146113ac576040517f08c379a00000000000000000000000000000000000000000000000000000000081526004016113a39061453c565b60405180910390fd5b6113b46135be565b611451601380546113c490613ee5565b80601f01602080910402602001604051908101604052809291908181526020018280546113f090613ee5565b801561143d5780601f106114125761010080835404028352916020019161143d565b820191906000526020600020905b81548152906001019060200180831161142057829003601f168201915b50505050508261228e90919063ffffffff16565b6000600167ffffffffffffffff81111561146e5761146d613956565b5b6040519080825280602002602001820160405280156114a157816020015b606081526020019060019003908161148c5790505b5090506114ad8361229f565b816000815181106114c1576114c0614725565b5b60200260200101819052506114df81836122cc90919063ffffffff16565b60006115096114ed84612314565b87600e60149054906101000a900463ffffffff16600f54612730565b9050846011600083815260200190815260200160002081905550505050505050565b6000600560008473ffffffffffffffffffffffffffffffffffffffff1673ffffffffffffffffffffffffffffffffffffffff16815260200190815260200160002060008373ffffffffffffffffffffffffffffffffffffffff1673ffffffffffffffffffffffffffffffffffffffff16815260200190815260200160002060009054906101000a900460ff16905092915050565b600d6020528060005260406000206000915090505481565b6115df612813565b6115e8816128a5565b50565b60007f01ffc9a7000000000000000000000000000000000000000000000000000000007bffffffffffffffffffffffffffffffffffffffffffffffffffffffff1916827bffffffffffffffffffffffffffffffffffffffffffffffffffffffff1916149050919050565b61165e81611e17565b61169d576040517f08c379a00000000000000000000000000000000000000000000000000000000081526004016116949061443e565b60405180910390fd5b50565b600033905090565b816004600083815260200190815260200160002060006101000a81548173ffffffffffffffffffffffffffffffffffffffff021916908373ffffffffffffffffffffffffffffffffffffffff160217905550808273ffffffffffffffffffffffffffffffffffffffff1661171b83610d30565b73ffffffffffffffffffffffffffffffffffffffff167f8c5be1e5ebec7d5bd14f71427d1e84f3dd0314c0f7b2291e5b200ac8c7c3b92560405160405180910390a45050565b60006011600085815260200190815260200160002054905060008390508060126000848152602001908152602001600020908161179e9190614900565b50817ff47163253d9118996665530a582f31414c63165d92eb1cd5d1d8e3ca8ad14aa6826040516117cf91906137c9565b60405180910390a25050505050565b600073ffffffffffffffffffffffffffffffffffffffff168273ffffffffffffffffffffffffffffffffffffffff160361184d576040517f08c379a000000000000000000000000000000000000000000000000000000000815260040161184490614a1e565b60405180910390fd5b61185681611e17565b15611896576040517f08c379a000000000000000000000000000000000000000000000000000000000815260040161188d90614a8a565b60405180910390fd5b6118a46000838360016129d3565b6118ad81611e17565b156118ed576040517f08c379a00000000000000000000000000000000000000000000000000000000081526004016118e490614a8a565b60405180910390fd5b6001600360008473ffffffffffffffffffffffffffffffffffffffff1673ffffffffffffffffffffffffffffffffffffffff16815260200190815260200160002060008282540192505081905550816002600083815260200190815260200160002060006101000a81548173ffffffffffffffffffffffffffffffffffffffff021916908373ffffffffffffffffffffffffffffffffffffffff160217905550808273ffffffffffffffffffffffffffffffffffffffff16600073ffffffffffffffffffffffffffffffffffffffff167fddf252ad1be2c89b69c2b068fc378daa952ba7f163c4a11628f55a4df523b3ef60405160405180910390a46119f7600083836001612a54565b5050565b6000600c6000848152602001908152602001600020549050600082600081518110611a2957611a28614725565b5b6020026020010151905080600d600084815260200190815260200160002081905550817faabfe5e8bccf1a1352f72b557ce580211305c37f88d5783ae467a1ba5e0761e082604051611a7b9190613c92565b60405180910390a250505050565b600080611a9583610d30565b90508073ffffffffffffffffffffffffffffffffffffffff168473ffffffffffffffffffffffffffffffffffffffff161480611ad75750611ad6818561152b565b5b80611b1557508373ffffffffffffffffffffffffffffffffffffffff16611afd84610721565b73ffffffffffffffffffffffffffffffffffffffff16145b91505092915050565b8273ffffffffffffffffffffffffffffffffffffffff16611b3e82610d30565b73ffffffffffffffffffffffffffffffffffffffff1614611b94576040517f08c379a0000000000000000000000000000000000000000000000000000000008152600401611b8b90614b1c565b60405180910390fd5b600073ffffffffffffffffffffffffffffffffffffffff168273ffffffffffffffffffffffffffffffffffffffff1603611c03576040517f08c379a0000000000000000000000000000000000000000000000000000000008152600401611bfa90614bae565b60405180910390fd5b611c1083838360016129d3565b8273ffffffffffffffffffffffffffffffffffffffff16611c3082610d30565b73ffffffffffffffffffffffffffffffffffffffff1614611c86576040517f08c379a0000000000000000000000000000000000000000000000000000000008152600401611c7d90614b1c565b60405180910390fd5b6004600082815260200190815260200160002060006101000a81549073ffffffffffffffffffffffffffffffffffffffff02191690556001600360008573ffffffffffffffffffffffffffffffffffffffff1673ffffffffffffffffffffffffffffffffffffffff168152602001908152602001600020600082825403925050819055506001600360008473ffffffffffffffffffffffffffffffffffffffff1673ffffffffffffffffffffffffffffffffffffffff16815260200190815260200160002060008282540192505081905550816002600083815260200190815260200160002060006101000a81548173ffffffffffffffffffffffffffffffffffffffff021916908373ffffffffffffffffffffffffffffffffffffffff160217905550808273ffffffffffffffffffffffffffffffffffffffff168473ffffffffffffffffffffffffffffffffffffffff167fddf252ad1be2c89b69c2b068fc378daa952ba7f163c4a11628f55a4df523b3ef60405160405180910390a4611e128383836001612a54565b505050565b60008073ffffffffffffffffffffffffffffffffffffffff16611e3983611f26565b73ffffffffffffffffffffffffffffffffffffffff1614159050919050565b606060006001611e6784612a5a565b01905060008167ffffffffffffffff811115611e8657611e85613956565b5b6040519080825280601f01601f191660200182016040528015611eb85781602001600182028036833780820191505090505b509050600082602001820190505b600115611f1b578080600190039150507f3031323334353637383961626364656600000000000000000000000000000000600a86061a8153600a8581611f0f57611f0e614bce565b5b04945060008503611ec6575b819350505050919050565b60006002600083815260200190815260200160002060009054906101000a900473ffffffffffffffffffffffffffffffffffffffff169050919050565b8173ffffffffffffffffffffffffffffffffffffffff168373ffffffffffffffffffffffffffffffffffffffff1603611fd1576040517f08c379a0000000000000000000000000000000000000000000000000000000008152600401611fc890614c49565b60405180910390fd5b80600560008573ffffffffffffffffffffffffffffffffffffffff1673ffffffffffffffffffffffffffffffffffffffff16815260200190815260200160002060008473ffffffffffffffffffffffffffffffffffffffff1673ffffffffffffffffffffffffffffffffffffffff16815260200190815260200160002060006101000a81548160ff0219169083151502179055508173ffffffffffffffffffffffffffffffffffffffff168373ffffffffffffffffffffffffffffffffffffffff167f17307eab39ab6107e8899845ad3d59bd9653f200f220920489ca2b5937696c31836040516120c2919061371e565b60405180910390a3505050565b6120da848484611b1e565b6120e684848484612bad565b612125576040517f08c379a000000000000000000000000000000000000000000000000000000000815260040161211c90614cdb565b60405180910390fd5b50505050565b6060600082510361214d57604051806020016040528060008152509050612289565b60006040518060600160405280604081526020016153b8604091399050600060036002855161217c9190614d2a565b6121869190614d5e565b60046121929190614d8f565b67ffffffffffffffff8111156121ab576121aa613956565b5b6040519080825280601f01601f1916602001820160405280156121dd5781602001600182028036833780820191505090505b509050600182016020820185865187015b80821015612249576003820191508151603f8160121c168501518453600184019350603f81600c1c168501518453600184019350603f8160061c168501518453600184019350603f81168501518453600184019350506121ee565b5050600386510660018114612265576002811461227857612280565b603d6001830353603d6002830353612280565b603d60018303535b50505080925050505b919050565b61229b8260008084612d34565b5050565b60606122c58273ffffffffffffffffffffffffffffffffffffffff16601460ff16612dde565b9050919050565b6000815103612307576040517ffe936cb700000000000000000000000000000000000000000000000000000000815260040160405180910390fd5b808260a001819052505050565b6060600061232361010061301a565b905061236d6040518060400160405280600c81526020017f636f64654c6f636174696f6e00000000000000000000000000000000000000008152508261304190919063ffffffff16565b6123968360000151600281111561238757612386614dd1565b5b8261306a90919063ffffffff16565b6123de6040518060400160405280600881526020017f6c616e67756167650000000000000000000000000000000000000000000000008152508261304190919063ffffffff16565b612407836040015160008111156123f8576123f7614dd1565b5b8261306a90919063ffffffff16565b61244f6040518060400160405280600681526020017f736f7572636500000000000000000000000000000000000000000000000000008152508261304190919063ffffffff16565b61246683606001518261304190919063ffffffff16565b60008360a00151511115612522576124bc6040518060400160405280600481526020017f61726773000000000000000000000000000000000000000000000000000000008152508261304190919063ffffffff16565b6124c5816130ba565b60005b8360a0015151811015612517576125068460a0015182815181106124ef576124ee614725565b5b60200260200101518361304190919063ffffffff16565b8061251090614e00565b90506124c8565b50612521816130e2565b5b60008360800151511115612663576000600281111561254457612543614dd1565b5b8360200151600281111561255b5761255a614dd1565b5b03612592576040517fa80d31f700000000000000000000000000000000000000000000000000000000815260040160405180910390fd5b6125da6040518060400160405280600f81526020017f736563726574734c6f636174696f6e00000000000000000000000000000000008152508261304190919063ffffffff16565b612603836020015160028111156125f4576125f3614dd1565b5b8261306a90919063ffffffff16565b61264b6040518060400160405280600781526020017f73656372657473000000000000000000000000000000000000000000000000008152508261304190919063ffffffff16565b61266283608001518261310a90919063ffffffff16565b5b60008360c0015151111561271f576126b96040518060400160405280600981526020017f62797465734172677300000000000000000000000000000000000000000000008152508261304190919063ffffffff16565b6126c2816130ba565b60005b8360c0015151811015612714576127038460c0015182815181106126ec576126eb614725565b5b60200260200101518361310a90919063ffffffff16565b8061270d90614e00565b90506126c5565b5061271e816130e2565b5b806000015160000151915050919050565b6000807f000000000000000000000000000000000000000000000000000000000000000073ffffffffffffffffffffffffffffffffffffffff1663461d27628688600188886040518663ffffffff1660e01b8152600401612795959493929190614e9d565b6020604051808303816000875af11580156127b4573d6000803e3d6000fd5b505050506040513d601f19601f820116820180604052508101906127d89190614f0c565b9050807f1131472297a800fee664d1d89cfa8f7676ff07189ecc53f80bbb5f4969099db860405160405180910390a280915050949350505050565b600660009054906101000a900473ffffffffffffffffffffffffffffffffffffffff1673ffffffffffffffffffffffffffffffffffffffff163373ffffffffffffffffffffffffffffffffffffffff16146128a3576040517f08c379a000000000000000000000000000000000000000000000000000000000815260040161289a90614f85565b60405180910390fd5b565b3373ffffffffffffffffffffffffffffffffffffffff168173ffffffffffffffffffffffffffffffffffffffff1603612913576040517f08c379a000000000000000000000000000000000000000000000000000000000815260040161290a90614ff1565b60405180910390fd5b80600760006101000a81548173ffffffffffffffffffffffffffffffffffffffff021916908373ffffffffffffffffffffffffffffffffffffffff1602179055508073ffffffffffffffffffffffffffffffffffffffff16600660009054906101000a900473ffffffffffffffffffffffffffffffffffffffff1673ffffffffffffffffffffffffffffffffffffffff167fed8889f560326eb138920d842192f0eb3dd22b4f139c87a2c57538e05bae127860405160405180910390a350565b600073ffffffffffffffffffffffffffffffffffffffff168473ffffffffffffffffffffffffffffffffffffffff1614612a42576040517f08c379a0000000000000000000000000000000000000000000000000000000008152600401612a399061505d565b60405180910390fd5b612a4e84848484613133565b50505050565b50505050565b600080600090507a184f03e93ff9f4daa797ed6e38ed64bf6a1f0100000000000000008310612ab8577a184f03e93ff9f4daa797ed6e38ed64bf6a1f0100000000000000008381612aae57612aad614bce565b5b0492506040810190505b6d04ee2d6d415b85acef81000000008310612af5576d04ee2d6d415b85acef81000000008381612aeb57612aea614bce565b5b0492506020810190505b662386f26fc100008310612b2457662386f26fc100008381612b1a57612b19614bce565b5b0492506010810190505b6305f5e1008310612b4d576305f5e1008381612b4357612b42614bce565b5b0492506008810190505b6127108310612b72576127108381612b6857612b67614bce565b5b0492506004810190505b60648310612b955760648381612b8b57612b8a614bce565b5b0492506002810190505b600a8310612ba4576001810190505b80915050919050565b6000612bce8473ffffffffffffffffffffffffffffffffffffffff16613139565b15612d27578373ffffffffffffffffffffffffffffffffffffffff1663150b7a02612bf76116a0565b8786866040518563ffffffff1660e01b8152600401612c19949392919061507d565b6020604051808303816000875af1925050508015612c5557506040513d601f19601f82011682018060405250810190612c5291906150de565b60015b612cd7573d8060008114612c85576040519150601f19603f3d011682016040523d82523d6000602084013e612c8a565b606091505b506000815103612ccf576040517f08c379a0000000000000000000000000000000000000000000000000000000008152600401612cc690614cdb565b60405180910390fd5b805181602001fd5b63150b7a0260e01b7bffffffffffffffffffffffffffffffffffffffffffffffffffffffff1916817bffffffffffffffffffffffffffffffffffffffffffffffffffffffff191614915050612d2c565b600190505b949350505050565b6000815103612d6f576040517f22ce3edd00000000000000000000000000000000000000000000000000000000815260040160405180910390fd5b8284600001906002811115612d8757612d86614dd1565b5b90816002811115612d9b57612d9a614dd1565b5b815250508184604001906000811115612db757612db6614dd1565b5b90816000811115612dcb57612dca614dd1565b5b8152505080846060018190525050505050565b606060006002836002612df19190614d8f565b612dfb9190614d2a565b67ffffffffffffffff811115612e1457612e13613956565b5b6040519080825280601f01601f191660200182016040528015612e465781602001600182028036833780820191505090505b5090507f300000000000000000000000000000000000000000000000000000000000000081600081518110612e7e57612e7d614725565b5b60200101907effffffffffffffffffffffffffffffffffffffffffffffffffffffffffffff1916908160001a9053507f780000000000000000000000000000000000000000000000000000000000000081600181518110612ee257612ee1614725565b5b60200101907effffffffffffffffffffffffffffffffffffffffffffffffffffffffffffff1916908160001a90535060006001846002612f229190614d8f565b612f2c9190614d2a565b90505b6001811115612fcc577f3031323334353637383961626364656600000000000000000000000000000000600f861660108110612f6e57612f6d614725565b5b1a60f81b828281518110612f8557612f84614725565b5b60200101907effffffffffffffffffffffffffffffffffffffffffffffffffffffffffffff1916908160001a905350600485901c945080612fc59061510b565b9050612f2f565b5060008414613010576040517f08c379a000000000000000000000000000000000000000000000000000000000815260040161300790615180565b60405180910390fd5b8091505092915050565b613022613630565b61303081600001518361315c565b506000816020018181525050919050565b61304e82600383516131d5565b61306581836000015161337e90919063ffffffff16565b505050565b61308c60026005600660ff16901b17836000015161339a90919063ffffffff16565b506130b682826040516020016130a29190613c92565b60405160208183030381529060405261310a565b5050565b6130c5816004613404565b6001816020018181516130d89190614d2a565b9150818152505050565b6130ed816007613404565b60018160200181815161310091906151a0565b9150818152505050565b61311782600283516131d5565b61312e81836000015161337e90919063ffffffff16565b505050565b50505050565b6000808273ffffffffffffffffffffffffffffffffffffffff163b119050919050565b613164613650565b600060208361317391906151d4565b1461319f5760208261318591906151d4565b602061319191906151a0565b8261319c9190614d2a565b91505b8183602001818152505060405180845260008152828101602001818110156131c657600080fd5b80604052505082905092915050565b60178167ffffffffffffffff16116132105761320a8160058460ff16901b60ff1617846000015161339a90919063ffffffff16565b50613379565b60ff8167ffffffffffffffff161161326e57613243601860058460ff16901b17846000015161339a90919063ffffffff16565b506132688167ffffffffffffffff166001856000015161342a9092919063ffffffff16565b50613378565b61ffff8167ffffffffffffffff16116132cd576132a2601960058460ff16901b17846000015161339a90919063ffffffff16565b506132c78167ffffffffffffffff166002856000015161342a9092919063ffffffff16565b50613377565b63ffffffff8167ffffffffffffffff161161332e57613303601a60058460ff16901b17846000015161339a90919063ffffffff16565b506133288167ffffffffffffffff166004856000015161342a9092919063ffffffff16565b50613376565b61334f601b60058460ff16901b17846000015161339a90919063ffffffff16565b506133748167ffffffffffffffff166008856000015161342a9092919063ffffffff16565b505b5b5b5b505050565b613386613650565b613392838384516134b7565b905092915050565b6133a2613650565b6000836000015151905060006001826133bb9190614d2a565b9050846020015182106133df576133de856002836133d99190614d8f565b61359a565b5b845160208382010185815381518311156133f7578282525b5050849250505092915050565b613425601f60058360ff16901b17836000015161339a90919063ffffffff16565b505050565b613432613650565b600084600001515190506000818461344a9190614d2a565b9050856020015181111561346f5761346e866002836134699190614d8f565b61359a565b5b60006001856101006134819190615338565b61348b91906151a0565b9050865182810187831982511617815281518411156134a8578382525b50508693505050509392505050565b6134bf613650565b82518211156134cd57600080fd5b60008460000151519050600083826134e59190614d2a565b9050856020015181111561350a57613509866002836135049190614d8f565b61359a565b5b60008087518051856020830101935080851115613525578482525b60208901925050505b6020861061356c57805182526020826135479190614d2a565b91506020816135569190614d2a565b905060208661356591906151a0565b955061352e565b60006001876020036101000a0390508019825116818451168181178552505050879450505050509392505050565b6000826000015190506135ad838361315c565b506135b8838261337e565b50505050565b6040518060e00160405280600060028111156135dd576135dc614dd1565b5b8152602001600060028111156135f6576135f5614dd1565b5b815260200160008081111561360e5761360d614dd1565b5b8152602001606081526020016060815260200160608152602001606081525090565b6040518060400160405280613643613650565b8152602001600081525090565b604051806040016040528060608152602001600081525090565b6000604051905090565b600080fd5b600080fd5b60007fffffffff0000000000000000000000000000000000000000000000000000000082169050919050565b6136b38161367e565b81146136be57600080fd5b50565b6000813590506136d0816136aa565b92915050565b6000602082840312156136ec576136eb613674565b5b60006136fa848285016136c1565b91505092915050565b60008115159050919050565b61371881613703565b82525050565b6000602082019050613733600083018461370f565b92915050565b600081519050919050565b600082825260208201905092915050565b60005b83811015613773578082015181840152602081019050613758565b60008484015250505050565b6000601f19601f8301169050919050565b600061379b82613739565b6137a58185613744565b93506137b5818560208601613755565b6137be8161377f565b840191505092915050565b600060208201905081810360008301526137e38184613790565b905092915050565b6000819050919050565b6137fe816137eb565b811461380957600080fd5b50565b60008135905061381b816137f5565b92915050565b60006020828403121561383757613836613674565b5b60006138458482850161380c565b91505092915050565b600073ffffffffffffffffffffffffffffffffffffffff82169050919050565b60006138798261384e565b9050919050565b6138898161386e565b82525050565b60006020820190506138a46000830184613880565b92915050565b6138b38161386e565b81146138be57600080fd5b50565b6000813590506138d0816138aa565b92915050565b600080604083850312156138ed576138ec613674565b5b60006138fb858286016138c1565b925050602061390c8582860161380c565b9150509250929050565b6000819050919050565b61392981613916565b811461393457600080fd5b50565b60008135905061394681613920565b92915050565b600080fd5b600080fd5b7f4e487b7100000000000000000000000000000000000000000000000000000000600052604160045260246000fd5b61398e8261377f565b810181811067ffffffffffffffff821117156139ad576139ac613956565b5b80604052505050565b60006139c061366a565b90506139cc8282613985565b919050565b600067ffffffffffffffff8211156139ec576139eb613956565b5b6139f58261377f565b9050602081019050919050565b82818337600083830152505050565b6000613a24613a1f846139d1565b6139b6565b905082815260208101848484011115613a4057613a3f613951565b5b613a4b848285613a02565b509392505050565b600082601f830112613a6857613a6761394c565b5b8135613a78848260208601613a11565b91505092915050565b600080600060608486031215613a9a57613a99613674565b5b6000613aa886828701613937565b935050602084013567ffffffffffffffff811115613ac957613ac8613679565b5b613ad586828701613a53565b925050604084013567ffffffffffffffff811115613af657613af5613679565b5b613b0286828701613a53565b9150509250925092565b600067ffffffffffffffff821115613b2757613b26613956565b5b602082029050602081019050919050565b600080fd5b6000613b50613b4b84613b0c565b6139b6565b90508083825260208201905060208402830185811115613b7357613b72613b38565b5b835b81811015613b9c5780613b88888261380c565b845260208401935050602081019050613b75565b5050509392505050565b600082601f830112613bbb57613bba61394c565b5b8135613bcb848260208601613b3d565b91505092915050565b60008060408385031215613beb57613bea613674565b5b6000613bf98582860161380c565b925050602083013567ffffffffffffffff811115613c1a57613c19613679565b5b613c2685828601613ba6565b9150509250929050565b600080600060608486031215613c4957613c48613674565b5b6000613c57868287016138c1565b9350506020613c68868287016138c1565b9250506040613c798682870161380c565b9150509250925092565b613c8c816137eb565b82525050565b6000602082019050613ca76000830184613c83565b92915050565b600060208284031215613cc357613cc2613674565b5b6000613cd1848285016138c1565b91505092915050565b613ce381613703565b8114613cee57600080fd5b50565b600081359050613d0081613cda565b92915050565b60008060408385031215613d1d57613d1c613674565b5b6000613d2b858286016138c1565b9250506020613d3c85828601613cf1565b9150509250929050565b60008060008060808587031215613d6057613d5f613674565b5b6000613d6e878288016138c1565b9450506020613d7f878288016138c1565b9350506040613d908782880161380c565b925050606085013567ffffffffffffffff811115613db157613db0613679565b5b613dbd87828801613a53565b91505092959194509250565b600060208284031215613ddf57613dde613674565b5b6000613ded84828501613937565b91505092915050565b600067ffffffffffffffff82169050919050565b613e1381613df6565b8114613e1e57600080fd5b50565b600081359050613e3081613e0a565b92915050565b60008060408385031215613e4d57613e4c613674565b5b6000613e5b85828601613e21565b9250506020613e6c8582860161380c565b9150509250929050565b60008060408385031215613e8d57613e8c613674565b5b6000613e9b858286016138c1565b9250506020613eac858286016138c1565b9150509250929050565b7f4e487b7100000000000000000000000000000000000000000000000000000000600052602260045260246000fd5b60006002820490506001821680613efd57607f821691505b602082108103613f1057613f0f613eb6565b5b50919050565b7f4552433732313a20617070726f76616c20746f2063757272656e74206f776e6560008201527f7200000000000000000000000000000000000000000000000000000000000000602082015250565b6000613f72602183613744565b9150613f7d82613f16565b604082019050919050565b60006020820190508181036000830152613fa181613f65565b9050919050565b7f4552433732313a20617070726f76652063616c6c6572206973206e6f7420746f60008201527f6b656e206f776e6572206f7220617070726f76656420666f7220616c6c000000602082015250565b6000614004603d83613744565b915061400f82613fa8565b604082019050919050565b6000602082019050818103600083015261403381613ff7565b9050919050565b600060408201905061404f6000830185613880565b61405c6020830184613880565b9392505050565b7f4552433732313a2063616c6c6572206973206e6f7420746f6b656e206f776e6560008201527f72206f7220617070726f76656400000000000000000000000000000000000000602082015250565b60006140bf602d83613744565b91506140ca82614063565b604082019050919050565b600060208201905081810360008301526140ee816140b2565b9050919050565b7f717565727920666f72206e6f6e6578697374656e7420746f6b656e0000000000600082015250565b600061412b601b83613744565b9150614136826140f5565b602082019050919050565b6000602082019050818103600083015261415a8161411e565b9050919050565b600081905092915050565b7f7b226e616d65223a220000000000000000000000000000000000000000000000600082015250565b60006141a2600983614161565b91506141ad8261416c565b600982019050919050565b60006141c382613739565b6141cd8185614161565b93506141dd818560208601613755565b80840191505092915050565b7f222c226465736372697074696f6e223a22000000000000000000000000000000600082015250565b600061421f601183614161565b915061422a826141e9565b601182019050919050565b7f222c22696d616765223a22000000000000000000000000000000000000000000600082015250565b600061426b600b83614161565b915061427682614235565b600b82019050919050565b7f222c22616e696d6174696f6e5f75726c223a2200000000000000000000000000600082015250565b60006142b7601383614161565b91506142c282614281565b601382019050919050565b7f3f69643d00000000000000000000000000000000000000000000000000000000600082015250565b6000614303600483614161565b915061430e826142cd565b600482019050919050565b7f227d000000000000000000000000000000000000000000000000000000000000600082015250565b600061434f600283614161565b915061435a82614319565b600282019050919050565b600061437082614195565b915061437c82886141b8565b915061438782614212565b915061439382876141b8565b915061439e8261425e565b91506143aa82866141b8565b91506143b5826142aa565b91506143c182856141b8565b91506143cc826142f6565b91506143d882846141b8565b91506143e382614342565b91508190509695505050505050565b7f4552433732313a20696e76616c696420746f6b656e2049440000000000000000600082015250565b6000614428601883613744565b9150614433826143f2565b602082019050919050565b600060208201905081810360008301526144578161441b565b9050919050565b7f4552433732313a2061646472657373207a65726f206973206e6f74206120766160008201527f6c6964206f776e65720000000000000000000000000000000000000000000000602082015250565b60006144ba602983613744565b91506144c58261445e565b604082019050919050565b600060208201905081810360008301526144e9816144ad565b9050919050565b7f6e6f7420746f6b656e206f776e65720000000000000000000000000000000000600082015250565b6000614526600f83613744565b9150614531826144f0565b602082019050919050565b6000602082019050818103600083015261455581614519565b9050919050565b61456581613916565b82525050565b61457481613df6565b82525050565b600061ffff82169050919050565b6145918161457a565b82525050565b600063ffffffff82169050919050565b6145b081614597565b82525050565b600060a0820190506145cb600083018861455c565b6145d8602083018761456b565b6145e56040830186614588565b6145f260608301856145a7565b6145ff60808301846145a7565b9695505050505050565b600081519050614618816137f5565b92915050565b60006020828403121561463457614633613674565b5b600061464284828501614609565b91505092915050565b7f4d7573742062652070726f706f736564206f776e657200000000000000000000600082015250565b6000614681601683613744565b915061468c8261464b565b602082019050919050565b600060208201905081810360008301526146b081614674565b9050919050565b7f646174613a6170706c69636174696f6e2f6a736f6e3b6261736536342c000000600082015250565b60006146ed601d83614161565b91506146f8826146b7565b601d82019050919050565b600061470e826146e0565b915061471a82846141b8565b915081905092915050565b7f4e487b7100000000000000000000000000000000000000000000000000000000600052603260045260246000fd5b60008190508160005260206000209050919050565b60006020601f8301049050919050565b600082821b905092915050565b6000600883026147b67fffffffffffffffffffffffffffffffffffffffffffffffffffffffffffffffff82614779565b6147c08683614779565b95508019841693508086168417925050509392505050565b6000819050919050565b60006147fd6147f86147f3846137eb565b6147d8565b6137eb565b9050919050565b6000819050919050565b614817836147e2565b61482b61482382614804565b848454614786565b825550505050565b600090565b614840614833565b61484b81848461480e565b505050565b5b8181101561486f57614864600082614838565b600181019050614851565b5050565b601f8211156148b45761488581614754565b61488e84614769565b8101602085101561489d578190505b6148b16148a985614769565b830182614850565b50505b505050565b600082821c905092915050565b60006148d7600019846008026148b9565b1980831691505092915050565b60006148f083836148c6565b9150826002028217905092915050565b61490982613739565b67ffffffffffffffff81111561492257614921613956565b5b61492c8254613ee5565b614937828285614873565b600060209050601f83116001811461496a5760008415614958578287015190505b61496285826148e4565b8655506149ca565b601f19841661497886614754565b60005b828110156149a05784890151825560018201915060208501945060208101905061497b565b868310156149bd57848901516149b9601f8916826148c6565b8355505b6001600288020188555050505b505050505050565b7f4552433732313a206d696e7420746f20746865207a65726f2061646472657373600082015250565b6000614a08602083613744565b9150614a13826149d2565b602082019050919050565b60006020820190508181036000830152614a37816149fb565b9050919050565b7f4552433732313a20746f6b656e20616c7265616479206d696e74656400000000600082015250565b6000614a74601c83613744565b9150614a7f82614a3e565b602082019050919050565b60006020820190508181036000830152614aa381614a67565b9050919050565b7f4552433732313a207472616e736665722066726f6d20696e636f72726563742060008201527f6f776e6572000000000000000000000000000000000000000000000000000000602082015250565b6000614b06602583613744565b9150614b1182614aaa565b604082019050919050565b60006020820190508181036000830152614b3581614af9565b9050919050565b7f4552433732313a207472616e7366657220746f20746865207a65726f2061646460008201527f7265737300000000000000000000000000000000000000000000000000000000602082015250565b6000614b98602483613744565b9150614ba382614b3c565b604082019050919050565b60006020820190508181036000830152614bc781614b8b565b9050919050565b7f4e487b7100000000000000000000000000000000000000000000000000000000600052601260045260246000fd5b7f4552433732313a20617070726f766520746f2063616c6c657200000000000000600082015250565b6000614c33601983613744565b9150614c3e82614bfd565b602082019050919050565b60006020820190508181036000830152614c6281614c26565b9050919050565b7f4552433732313a207472616e7366657220746f206e6f6e20455243373231526560008201527f63656976657220696d706c656d656e7465720000000000000000000000000000602082015250565b6000614cc5603283613744565b9150614cd082614c69565b604082019050919050565b60006020820190508181036000830152614cf481614cb8565b9050919050565b7f4e487b7100000000000000000000000000000000000000000000000000000000600052601160045260246000fd5b6000614d35826137eb565b9150614d40836137eb565b9250828201905080821115614d5857614d57614cfb565b5b92915050565b6000614d69826137eb565b9150614d74836137eb565b925082614d8457614d83614bce565b5b828204905092915050565b6000614d9a826137eb565b9150614da5836137eb565b9250828202614db3816137eb565b91508282048414831517614dca57614dc9614cfb565b5b5092915050565b7f4e487b7100000000000000000000000000000000000000000000000000000000600052602160045260246000fd5b6000614e0b826137eb565b91507fffffffffffffffffffffffffffffffffffffffffffffffffffffffffffffffff8203614e3d57614e3c614cfb565b5b600182019050919050565b600081519050919050565b600082825260208201905092915050565b6000614e6f82614e48565b614e798185614e53565b9350614e89818560208601613755565b614e928161377f565b840191505092915050565b600060a082019050614eb2600083018861456b565b8181036020830152614ec48187614e64565b9050614ed36040830186614588565b614ee060608301856145a7565b614eed608083018461455c565b9695505050505050565b600081519050614f0681613920565b92915050565b600060208284031215614f2257614f21613674565b5b6000614f3084828501614ef7565b91505092915050565b7f4f6e6c792063616c6c61626c65206279206f776e657200000000000000000000600082015250565b6000614f6f601683613744565b9150614f7a82614f39565b602082019050919050565b60006020820190508181036000830152614f9e81614f62565b9050919050565b7f43616e6e6f74207472616e7366657220746f2073656c66000000000000000000600082015250565b6000614fdb601783613744565b9150614fe682614fa5565b602082019050919050565b6000602082019050818103600083015261500a81614fce565b9050919050565b7f6e6f6e207472616e7366657261626c6500000000000000000000000000000000600082015250565b6000615047601083613744565b915061505282615011565b602082019050919050565b600060208201905081810360008301526150768161503a565b9050919050565b60006080820190506150926000830187613880565b61509f6020830186613880565b6150ac6040830185613c83565b81810360608301526150be8184614e64565b905095945050505050565b6000815190506150d8816136aa565b92915050565b6000602082840312156150f4576150f3613674565b5b6000615102848285016150c9565b91505092915050565b6000615116826137eb565b91506000820361512957615128614cfb565b5b600182039050919050565b7f537472696e67733a20686578206c656e67746820696e73756666696369656e74600082015250565b600061516a602083613744565b915061517582615134565b602082019050919050565b600060208201905081810360008301526151998161515d565b9050919050565b60006151ab826137eb565b91506151b6836137eb565b92508282039050818111156151ce576151cd614cfb565b5b92915050565b60006151df826137eb565b91506151ea836137eb565b9250826151fa576151f9614bce565b5b828206905092915050565b60008160011c9050919050565b6000808291508390505b600185111561525c5780860481111561523857615237614cfb565b5b60018516156152475780820291505b808102905061525585615205565b945061521c565b94509492505050565b6000826152755760019050615331565b816152835760009050615331565b816001811461529957600281146152a3576152d2565b6001915050615331565b60ff8411156152b5576152b4614cfb565b5b8360020a9150848211156152cc576152cb614cfb565b5b50615331565b5060208310610133831016604e8410600b84101617156153075782820a90508381111561530257615301614cfb565b5b615331565b6153148484846001615212565b9250905081840481111561532b5761532a614cfb565b5b81810290505b9392505050565b6000615343826137eb565b915061534e836137eb565b925061537b7fffffffffffffffffffffffffffffffffffffffffffffffffffffffffffffffff8484615265565b90509291505056fe68747470733a2f2f6c696e6b2d6265636f6d652d68756d616e2e76657263656c2e6170702f67616d652f696e6465782e68746d6c4142434445464748494a4b4c4d4e4f505152535455565758595a6162636465666768696a6b6c6d6e6f707172737475767778797a303132333435363738392b2fa26469706673582212206418d2989d55cbd08fa22b73bf76c1d6b85a15693c8090f016f9b61b7f315b1a64736f6c63430008130033636f6e73742061646472657373203d20617267735b305d3b636f6e737420617069526573706f6e7365203d2061776169742046756e6374696f6e732e6d616b654874747052657175657374287b75726c3a206068747470733a2f2f6c696e6b2d6265636f6d652d68756d616e2e76657263656c2e6170702f6170692f68756d616e6974792f247b616464726573737d607d293b69662028617069526573706f6e73652e6572726f7229207b7468726f77204572726f72282752657175657374206661696c656427293b7d636f6e7374207b2064617461207d203d20617069526573706f6e73653b72657475726e2046756e6374696f6e732e656e636f6465537472696e6728646174612e746f537472696e672829293b",
  "linkReferences": {},
  "deployedLinkReferences": {}
}