{
  "_format": "hh-sol-artifact-1",
  "contractName": "LinkBecomeHuman",
  "sourceName": "contracts/LinkBecomeHuman.sol",
  "abi": [
    {
      "inputs": [
        {
          "internalType": "uint64",
          "name": "subscriptionId",
          "type": "uint64"
        },
        {
          "internalType": "uint64",
          "name": "_func_subscriptionId",
          "type": "uint64"
        }
      ],
      "stateMutability": "nonpayable",
      "type": "constructor"
    },
    {
      "inputs": [],
      "name": "EmptyArgs",
      "type": "error"
    },
    {
      "inputs": [],
      "name": "EmptySource",
      "type": "error"
    },
    {
      "inputs": [],
      "name": "NoInlineSecrets",
      "type": "error"
    },
    {
      "inputs": [
        {
          "internalType": "address",
          "name": "have",
          "type": "address"
        },
        {
          "internalType": "address",
          "name": "want",
          "type": "address"
        }
      ],
      "name": "OnlyCoordinatorCanFulfill",
      "type": "error"
    },
    {
      "inputs": [],
      "name": "OnlyRouterCanFulfill",
      "type": "error"
    },
    {
      "inputs": [],
      "name": "OnlySimulatedBackend",
      "type": "error"
    },
    {
      "anonymous": false,
      "inputs": [
        {
          "indexed": true,
          "internalType": "address",
          "name": "owner",
          "type": "address"
        },
        {
          "indexed": true,
          "internalType": "address",
          "name": "approved",
          "type": "address"
        },
        {
          "indexed": true,
          "internalType": "uint256",
          "name": "tokenId",
          "type": "uint256"
        }
      ],
      "name": "Approval",
      "type": "event"
    },
    {
      "anonymous": false,
      "inputs": [
        {
          "indexed": true,
          "internalType": "address",
          "name": "owner",
          "type": "address"
        },
        {
          "indexed": true,
          "internalType": "address",
          "name": "operator",
          "type": "address"
        },
        {
          "indexed": false,
          "internalType": "bool",
          "name": "approved",
          "type": "bool"
        }
      ],
      "name": "ApprovalForAll",
      "type": "event"
    },
    {
      "anonymous": false,
      "inputs": [
        {
          "indexed": true,
          "internalType": "uint256",
          "name": "tokenId",
          "type": "uint256"
        },
        {
          "indexed": false,
          "internalType": "string",
          "name": "humanityScore",
          "type": "string"
        }
      ],
      "name": "HumanityScoreUpdated",
      "type": "event"
    },
    {
      "anonymous": false,
      "inputs": [
        {
          "indexed": true,
          "internalType": "address",
          "name": "from",
          "type": "address"
        },
        {
          "indexed": true,
          "internalType": "address",
          "name": "to",
          "type": "address"
        }
      ],
      "name": "OwnershipTransferRequested",
      "type": "event"
    },
    {
      "anonymous": false,
      "inputs": [
        {
          "indexed": true,
          "internalType": "address",
          "name": "from",
          "type": "address"
        },
        {
          "indexed": true,
          "internalType": "address",
          "name": "to",
          "type": "address"
        }
      ],
      "name": "OwnershipTransferred",
      "type": "event"
    },
    {
      "anonymous": false,
      "inputs": [
        {
          "indexed": true,
          "internalType": "bytes32",
          "name": "id",
          "type": "bytes32"
        }
      ],
      "name": "RequestFulfilled",
      "type": "event"
    },
    {
      "anonymous": false,
      "inputs": [
        {
          "indexed": true,
          "internalType": "bytes32",
          "name": "id",
          "type": "bytes32"
        }
      ],
      "name": "RequestSent",
      "type": "event"
    },
    {
      "anonymous": false,
      "inputs": [
        {
          "indexed": true,
          "internalType": "uint256",
          "name": "tokenId",
          "type": "uint256"
        },
        {
          "indexed": false,
          "internalType": "uint256",
          "name": "seed",
          "type": "uint256"
        }
      ],
      "name": "SeedUpdated",
      "type": "event"
    },
    {
      "anonymous": false,
      "inputs": [
        {
          "indexed": true,
          "internalType": "address",
          "name": "from",
          "type": "address"
        },
        {
          "indexed": true,
          "internalType": "address",
          "name": "to",
          "type": "address"
        },
        {
          "indexed": true,
          "internalType": "uint256",
          "name": "tokenId",
          "type": "uint256"
        }
      ],
      "name": "Transfer",
      "type": "event"
    },
    {
      "inputs": [],
      "name": "acceptOwnership",
      "outputs": [],
      "stateMutability": "nonpayable",
      "type": "function"
    },
    {
      "inputs": [
        {
          "internalType": "address",
          "name": "to",
          "type": "address"
        },
        {
          "internalType": "uint256",
          "name": "tokenId",
          "type": "uint256"
        }
      ],
      "name": "approve",
      "outputs": [],
      "stateMutability": "nonpayable",
      "type": "function"
    },
    {
      "inputs": [
        {
          "internalType": "address",
          "name": "owner",
          "type": "address"
        }
      ],
      "name": "balanceOf",
      "outputs": [
        {
          "internalType": "uint256",
          "name": "",
          "type": "uint256"
        }
      ],
      "stateMutability": "view",
      "type": "function"
    },
    {
      "inputs": [],
      "name": "character",
      "outputs": [
        {
          "internalType": "string",
          "name": "",
          "type": "string"
        }
      ],
      "stateMutability": "view",
      "type": "function"
    },
    {
      "inputs": [
        {
          "internalType": "bytes",
          "name": "",
          "type": "bytes"
        }
      ],
      "name": "checkUpkeep",
      "outputs": [
        {
          "internalType": "bool",
          "name": "upkeepNeeded",
          "type": "bool"
        },
        {
          "internalType": "bytes",
          "name": "",
          "type": "bytes"
        }
      ],
      "stateMutability": "view",
      "type": "function"
    },
    {
      "inputs": [
        {
          "internalType": "bytes32",
          "name": "",
          "type": "bytes32"
        }
      ],
      "name": "functionRequestIdToTokenId",
      "outputs": [
        {
          "internalType": "uint256",
          "name": "",
          "type": "uint256"
        }
      ],
      "stateMutability": "view",
      "type": "function"
    },
    {
      "inputs": [
        {
          "internalType": "uint256",
          "name": "tokenId",
          "type": "uint256"
        }
      ],
      "name": "getApproved",
      "outputs": [
        {
          "internalType": "address",
          "name": "",
          "type": "address"
        }
      ],
      "stateMutability": "view",
      "type": "function"
    },
    {
      "inputs": [
        {
          "internalType": "uint256",
          "name": "_tokenId",
          "type": "uint256"
        }
      ],
      "name": "getMetaData",
      "outputs": [
        {
          "internalType": "string",
          "name": "",
          "type": "string"
        }
      ],
      "stateMutability": "view",
      "type": "function"
    },
    {
      "inputs": [
        {
          "internalType": "address",
          "name": "_address",
          "type": "address"
        }
      ],
      "name": "getTokenIdByAddress",
      "outputs": [
        {
          "internalType": "uint256",
          "name": "",
          "type": "uint256"
        }
      ],
      "stateMutability": "view",
      "type": "function"
    },
    {
      "inputs": [
        {
          "internalType": "bytes32",
          "name": "requestId",
          "type": "bytes32"
        },
        {
          "internalType": "bytes",
          "name": "response",
          "type": "bytes"
        },
        {
          "internalType": "bytes",
          "name": "err",
          "type": "bytes"
        }
      ],
      "name": "handleOracleFulfillment",
      "outputs": [],
      "stateMutability": "nonpayable",
      "type": "function"
    },
    {
      "inputs": [
        {
          "internalType": "uint256",
          "name": "",
          "type": "uint256"
        }
      ],
      "name": "humanityScores",
      "outputs": [
        {
          "internalType": "string",
          "name": "",
          "type": "string"
        }
      ],
      "stateMutability": "view",
      "type": "function"
    },
    {
      "inputs": [
        {
          "internalType": "address",
          "name": "owner",
          "type": "address"
        },
        {
          "internalType": "address",
          "name": "operator",
          "type": "address"
        }
      ],
      "name": "isApprovedForAll",
      "outputs": [
        {
          "internalType": "bool",
          "name": "",
          "type": "bool"
        }
      ],
      "stateMutability": "view",
      "type": "function"
    },
    {
      "inputs": [
        {
          "internalType": "uint256",
          "name": "",
          "type": "uint256"
        }
      ],
      "name": "isUpkeepNeeded",
      "outputs": [
        {
          "internalType": "bool",
          "name": "",
          "type": "bool"
        }
      ],
      "stateMutability": "view",
      "type": "function"
    },
    {
      "inputs": [],
      "name": "mint",
      "outputs": [],
      "stateMutability": "nonpayable",
      "type": "function"
    },
    {
      "inputs": [
        {
          "internalType": "uint256",
          "name": "",
          "type": "uint256"
        }
      ],
      "name": "mintedTokenId",
      "outputs": [
        {
          "internalType": "uint256",
          "name": "",
          "type": "uint256"
        }
      ],
      "stateMutability": "view",
      "type": "function"
    },
    {
      "inputs": [],
      "name": "name",
      "outputs": [
        {
          "internalType": "string",
          "name": "",
          "type": "string"
        }
      ],
      "stateMutability": "view",
      "type": "function"
    },
    {
      "inputs": [],
      "name": "owner",
      "outputs": [
        {
          "internalType": "address",
          "name": "",
          "type": "address"
        }
      ],
      "stateMutability": "view",
      "type": "function"
    },
    {
      "inputs": [
        {
          "internalType": "uint256",
          "name": "tokenId",
          "type": "uint256"
        }
      ],
      "name": "ownerOf",
      "outputs": [
        {
          "internalType": "address",
          "name": "",
          "type": "address"
        }
      ],
      "stateMutability": "view",
      "type": "function"
    },
    {
      "inputs": [
        {
          "internalType": "bytes",
          "name": "",
          "type": "bytes"
        }
      ],
      "name": "performUpkeep",
      "outputs": [],
      "stateMutability": "nonpayable",
      "type": "function"
    },
    {
      "inputs": [
        {
          "internalType": "uint256",
          "name": "requestId",
          "type": "uint256"
        },
        {
          "internalType": "uint256[]",
          "name": "randomWords",
          "type": "uint256[]"
        }
      ],
      "name": "rawFulfillRandomWords",
      "outputs": [],
      "stateMutability": "nonpayable",
      "type": "function"
    },
    {
      "inputs": [
        {
          "internalType": "uint256",
          "name": "_tokenId",
          "type": "uint256"
        }
      ],
      "name": "requestRandomness",
      "outputs": [],
      "stateMutability": "nonpayable",
      "type": "function"
    },
    {
      "inputs": [
        {
          "internalType": "address",
          "name": "from",
          "type": "address"
        },
        {
          "internalType": "address",
          "name": "to",
          "type": "address"
        },
        {
          "internalType": "uint256",
          "name": "tokenId",
          "type": "uint256"
        }
      ],
      "name": "safeTransferFrom",
      "outputs": [],
      "stateMutability": "nonpayable",
      "type": "function"
    },
    {
      "inputs": [
        {
          "internalType": "address",
          "name": "from",
          "type": "address"
        },
        {
          "internalType": "address",
          "name": "to",
          "type": "address"
        },
        {
          "internalType": "uint256",
          "name": "tokenId",
          "type": "uint256"
        },
        {
          "internalType": "bytes",
          "name": "data",
          "type": "bytes"
        }
      ],
      "name": "safeTransferFrom",
      "outputs": [],
      "stateMutability": "nonpayable",
      "type": "function"
    },
    {
      "inputs": [
        {
          "internalType": "uint256",
          "name": "",
          "type": "uint256"
        }
      ],
      "name": "seeds",
      "outputs": [
        {
          "internalType": "uint256",
          "name": "",
          "type": "uint256"
        }
      ],
      "stateMutability": "view",
      "type": "function"
    },
    {
      "inputs": [
        {
          "internalType": "uint256",
          "name": "tokenId",
          "type": "uint256"
        }
      ],
      "name": "sendRequest",
      "outputs": [],
      "stateMutability": "nonpayable",
      "type": "function"
    },
    {
      "inputs": [
        {
          "internalType": "address",
          "name": "operator",
          "type": "address"
        },
        {
          "internalType": "bool",
          "name": "approved",
          "type": "bool"
        }
      ],
      "name": "setApprovalForAll",
      "outputs": [],
      "stateMutability": "nonpayable",
      "type": "function"
    },
    {
      "inputs": [
        {
          "internalType": "uint256",
          "name": "tokenId",
          "type": "uint256"
        },
        {
          "internalType": "bool",
          "name": "status",
          "type": "bool"
        }
      ],
      "name": "setUpkeep",
      "outputs": [],
      "stateMutability": "nonpayable",
      "type": "function"
    },
    {
      "inputs": [
        {
          "internalType": "bytes4",
          "name": "interfaceId",
          "type": "bytes4"
        }
      ],
      "name": "supportsInterface",
      "outputs": [
        {
          "internalType": "bool",
          "name": "",
          "type": "bool"
        }
      ],
      "stateMutability": "view",
      "type": "function"
    },
    {
      "inputs": [],
      "name": "symbol",
      "outputs": [
        {
          "internalType": "string",
          "name": "",
          "type": "string"
        }
      ],
      "stateMutability": "view",
      "type": "function"
    },
    {
      "inputs": [
        {
          "internalType": "uint256",
          "name": "tokenId",
          "type": "uint256"
        }
      ],
      "name": "tokenURI",
      "outputs": [
        {
          "internalType": "string",
          "name": "",
          "type": "string"
        }
      ],
      "stateMutability": "view",
      "type": "function"
    },
    {
      "inputs": [
        {
          "internalType": "address",
          "name": "from",
          "type": "address"
        },
        {
          "internalType": "address",
          "name": "to",
          "type": "address"
        },
        {
          "internalType": "uint256",
          "name": "tokenId",
          "type": "uint256"
        }
      ],
      "name": "transferFrom",
      "outputs": [],
      "stateMutability": "nonpayable",
      "type": "function"
    },
    {
      "inputs": [
        {
          "internalType": "address",
          "name": "to",
          "type": "address"
        }
      ],
      "name": "transferOwnership",
      "outputs": [],
      "stateMutability": "nonpayable",
      "type": "function"
    },
    {
      "inputs": [
        {
          "internalType": "uint256",
          "name": "",
          "type": "uint256"
        }
      ],
      "name": "vrfRequestIdToTokenId",
      "outputs": [
        {
          "internalType": "uint256",
          "name": "",
          "type": "uint256"
        }
      ],
      "stateMutability": "view",
      "type": "function"
    }
  ],
  "bytecode": "0x60c0604052732ed832ba664535e5886b75d64c46eb9a228c2610600960006101000a81548173ffffffffffffffffffffffffffffffffffffffff021916908373ffffffffffffffffffffffffffffffffffffffff1602179055507f354d2f95da55398f44b7cff77da56283d9c6c829a4bdf1bbcaf2ad6a4d081f6160001b600a55619c40600b60006101000a81548163ffffffff021916908363ffffffff1602179055506003600b60046101000a81548161ffff021916908361ffff1602179055506001600b60066101000a81548163ffffffff021916908363ffffffff16021790555073a9d587a00a31a52ed70d6026794a8fc5e2f5dcb0600e60086101000a81548173ffffffffffffffffffffffffffffffffffffffff021916908373ffffffffffffffffffffffffffffffffffffffff160217905550620493e0600e601c6101000a81548163ffffffff021916908363ffffffff1602179055507f66756e2d6176616c616e6368652d66756a692d3100000000000000000000000060001b600f5560405180610140016040528061011681526020016200643d610116913960139081620001b091906200088f565b50348015620001be57600080fd5b5060405162006553380380620065538339818101604052810190620001e49190620009c0565b33806000600e60089054906101000a900473ffffffffffffffffffffffffffffffffffffffff16600960009054906101000a900473ffffffffffffffffffffffffffffffffffffffff166040518060400160405280601081526020017f4c696e6b3a4265636f6d6548756d616e000000000000000000000000000000008152506040518060400160405280600381526020017f4c424800000000000000000000000000000000000000000000000000000000008152508160009081620002ab91906200088f565b508060019081620002bd91906200088f565b5050508073ffffffffffffffffffffffffffffffffffffffff1660808173ffffffffffffffffffffffffffffffffffffffff1681525050508073ffffffffffffffffffffffffffffffffffffffff1660a08173ffffffffffffffffffffffffffffffffffffffff168152505050600073ffffffffffffffffffffffffffffffffffffffff168273ffffffffffffffffffffffffffffffffffffffff16036200039c576040517f08c379a0000000000000000000000000000000000000000000000000000000008152600401620003939062000a68565b60405180910390fd5b81600660006101000a81548173ffffffffffffffffffffffffffffffffffffffff021916908373ffffffffffffffffffffffffffffffffffffffff160217905550600073ffffffffffffffffffffffffffffffffffffffff168173ffffffffffffffffffffffffffffffffffffffff161462000424576200042381620004e460201b60201c565b5b505050600960009054906101000a900473ffffffffffffffffffffffffffffffffffffffff16600860006101000a81548173ffffffffffffffffffffffffffffffffffffffff021916908373ffffffffffffffffffffffffffffffffffffffff16021790555081600760146101000a81548167ffffffffffffffff021916908367ffffffffffffffff16021790555080600e60006101000a81548167ffffffffffffffff021916908367ffffffffffffffff160217905550505062000afc565b3373ffffffffffffffffffffffffffffffffffffffff168173ffffffffffffffffffffffffffffffffffffffff160362000555576040517f08c379a00000000000000000000000000000000000000000000000000000000081526004016200054c9062000ada565b60405180910390fd5b80600760006101000a81548173ffffffffffffffffffffffffffffffffffffffff021916908373ffffffffffffffffffffffffffffffffffffffff1602179055508073ffffffffffffffffffffffffffffffffffffffff16600660009054906101000a900473ffffffffffffffffffffffffffffffffffffffff1673ffffffffffffffffffffffffffffffffffffffff167fed8889f560326eb138920d842192f0eb3dd22b4f139c87a2c57538e05bae127860405160405180910390a350565b600081519050919050565b7f4e487b7100000000000000000000000000000000000000000000000000000000600052604160045260246000fd5b7f4e487b7100000000000000000000000000000000000000000000000000000000600052602260045260246000fd5b600060028204905060018216806200069757607f821691505b602082108103620006ad57620006ac6200064f565b5b50919050565b60008190508160005260206000209050919050565b60006020601f8301049050919050565b600082821b905092915050565b600060088302620007177fffffffffffffffffffffffffffffffffffffffffffffffffffffffffffffffff82620006d8565b620007238683620006d8565b95508019841693508086168417925050509392505050565b6000819050919050565b6000819050919050565b6000620007706200076a62000764846200073b565b62000745565b6200073b565b9050919050565b6000819050919050565b6200078c836200074f565b620007a46200079b8262000777565b848454620006e5565b825550505050565b600090565b620007bb620007ac565b620007c881848462000781565b505050565b5b81811015620007f057620007e4600082620007b1565b600181019050620007ce565b5050565b601f8211156200083f576200080981620006b3565b6200081484620006c8565b8101602085101562000824578190505b6200083c6200083385620006c8565b830182620007cd565b50505b505050565b600082821c905092915050565b6000620008646000198460080262000844565b1980831691505092915050565b60006200087f838362000851565b9150826002028217905092915050565b6200089a8262000615565b67ffffffffffffffff811115620008b657620008b562000620565b5b620008c282546200067e565b620008cf828285620007f4565b600060209050601f831160018114620009075760008415620008f2578287015190505b620008fe858262000871565b8655506200096e565b601f1984166200091786620006b3565b60005b8281101562000941578489015182556001820191506020850194506020810190506200091a565b868310156200096157848901516200095d601f89168262000851565b8355505b6001600288020188555050505b505050505050565b600080fd5b600067ffffffffffffffff82169050919050565b6200099a816200097b565b8114620009a657600080fd5b50565b600081519050620009ba816200098f565b92915050565b60008060408385031215620009da57620009d962000976565b5b6000620009ea85828601620009a9565b9250506020620009fd85828601620009a9565b9150509250929050565b600082825260208201905092915050565b7f43616e6e6f7420736574206f776e657220746f207a65726f0000000000000000600082015250565b600062000a5060188362000a07565b915062000a5d8262000a18565b602082019050919050565b6000602082019050818103600083015262000a838162000a41565b9050919050565b7f43616e6e6f74207472616e7366657220746f2073656c66000000000000000000600082015250565b600062000ac260178362000a07565b915062000acf8262000a8a565b602082019050919050565b6000602082019050818103600083015262000af58162000ab3565b9050919050565b60805160a05161590d62000b30600039600081816109800152612686015260008181610a850152610ad9015261590d6000f3fe608060405234801561001057600080fd5b50600436106101fb5760003560e01c806361eba5521161011a57806395d89b41116100ad578063c3a80f2b1161007c578063c3a80f2b146105d1578063c87b56dd14610601578063e985e9c514610631578063f0503e8014610661578063f2fde38b14610691576101fb565b806395d89b411461055f578063a22cb4651461057d578063b88d4fde14610599578063c31e4eff146105b5576101fb565b80637363ae1f116100e95780637363ae1f146104eb57806379ba5097146105075780638cbab7e4146105115780638da5cb5b14610541576101fb565b806361eba5521461042a5780636352211e1461045a5780636e04ff0d1461048a57806370a08231146104bb576101fb565b806331e70508116101925780634d2e03a0116101615780634d2e03a01461037c578063508225521461039a5780635280b034146103ca578063560dbafd146103fa576101fb565b806331e70508146102f857806342842e0e146103145780634585e33b146103305780634b857c791461034c576101fb565b80630ca76175116101ce5780630ca761751461029a5780631249c58b146102b65780631fe543e3146102c057806323b872dd146102dc576101fb565b806301ffc9a71461020057806306fdde0314610230578063081812fc1461024e578063095ea7b31461027e575b600080fd5b61021a60048036038101906102159190613a9e565b6106ad565b6040516102279190613ae6565b60405180910390f35b61023861078f565b6040516102459190613b91565b60405180910390f35b61026860048036038101906102639190613be9565b610821565b6040516102759190613c57565b60405180910390f35b61029860048036038101906102939190613c9e565b610867565b005b6102b460048036038101906102af9190613e49565b61097e565b005b6102be610a40565b005b6102da60048036038101906102d59190613f9c565b610a83565b005b6102f660048036038101906102f19190613ff8565b610b43565b005b610312600480360381019061030d9190613be9565b610ba3565b005b61032e60048036038101906103299190613ff8565b610de8565b005b61034a600480360381019061034591906140a6565b610e08565b005b61036660048036038101906103619190613be9565b610ee6565b6040516103739190613ae6565b60405180910390f35b610384610f06565b6040516103919190613b91565b60405180910390f35b6103b460048036038101906103af9190613be9565b610f94565b6040516103c19190613b91565b60405180910390f35b6103e460048036038101906103df9190613be9565b611034565b6040516103f19190614102565b60405180910390f35b610414600480360381019061040f9190613be9565b61104c565b6040516104219190614102565b60405180910390f35b610444600480360381019061043f9190613be9565b611070565b6040516104519190613b91565b60405180910390f35b610474600480360381019061046f9190613be9565b6111c0565b6040516104819190613c57565b60405180910390f35b6104a4600480360381019061049f91906140a6565b611246565b6040516104b2929190614172565b60405180910390f35b6104d560048036038101906104d091906141a2565b6112cd565b6040516104e29190614102565b60405180910390f35b61050560048036038101906105009190613be9565b611384565b005b61050f61150c565b005b61052b600480360381019061052691906141a2565b6116a3565b6040516105389190614102565b60405180910390f35b6105496116c3565b6040516105569190613c57565b60405180910390f35b6105676116ed565b6040516105749190613b91565b60405180910390f35b610597600480360381019061059291906141fb565b61177f565b005b6105b360048036038101906105ae919061423b565b611795565b005b6105cf60048036038101906105ca91906142be565b6117f7565b005b6105eb60048036038101906105e691906142fe565b6118a2565b6040516105f89190614102565b60405180910390f35b61061b60048036038101906106169190613be9565b6118ba565b6040516106289190613b91565b60405180910390f35b61064b6004803603810190610646919061432b565b6118f3565b6040516106589190613ae6565b60405180910390f35b61067b60048036038101906106769190613be9565b611987565b6040516106889190614102565b60405180910390f35b6106ab60048036038101906106a691906141a2565b61199f565b005b60007f80ac58cd000000000000000000000000000000000000000000000000000000007bffffffffffffffffffffffffffffffffffffffffffffffffffffffff1916827bffffffffffffffffffffffffffffffffffffffffffffffffffffffff1916148061077857507f5b5e139f000000000000000000000000000000000000000000000000000000007bffffffffffffffffffffffffffffffffffffffffffffffffffffffff1916827bffffffffffffffffffffffffffffffffffffffffffffffffffffffff1916145b806107885750610787826119b3565b5b9050919050565b60606000805461079e9061439a565b80601f01602080910402602001604051908101604052809291908181526020018280546107ca9061439a565b80156108175780601f106107ec57610100808354040283529160200191610817565b820191906000526020600020905b8154815290600101906020018083116107fa57829003601f168201915b5050505050905090565b600061082c82611a1d565b6004600083815260200190815260200160002060009054906101000a900473ffffffffffffffffffffffffffffffffffffffff169050919050565b6000610872826111c0565b90508073ffffffffffffffffffffffffffffffffffffffff168373ffffffffffffffffffffffffffffffffffffffff16036108e2576040517f08c379a00000000000000000000000000000000000000000000000000000000081526004016108d99061443d565b60405180910390fd5b8073ffffffffffffffffffffffffffffffffffffffff16610901611a68565b73ffffffffffffffffffffffffffffffffffffffff161480610930575061092f8161092a611a68565b6118f3565b5b61096f576040517f08c379a0000000000000000000000000000000000000000000000000000000008152600401610966906144cf565b60405180910390fd5b6109798383611a70565b505050565b7f000000000000000000000000000000000000000000000000000000000000000073ffffffffffffffffffffffffffffffffffffffff163373ffffffffffffffffffffffffffffffffffffffff1614610a03576040517fc6829f8300000000000000000000000000000000000000000000000000000000815260040160405180910390fd5b610a0e838383611b29565b827f85e1543bf2f84fe80c6badbce3648c8539ad1df4d2b3d822938ca0538be727e660405160405180910390a2505050565b6000610a4b336116a3565b9050610a573382611ba6565b601481908060018154018082558091505060019003906000526020600020016000909190919091505550565b7f000000000000000000000000000000000000000000000000000000000000000073ffffffffffffffffffffffffffffffffffffffff163373ffffffffffffffffffffffffffffffffffffffff1614610b3557337f00000000000000000000000000000000000000000000000000000000000000006040517f1cf993f4000000000000000000000000000000000000000000000000000000008152600401610b2c9291906144ef565b60405180910390fd5b610b3f8282611dc3565b5050565b610b54610b4e611a68565b82611e51565b610b93576040517f08c379a0000000000000000000000000000000000000000000000000000000008152600401610b8a9061458a565b60405180910390fd5b610b9e838383611ee6565b505050565b6000610bae826111c0565b90503373ffffffffffffffffffffffffffffffffffffffff168173ffffffffffffffffffffffffffffffffffffffff161480610c1557503373ffffffffffffffffffffffffffffffffffffffff163073ffffffffffffffffffffffffffffffffffffffff16145b610c54576040517f08c379a0000000000000000000000000000000000000000000000000000000008152600401610c4b906145f6565b60405180910390fd5b610c5c613986565b610cf960138054610c6c9061439a565b80601f0160208091040260200160405190810160405280929190818152602001828054610c989061439a565b8015610ce55780601f10610cba57610100808354040283529160200191610ce5565b820191906000526020600020905b815481529060010190602001808311610cc857829003601f168201915b5050505050826121df90919063ffffffff16565b6000600167ffffffffffffffff811115610d1657610d15613d1e565b5b604051908082528060200260200182016040528015610d4957816020015b6060815260200190600190039081610d345790505b509050610d55836121f0565b81600081518110610d6957610d68614616565b5b6020026020010181905250610d87818361221d90919063ffffffff16565b6000610dc7610d9584612265565b600e60009054906101000a900467ffffffffffffffff16600e601c9054906101000a900463ffffffff16600f54612681565b90508460116000838152602001908152602001600020819055505050505050565b610e0383838360405180602001604052806000815250611795565b505050565b60005b601480549050811015610ee157600060148281548110610e2e57610e2d614616565b5b906000526020600020015490506015600082815260200190815260200160002060009054906101000a900460ff1615610ecd573073ffffffffffffffffffffffffffffffffffffffff166331e70508826040518263ffffffff1660e01b8152600401610e9a9190614102565b600060405180830381600087803b158015610eb457600080fd5b505af1158015610ec8573d6000803e3d6000fd5b505050505b508080610ed990614674565b915050610e0b565b505050565b60156020528060005260406000206000915054906101000a900460ff1681565b60108054610f139061439a565b80601f0160208091040260200160405190810160405280929190818152602001828054610f3f9061439a565b8015610f8c5780601f10610f6157610100808354040283529160200191610f8c565b820191906000526020600020905b815481529060010190602001808311610f6f57829003601f168201915b505050505081565b60126020528060005260406000206000915090508054610fb39061439a565b80601f0160208091040260200160405190810160405280929190818152602001828054610fdf9061439a565b801561102c5780601f106110015761010080835404028352916020019161102c565b820191906000526020600020905b81548152906001019060200180831161100f57829003601f168201915b505050505081565b600c6020528060005260406000206000915090505481565b6014818154811061105c57600080fd5b906000526020600020016000915090505481565b606061107b82612764565b6110ba576040517f08c379a00000000000000000000000000000000000000000000000000000000081526004016110b190614708565b60405180910390fd5b60006040518060400160405280601081526020017f4c696e6b3a4265636f6d6548756d616e00000000000000000000000000000000815250905060006040518060400160405280601c81526020017f54686973206973204c696e6b3a4265636f6d6548756d616e204e465400000000815250905060006040518060400160405280602081526020017f68747470733a2f2f706c616365686f6c642e6a702f353030783530302e706e6781525090506000604051806060016040528060348152602001615864603491399050838383836111928a6127a5565b6040516020016111a695949392919061492c565b604051602081830303815290604052945050505050919050565b6000806111cc83612873565b9050600073ffffffffffffffffffffffffffffffffffffffff168173ffffffffffffffffffffffffffffffffffffffff160361123d576040517f08c379a000000000000000000000000000000000000000000000000000000000815260040161123490614a05565b60405180910390fd5b80915050919050565b600060606000915060005b6014805490508110156112c55760006014828154811061127457611273614616565b5b906000526020600020015490506015600082815260200190815260200160002060009054906101000a900460ff16156112b15760019350506112c5565b5080806112bd90614674565b915050611251565b509250929050565b60008073ffffffffffffffffffffffffffffffffffffffff168273ffffffffffffffffffffffffffffffffffffffff160361133d576040517f08c379a000000000000000000000000000000000000000000000000000000000815260040161133490614a97565b60405180910390fd5b600360008373ffffffffffffffffffffffffffffffffffffffff1673ffffffffffffffffffffffffffffffffffffffff168152602001908152602001600020549050919050565b3373ffffffffffffffffffffffffffffffffffffffff166113a4826111c0565b73ffffffffffffffffffffffffffffffffffffffff16146113fa576040517f08c379a00000000000000000000000000000000000000000000000000000000081526004016113f190614b03565b60405180910390fd5b6000600860009054906101000a900473ffffffffffffffffffffffffffffffffffffffff1673ffffffffffffffffffffffffffffffffffffffff16635d3b1d30600a54600760149054906101000a900467ffffffffffffffff16600b60049054906101000a900461ffff16600b60009054906101000a900463ffffffff16600b60069054906101000a900463ffffffff166040518663ffffffff1660e01b81526004016114ab959493929190614b91565b6020604051808303816000875af11580156114ca573d6000803e3d6000fd5b505050506040513d601f19601f820116820180604052508101906114ee9190614bf9565b905081600c6000838152602001908152602001600020819055505050565b600760009054906101000a900473ffffffffffffffffffffffffffffffffffffffff1673ffffffffffffffffffffffffffffffffffffffff163373ffffffffffffffffffffffffffffffffffffffff161461159c576040517f08c379a000000000000000000000000000000000000000000000000000000000815260040161159390614c72565b60405180910390fd5b6000600660009054906101000a900473ffffffffffffffffffffffffffffffffffffffff16905033600660006101000a81548173ffffffffffffffffffffffffffffffffffffffff021916908373ffffffffffffffffffffffffffffffffffffffff1602179055506000600760006101000a81548173ffffffffffffffffffffffffffffffffffffffff021916908373ffffffffffffffffffffffffffffffffffffffff1602179055503373ffffffffffffffffffffffffffffffffffffffff168173ffffffffffffffffffffffffffffffffffffffff167f8be0079c531659141344cd1fd0a4f28419497f9722a3daafe3b4186f6b6457e060405160405180910390a350565b60008173ffffffffffffffffffffffffffffffffffffffff169050919050565b6000600660009054906101000a900473ffffffffffffffffffffffffffffffffffffffff16905090565b6060600180546116fc9061439a565b80601f01602080910402602001604051908101604052809291908181526020018280546117289061439a565b80156117755780601f1061174a57610100808354040283529160200191611775565b820191906000526020600020905b81548152906001019060200180831161175857829003601f168201915b5050505050905090565b61179161178a611a68565b83836128b0565b5050565b6117a66117a0611a68565b83611e51565b6117e5576040517f08c379a00000000000000000000000000000000000000000000000000000000081526004016117dc9061458a565b60405180910390fd5b6117f184848484612a1c565b50505050565b6000611802836111c0565b90503373ffffffffffffffffffffffffffffffffffffffff168173ffffffffffffffffffffffffffffffffffffffff1614611872576040517f08c379a000000000000000000000000000000000000000000000000000000000815260040161186990614b03565b60405180910390fd5b816015600085815260200190815260200160002060006101000a81548160ff021916908315150217905550505050565b60116020528060005260406000206000915090505481565b60606118cd6118c883611070565b612a78565b6040516020016118dd9190614cde565b6040516020818303038152906040529050919050565b6000600560008473ffffffffffffffffffffffffffffffffffffffff1673ffffffffffffffffffffffffffffffffffffffff16815260200190815260200160002060008373ffffffffffffffffffffffffffffffffffffffff1673ffffffffffffffffffffffffffffffffffffffff16815260200190815260200160002060009054906101000a900460ff16905092915050565b600d6020528060005260406000206000915090505481565b6119a7612bdb565b6119b081612c6d565b50565b60007f01ffc9a7000000000000000000000000000000000000000000000000000000007bffffffffffffffffffffffffffffffffffffffffffffffffffffffff1916827bffffffffffffffffffffffffffffffffffffffffffffffffffffffff1916149050919050565b611a2681612764565b611a65576040517f08c379a0000000000000000000000000000000000000000000000000000000008152600401611a5c90614a05565b60405180910390fd5b50565b600033905090565b816004600083815260200190815260200160002060006101000a81548173ffffffffffffffffffffffffffffffffffffffff021916908373ffffffffffffffffffffffffffffffffffffffff160217905550808273ffffffffffffffffffffffffffffffffffffffff16611ae3836111c0565b73ffffffffffffffffffffffffffffffffffffffff167f8c5be1e5ebec7d5bd14f71427d1e84f3dd0314c0f7b2291e5b200ac8c7c3b92560405160405180910390a45050565b600060116000858152602001908152602001600020549050600083905080601260008481526020019081526020016000209081611b669190614eac565b50817ff47163253d9118996665530a582f31414c63165d92eb1cd5d1d8e3ca8ad14aa682604051611b979190613b91565b60405180910390a25050505050565b600073ffffffffffffffffffffffffffffffffffffffff168273ffffffffffffffffffffffffffffffffffffffff1603611c15576040517f08c379a0000000000000000000000000000000000000000000000000000000008152600401611c0c90614fca565b60405180910390fd5b611c1e81612764565b15611c5e576040517f08c379a0000000000000000000000000000000000000000000000000000000008152600401611c5590615036565b60405180910390fd5b611c6c600083836001612d9b565b611c7581612764565b15611cb5576040517f08c379a0000000000000000000000000000000000000000000000000000000008152600401611cac90615036565b60405180910390fd5b6001600360008473ffffffffffffffffffffffffffffffffffffffff1673ffffffffffffffffffffffffffffffffffffffff16815260200190815260200160002060008282540192505081905550816002600083815260200190815260200160002060006101000a81548173ffffffffffffffffffffffffffffffffffffffff021916908373ffffffffffffffffffffffffffffffffffffffff160217905550808273ffffffffffffffffffffffffffffffffffffffff16600073ffffffffffffffffffffffffffffffffffffffff167fddf252ad1be2c89b69c2b068fc378daa952ba7f163c4a11628f55a4df523b3ef60405160405180910390a4611dbf600083836001612e1c565b5050565b6000600c6000848152602001908152602001600020549050600082600081518110611df157611df0614616565b5b6020026020010151905080600d600084815260200190815260200160002081905550817faabfe5e8bccf1a1352f72b557ce580211305c37f88d5783ae467a1ba5e0761e082604051611e439190614102565b60405180910390a250505050565b600080611e5d836111c0565b90508073ffffffffffffffffffffffffffffffffffffffff168473ffffffffffffffffffffffffffffffffffffffff161480611e9f5750611e9e81856118f3565b5b80611edd57508373ffffffffffffffffffffffffffffffffffffffff16611ec584610821565b73ffffffffffffffffffffffffffffffffffffffff16145b91505092915050565b8273ffffffffffffffffffffffffffffffffffffffff16611f06826111c0565b73ffffffffffffffffffffffffffffffffffffffff1614611f5c576040517f08c379a0000000000000000000000000000000000000000000000000000000008152600401611f53906150c8565b60405180910390fd5b600073ffffffffffffffffffffffffffffffffffffffff168273ffffffffffffffffffffffffffffffffffffffff1603611fcb576040517f08c379a0000000000000000000000000000000000000000000000000000000008152600401611fc29061515a565b60405180910390fd5b611fd88383836001612d9b565b8273ffffffffffffffffffffffffffffffffffffffff16611ff8826111c0565b73ffffffffffffffffffffffffffffffffffffffff161461204e576040517f08c379a0000000000000000000000000000000000000000000000000000000008152600401612045906150c8565b60405180910390fd5b6004600082815260200190815260200160002060006101000a81549073ffffffffffffffffffffffffffffffffffffffff02191690556001600360008573ffffffffffffffffffffffffffffffffffffffff1673ffffffffffffffffffffffffffffffffffffffff168152602001908152602001600020600082825403925050819055506001600360008473ffffffffffffffffffffffffffffffffffffffff1673ffffffffffffffffffffffffffffffffffffffff16815260200190815260200160002060008282540192505081905550816002600083815260200190815260200160002060006101000a81548173ffffffffffffffffffffffffffffffffffffffff021916908373ffffffffffffffffffffffffffffffffffffffff160217905550808273ffffffffffffffffffffffffffffffffffffffff168473ffffffffffffffffffffffffffffffffffffffff167fddf252ad1be2c89b69c2b068fc378daa952ba7f163c4a11628f55a4df523b3ef60405160405180910390a46121da8383836001612e1c565b505050565b6121ec8260008084612e22565b5050565b60606122168273ffffffffffffffffffffffffffffffffffffffff16601460ff16612ecc565b9050919050565b6000815103612258576040517ffe936cb700000000000000000000000000000000000000000000000000000000815260040160405180910390fd5b808260a001819052505050565b60606000612274610100613108565b90506122be6040518060400160405280600c81526020017f636f64654c6f636174696f6e00000000000000000000000000000000000000008152508261312f90919063ffffffff16565b6122e7836000015160028111156122d8576122d761517a565b5b8261315890919063ffffffff16565b61232f6040518060400160405280600881526020017f6c616e67756167650000000000000000000000000000000000000000000000008152508261312f90919063ffffffff16565b612358836040015160008111156123495761234861517a565b5b8261315890919063ffffffff16565b6123a06040518060400160405280600681526020017f736f7572636500000000000000000000000000000000000000000000000000008152508261312f90919063ffffffff16565b6123b783606001518261312f90919063ffffffff16565b60008360a001515111156124735761240d6040518060400160405280600481526020017f61726773000000000000000000000000000000000000000000000000000000008152508261312f90919063ffffffff16565b612416816131a8565b60005b8360a0015151811015612468576124578460a0015182815181106124405761243f614616565b5b60200260200101518361312f90919063ffffffff16565b8061246190614674565b9050612419565b50612472816131d0565b5b600083608001515111156125b457600060028111156124955761249461517a565b5b836020015160028111156124ac576124ab61517a565b5b036124e3576040517fa80d31f700000000000000000000000000000000000000000000000000000000815260040160405180910390fd5b61252b6040518060400160405280600f81526020017f736563726574734c6f636174696f6e00000000000000000000000000000000008152508261312f90919063ffffffff16565b612554836020015160028111156125455761254461517a565b5b8261315890919063ffffffff16565b61259c6040518060400160405280600781526020017f73656372657473000000000000000000000000000000000000000000000000008152508261312f90919063ffffffff16565b6125b38360800151826131f890919063ffffffff16565b5b60008360c001515111156126705761260a6040518060400160405280600981526020017f62797465734172677300000000000000000000000000000000000000000000008152508261312f90919063ffffffff16565b612613816131a8565b60005b8360c0015151811015612665576126548460c00151828151811061263d5761263c614616565b5b6020026020010151836131f890919063ffffffff16565b8061265e90614674565b9050612616565b5061266f816131d0565b5b806000015160000151915050919050565b6000807f000000000000000000000000000000000000000000000000000000000000000073ffffffffffffffffffffffffffffffffffffffff1663461d27628688600188886040518663ffffffff1660e01b81526004016126e69594939291906151a9565b6020604051808303816000875af1158015612705573d6000803e3d6000fd5b505050506040513d601f19601f820116820180604052508101906127299190615218565b9050807f1131472297a800fee664d1d89cfa8f7676ff07189ecc53f80bbb5f4969099db860405160405180910390a280915050949350505050565b60008073ffffffffffffffffffffffffffffffffffffffff1661278683612873565b73ffffffffffffffffffffffffffffffffffffffff1614159050919050565b6060600060016127b484613221565b01905060008167ffffffffffffffff8111156127d3576127d2613d1e565b5b6040519080825280601f01601f1916602001820160405280156128055781602001600182028036833780820191505090505b509050600082602001820190505b600115612868578080600190039150507f3031323334353637383961626364656600000000000000000000000000000000600a86061a8153600a858161285c5761285b615245565b5b04945060008503612813575b819350505050919050565b60006002600083815260200190815260200160002060009054906101000a900473ffffffffffffffffffffffffffffffffffffffff169050919050565b8173ffffffffffffffffffffffffffffffffffffffff168373ffffffffffffffffffffffffffffffffffffffff160361291e576040517f08c379a0000000000000000000000000000000000000000000000000000000008152600401612915906152c0565b60405180910390fd5b80600560008573ffffffffffffffffffffffffffffffffffffffff1673ffffffffffffffffffffffffffffffffffffffff16815260200190815260200160002060008473ffffffffffffffffffffffffffffffffffffffff1673ffffffffffffffffffffffffffffffffffffffff16815260200190815260200160002060006101000a81548160ff0219169083151502179055508173ffffffffffffffffffffffffffffffffffffffff168373ffffffffffffffffffffffffffffffffffffffff167f17307eab39ab6107e8899845ad3d59bd9653f200f220920489ca2b5937696c3183604051612a0f9190613ae6565b60405180910390a3505050565b612a27848484611ee6565b612a3384848484613374565b612a72576040517f08c379a0000000000000000000000000000000000000000000000000000000008152600401612a6990615352565b60405180910390fd5b50505050565b60606000825103612a9a57604051806020016040528060008152509050612bd6565b60006040518060600160405280604081526020016158986040913990506000600360028551612ac99190615372565b612ad391906153a6565b6004612adf91906153d7565b67ffffffffffffffff811115612af857612af7613d1e565b5b6040519080825280601f01601f191660200182016040528015612b2a5781602001600182028036833780820191505090505b509050600182016020820185865187015b80821015612b96576003820191508151603f8160121c168501518453600184019350603f81600c1c168501518453600184019350603f8160061c168501518453600184019350603f8116850151845360018401935050612b3b565b5050600386510660018114612bb25760028114612bc557612bcd565b603d6001830353603d6002830353612bcd565b603d60018303535b50505080925050505b919050565b600660009054906101000a900473ffffffffffffffffffffffffffffffffffffffff1673ffffffffffffffffffffffffffffffffffffffff163373ffffffffffffffffffffffffffffffffffffffff1614612c6b576040517f08c379a0000000000000000000000000000000000000000000000000000000008152600401612c6290615465565b60405180910390fd5b565b3373ffffffffffffffffffffffffffffffffffffffff168173ffffffffffffffffffffffffffffffffffffffff1603612cdb576040517f08c379a0000000000000000000000000000000000000000000000000000000008152600401612cd2906154d1565b60405180910390fd5b80600760006101000a81548173ffffffffffffffffffffffffffffffffffffffff021916908373ffffffffffffffffffffffffffffffffffffffff1602179055508073ffffffffffffffffffffffffffffffffffffffff16600660009054906101000a900473ffffffffffffffffffffffffffffffffffffffff1673ffffffffffffffffffffffffffffffffffffffff167fed8889f560326eb138920d842192f0eb3dd22b4f139c87a2c57538e05bae127860405160405180910390a350565b600073ffffffffffffffffffffffffffffffffffffffff168473ffffffffffffffffffffffffffffffffffffffff1614612e0a576040517f08c379a0000000000000000000000000000000000000000000000000000000008152600401612e019061553d565b60405180910390fd5b612e16848484846134fb565b50505050565b50505050565b6000815103612e5d576040517f22ce3edd00000000000000000000000000000000000000000000000000000000815260040160405180910390fd5b8284600001906002811115612e7557612e7461517a565b5b90816002811115612e8957612e8861517a565b5b815250508184604001906000811115612ea557612ea461517a565b5b90816000811115612eb957612eb861517a565b5b8152505080846060018190525050505050565b606060006002836002612edf91906153d7565b612ee99190615372565b67ffffffffffffffff811115612f0257612f01613d1e565b5b6040519080825280601f01601f191660200182016040528015612f345781602001600182028036833780820191505090505b5090507f300000000000000000000000000000000000000000000000000000000000000081600081518110612f6c57612f6b614616565b5b60200101907effffffffffffffffffffffffffffffffffffffffffffffffffffffffffffff1916908160001a9053507f780000000000000000000000000000000000000000000000000000000000000081600181518110612fd057612fcf614616565b5b60200101907effffffffffffffffffffffffffffffffffffffffffffffffffffffffffffff1916908160001a9053506000600184600261301091906153d7565b61301a9190615372565b90505b60018111156130ba577f3031323334353637383961626364656600000000000000000000000000000000600f86166010811061305c5761305b614616565b5b1a60f81b82828151811061307357613072614616565b5b60200101907effffffffffffffffffffffffffffffffffffffffffffffffffffffffffffff1916908160001a905350600485901c9450806130b39061555d565b905061301d565b50600084146130fe576040517f08c379a00000000000000000000000000000000000000000000000000000000081526004016130f5906155d2565b60405180910390fd5b8091505092915050565b6131106139f8565b61311e816000015183613501565b506000816020018181525050919050565b61313c826003835161357a565b61315381836000015161372390919063ffffffff16565b505050565b61317a60026005600660ff16901b17836000015161373f90919063ffffffff16565b506131a482826040516020016131909190614102565b6040516020818303038152906040526131f8565b5050565b6131b38160046137a9565b6001816020018181516131c69190615372565b9150818152505050565b6131db8160076137a9565b6001816020018181516131ee91906155f2565b9150818152505050565b613205826002835161357a565b61321c81836000015161372390919063ffffffff16565b505050565b600080600090507a184f03e93ff9f4daa797ed6e38ed64bf6a1f010000000000000000831061327f577a184f03e93ff9f4daa797ed6e38ed64bf6a1f010000000000000000838161327557613274615245565b5b0492506040810190505b6d04ee2d6d415b85acef810000000083106132bc576d04ee2d6d415b85acef810000000083816132b2576132b1615245565b5b0492506020810190505b662386f26fc1000083106132eb57662386f26fc1000083816132e1576132e0615245565b5b0492506010810190505b6305f5e1008310613314576305f5e100838161330a57613309615245565b5b0492506008810190505b612710831061333957612710838161332f5761332e615245565b5b0492506004810190505b6064831061335c576064838161335257613351615245565b5b0492506002810190505b600a831061336b576001810190505b80915050919050565b60006133958473ffffffffffffffffffffffffffffffffffffffff166137cf565b156134ee578373ffffffffffffffffffffffffffffffffffffffff1663150b7a026133be611a68565b8786866040518563ffffffff1660e01b81526004016133e09493929190615626565b6020604051808303816000875af192505050801561341c57506040513d601f19601f820116820180604052508101906134199190615687565b60015b61349e573d806000811461344c576040519150601f19603f3d011682016040523d82523d6000602084013e613451565b606091505b506000815103613496576040517f08c379a000000000000000000000000000000000000000000000000000000000815260040161348d90615352565b60405180910390fd5b805181602001fd5b63150b7a0260e01b7bffffffffffffffffffffffffffffffffffffffffffffffffffffffff1916817bffffffffffffffffffffffffffffffffffffffffffffffffffffffff1916149150506134f3565b600190505b949350505050565b50505050565b613509613a18565b600060208361351891906156b4565b146135445760208261352a91906156b4565b602061353691906155f2565b826135419190615372565b91505b81836020018181525050604051808452600081528281016020018181101561356b57600080fd5b80604052505082905092915050565b60178167ffffffffffffffff16116135b5576135af8160058460ff16901b60ff1617846000015161373f90919063ffffffff16565b5061371e565b60ff8167ffffffffffffffff1611613613576135e8601860058460ff16901b17846000015161373f90919063ffffffff16565b5061360d8167ffffffffffffffff16600185600001516137f29092919063ffffffff16565b5061371d565b61ffff8167ffffffffffffffff161161367257613647601960058460ff16901b17846000015161373f90919063ffffffff16565b5061366c8167ffffffffffffffff16600285600001516137f29092919063ffffffff16565b5061371c565b63ffffffff8167ffffffffffffffff16116136d3576136a8601a60058460ff16901b17846000015161373f90919063ffffffff16565b506136cd8167ffffffffffffffff16600485600001516137f29092919063ffffffff16565b5061371b565b6136f4601b60058460ff16901b17846000015161373f90919063ffffffff16565b506137198167ffffffffffffffff16600885600001516137f29092919063ffffffff16565b505b5b5b5b505050565b61372b613a18565b6137378383845161387f565b905092915050565b613747613a18565b6000836000015151905060006001826137609190615372565b905084602001518210613784576137838560028361377e91906153d7565b613962565b5b8451602083820101858153815183111561379c578282525b5050849250505092915050565b6137ca601f60058360ff16901b17836000015161373f90919063ffffffff16565b505050565b6000808273ffffffffffffffffffffffffffffffffffffffff163b119050919050565b6137fa613a18565b60008460000151519050600081846138129190615372565b90508560200151811115613837576138368660028361383191906153d7565b613962565b5b60006001856101006138499190615818565b61385391906155f2565b905086518281018783198251161781528151841115613870578382525b50508693505050509392505050565b613887613a18565b825182111561389557600080fd5b60008460000151519050600083826138ad9190615372565b905085602001518111156138d2576138d1866002836138cc91906153d7565b613962565b5b600080875180518560208301019350808511156138ed578482525b60208901925050505b60208610613934578051825260208261390f9190615372565b915060208161391e9190615372565b905060208661392d91906155f2565b95506138f6565b60006001876020036101000a0390508019825116818451168181178552505050879450505050509392505050565b6000826000015190506139758383613501565b506139808382613723565b50505050565b6040518060e00160405280600060028111156139a5576139a461517a565b5b8152602001600060028111156139be576139bd61517a565b5b81526020016000808111156139d6576139d561517a565b5b8152602001606081526020016060815260200160608152602001606081525090565b6040518060400160405280613a0b613a18565b8152602001600081525090565b604051806040016040528060608152602001600081525090565b6000604051905090565b600080fd5b600080fd5b60007fffffffff0000000000000000000000000000000000000000000000000000000082169050919050565b613a7b81613a46565b8114613a8657600080fd5b50565b600081359050613a9881613a72565b92915050565b600060208284031215613ab457613ab3613a3c565b5b6000613ac284828501613a89565b91505092915050565b60008115159050919050565b613ae081613acb565b82525050565b6000602082019050613afb6000830184613ad7565b92915050565b600081519050919050565b600082825260208201905092915050565b60005b83811015613b3b578082015181840152602081019050613b20565b60008484015250505050565b6000601f19601f8301169050919050565b6000613b6382613b01565b613b6d8185613b0c565b9350613b7d818560208601613b1d565b613b8681613b47565b840191505092915050565b60006020820190508181036000830152613bab8184613b58565b905092915050565b6000819050919050565b613bc681613bb3565b8114613bd157600080fd5b50565b600081359050613be381613bbd565b92915050565b600060208284031215613bff57613bfe613a3c565b5b6000613c0d84828501613bd4565b91505092915050565b600073ffffffffffffffffffffffffffffffffffffffff82169050919050565b6000613c4182613c16565b9050919050565b613c5181613c36565b82525050565b6000602082019050613c6c6000830184613c48565b92915050565b613c7b81613c36565b8114613c8657600080fd5b50565b600081359050613c9881613c72565b92915050565b60008060408385031215613cb557613cb4613a3c565b5b6000613cc385828601613c89565b9250506020613cd485828601613bd4565b9150509250929050565b6000819050919050565b613cf181613cde565b8114613cfc57600080fd5b50565b600081359050613d0e81613ce8565b92915050565b600080fd5b600080fd5b7f4e487b7100000000000000000000000000000000000000000000000000000000600052604160045260246000fd5b613d5682613b47565b810181811067ffffffffffffffff82111715613d7557613d74613d1e565b5b80604052505050565b6000613d88613a32565b9050613d948282613d4d565b919050565b600067ffffffffffffffff821115613db457613db3613d1e565b5b613dbd82613b47565b9050602081019050919050565b82818337600083830152505050565b6000613dec613de784613d99565b613d7e565b905082815260208101848484011115613e0857613e07613d19565b5b613e13848285613dca565b509392505050565b600082601f830112613e3057613e2f613d14565b5b8135613e40848260208601613dd9565b91505092915050565b600080600060608486031215613e6257613e61613a3c565b5b6000613e7086828701613cff565b935050602084013567ffffffffffffffff811115613e9157613e90613a41565b5b613e9d86828701613e1b565b925050604084013567ffffffffffffffff811115613ebe57613ebd613a41565b5b613eca86828701613e1b565b9150509250925092565b600067ffffffffffffffff821115613eef57613eee613d1e565b5b602082029050602081019050919050565b600080fd5b6000613f18613f1384613ed4565b613d7e565b90508083825260208201905060208402830185811115613f3b57613f3a613f00565b5b835b81811015613f645780613f508882613bd4565b845260208401935050602081019050613f3d565b5050509392505050565b600082601f830112613f8357613f82613d14565b5b8135613f93848260208601613f05565b91505092915050565b60008060408385031215613fb357613fb2613a3c565b5b6000613fc185828601613bd4565b925050602083013567ffffffffffffffff811115613fe257613fe1613a41565b5b613fee85828601613f6e565b9150509250929050565b60008060006060848603121561401157614010613a3c565b5b600061401f86828701613c89565b935050602061403086828701613c89565b925050604061404186828701613bd4565b9150509250925092565b600080fd5b60008083601f84011261406657614065613d14565b5b8235905067ffffffffffffffff8111156140835761408261404b565b5b60208301915083600182028301111561409f5761409e613f00565b5b9250929050565b600080602083850312156140bd576140bc613a3c565b5b600083013567ffffffffffffffff8111156140db576140da613a41565b5b6140e785828601614050565b92509250509250929050565b6140fc81613bb3565b82525050565b600060208201905061411760008301846140f3565b92915050565b600081519050919050565b600082825260208201905092915050565b60006141448261411d565b61414e8185614128565b935061415e818560208601613b1d565b61416781613b47565b840191505092915050565b60006040820190506141876000830185613ad7565b81810360208301526141998184614139565b90509392505050565b6000602082840312156141b8576141b7613a3c565b5b60006141c684828501613c89565b91505092915050565b6141d881613acb565b81146141e357600080fd5b50565b6000813590506141f5816141cf565b92915050565b6000806040838503121561421257614211613a3c565b5b600061422085828601613c89565b9250506020614231858286016141e6565b9150509250929050565b6000806000806080858703121561425557614254613a3c565b5b600061426387828801613c89565b945050602061427487828801613c89565b935050604061428587828801613bd4565b925050606085013567ffffffffffffffff8111156142a6576142a5613a41565b5b6142b287828801613e1b565b91505092959194509250565b600080604083850312156142d5576142d4613a3c565b5b60006142e385828601613bd4565b92505060206142f4858286016141e6565b9150509250929050565b60006020828403121561431457614313613a3c565b5b600061432284828501613cff565b91505092915050565b6000806040838503121561434257614341613a3c565b5b600061435085828601613c89565b925050602061436185828601613c89565b9150509250929050565b7f4e487b7100000000000000000000000000000000000000000000000000000000600052602260045260246000fd5b600060028204905060018216806143b257607f821691505b6020821081036143c5576143c461436b565b5b50919050565b7f4552433732313a20617070726f76616c20746f2063757272656e74206f776e6560008201527f7200000000000000000000000000000000000000000000000000000000000000602082015250565b6000614427602183613b0c565b9150614432826143cb565b604082019050919050565b600060208201905081810360008301526144568161441a565b9050919050565b7f4552433732313a20617070726f76652063616c6c6572206973206e6f7420746f60008201527f6b656e206f776e6572206f7220617070726f76656420666f7220616c6c000000602082015250565b60006144b9603d83613b0c565b91506144c48261445d565b604082019050919050565b600060208201905081810360008301526144e8816144ac565b9050919050565b60006040820190506145046000830185613c48565b6145116020830184613c48565b9392505050565b7f4552433732313a2063616c6c6572206973206e6f7420746f6b656e206f776e6560008201527f72206f7220617070726f76656400000000000000000000000000000000000000602082015250565b6000614574602d83613b0c565b915061457f82614518565b604082019050919050565b600060208201905081810360008301526145a381614567565b9050919050565b7f6e6f7420746f6b656e206f776e6572206f7220636f6e74726163740000000000600082015250565b60006145e0601b83613b0c565b91506145eb826145aa565b602082019050919050565b6000602082019050818103600083015261460f816145d3565b9050919050565b7f4e487b7100000000000000000000000000000000000000000000000000000000600052603260045260246000fd5b7f4e487b7100000000000000000000000000000000000000000000000000000000600052601160045260246000fd5b600061467f82613bb3565b91507fffffffffffffffffffffffffffffffffffffffffffffffffffffffffffffffff82036146b1576146b0614645565b5b600182019050919050565b7f717565727920666f72206e6f6e6578697374656e7420746f6b656e0000000000600082015250565b60006146f2601b83613b0c565b91506146fd826146bc565b602082019050919050565b60006020820190508181036000830152614721816146e5565b9050919050565b600081905092915050565b7f7b226e616d65223a220000000000000000000000000000000000000000000000600082015250565b6000614769600983614728565b915061477482614733565b600982019050919050565b600061478a82613b01565b6147948185614728565b93506147a4818560208601613b1d565b80840191505092915050565b7f222c226465736372697074696f6e223a22000000000000000000000000000000600082015250565b60006147e6601183614728565b91506147f1826147b0565b601182019050919050565b7f222c22696d616765223a22000000000000000000000000000000000000000000600082015250565b6000614832600b83614728565b915061483d826147fc565b600b82019050919050565b7f222c22616e696d6174696f6e5f75726c223a2200000000000000000000000000600082015250565b600061487e601383614728565b915061488982614848565b601382019050919050565b7f3f69643d00000000000000000000000000000000000000000000000000000000600082015250565b60006148ca600483614728565b91506148d582614894565b600482019050919050565b7f227d000000000000000000000000000000000000000000000000000000000000600082015250565b6000614916600283614728565b9150614921826148e0565b600282019050919050565b60006149378261475c565b9150614943828861477f565b915061494e826147d9565b915061495a828761477f565b915061496582614825565b9150614971828661477f565b915061497c82614871565b9150614988828561477f565b9150614993826148bd565b915061499f828461477f565b91506149aa82614909565b91508190509695505050505050565b7f4552433732313a20696e76616c696420746f6b656e2049440000000000000000600082015250565b60006149ef601883613b0c565b91506149fa826149b9565b602082019050919050565b60006020820190508181036000830152614a1e816149e2565b9050919050565b7f4552433732313a2061646472657373207a65726f206973206e6f74206120766160008201527f6c6964206f776e65720000000000000000000000000000000000000000000000602082015250565b6000614a81602983613b0c565b9150614a8c82614a25565b604082019050919050565b60006020820190508181036000830152614ab081614a74565b9050919050565b7f6e6f7420746f6b656e206f776e65720000000000000000000000000000000000600082015250565b6000614aed600f83613b0c565b9150614af882614ab7565b602082019050919050565b60006020820190508181036000830152614b1c81614ae0565b9050919050565b614b2c81613cde565b82525050565b600067ffffffffffffffff82169050919050565b614b4f81614b32565b82525050565b600061ffff82169050919050565b614b6c81614b55565b82525050565b600063ffffffff82169050919050565b614b8b81614b72565b82525050565b600060a082019050614ba66000830188614b23565b614bb36020830187614b46565b614bc06040830186614b63565b614bcd6060830185614b82565b614bda6080830184614b82565b9695505050505050565b600081519050614bf381613bbd565b92915050565b600060208284031215614c0f57614c0e613a3c565b5b6000614c1d84828501614be4565b91505092915050565b7f4d7573742062652070726f706f736564206f776e657200000000000000000000600082015250565b6000614c5c601683613b0c565b9150614c6782614c26565b602082019050919050565b60006020820190508181036000830152614c8b81614c4f565b9050919050565b7f646174613a6170706c69636174696f6e2f6a736f6e3b6261736536342c000000600082015250565b6000614cc8601d83614728565b9150614cd382614c92565b601d82019050919050565b6000614ce982614cbb565b9150614cf5828461477f565b915081905092915050565b60008190508160005260206000209050919050565b60006020601f8301049050919050565b600082821b905092915050565b600060088302614d627fffffffffffffffffffffffffffffffffffffffffffffffffffffffffffffffff82614d25565b614d6c8683614d25565b95508019841693508086168417925050509392505050565b6000819050919050565b6000614da9614da4614d9f84613bb3565b614d84565b613bb3565b9050919050565b6000819050919050565b614dc383614d8e565b614dd7614dcf82614db0565b848454614d32565b825550505050565b600090565b614dec614ddf565b614df7818484614dba565b505050565b5b81811015614e1b57614e10600082614de4565b600181019050614dfd565b5050565b601f821115614e6057614e3181614d00565b614e3a84614d15565b81016020851015614e49578190505b614e5d614e5585614d15565b830182614dfc565b50505b505050565b600082821c905092915050565b6000614e8360001984600802614e65565b1980831691505092915050565b6000614e9c8383614e72565b9150826002028217905092915050565b614eb582613b01565b67ffffffffffffffff811115614ece57614ecd613d1e565b5b614ed8825461439a565b614ee3828285614e1f565b600060209050601f831160018114614f165760008415614f04578287015190505b614f0e8582614e90565b865550614f76565b601f198416614f2486614d00565b60005b82811015614f4c57848901518255600182019150602085019450602081019050614f27565b86831015614f695784890151614f65601f891682614e72565b8355505b6001600288020188555050505b505050505050565b7f4552433732313a206d696e7420746f20746865207a65726f2061646472657373600082015250565b6000614fb4602083613b0c565b9150614fbf82614f7e565b602082019050919050565b60006020820190508181036000830152614fe381614fa7565b9050919050565b7f4552433732313a20746f6b656e20616c7265616479206d696e74656400000000600082015250565b6000615020601c83613b0c565b915061502b82614fea565b602082019050919050565b6000602082019050818103600083015261504f81615013565b9050919050565b7f4552433732313a207472616e736665722066726f6d20696e636f72726563742060008201527f6f776e6572000000000000000000000000000000000000000000000000000000602082015250565b60006150b2602583613b0c565b91506150bd82615056565b604082019050919050565b600060208201905081810360008301526150e1816150a5565b9050919050565b7f4552433732313a207472616e7366657220746f20746865207a65726f2061646460008201527f7265737300000000000000000000000000000000000000000000000000000000602082015250565b6000615144602483613b0c565b915061514f826150e8565b604082019050919050565b6000602082019050818103600083015261517381615137565b9050919050565b7f4e487b7100000000000000000000000000000000000000000000000000000000600052602160045260246000fd5b600060a0820190506151be6000830188614b46565b81810360208301526151d08187614139565b90506151df6040830186614b63565b6151ec6060830185614b82565b6151f96080830184614b23565b9695505050505050565b60008151905061521281613ce8565b92915050565b60006020828403121561522e5761522d613a3c565b5b600061523c84828501615203565b91505092915050565b7f4e487b7100000000000000000000000000000000000000000000000000000000600052601260045260246000fd5b7f4552433732313a20617070726f766520746f2063616c6c657200000000000000600082015250565b60006152aa601983613b0c565b91506152b582615274565b602082019050919050565b600060208201905081810360008301526152d98161529d565b9050919050565b7f4552433732313a207472616e7366657220746f206e6f6e20455243373231526560008201527f63656976657220696d706c656d656e7465720000000000000000000000000000602082015250565b600061533c603283613b0c565b9150615347826152e0565b604082019050919050565b6000602082019050818103600083015261536b8161532f565b9050919050565b600061537d82613bb3565b915061538883613bb3565b92508282019050808211156153a05761539f614645565b5b92915050565b60006153b182613bb3565b91506153bc83613bb3565b9250826153cc576153cb615245565b5b828204905092915050565b60006153e282613bb3565b91506153ed83613bb3565b92508282026153fb81613bb3565b9150828204841483151761541257615411614645565b5b5092915050565b7f4f6e6c792063616c6c61626c65206279206f776e657200000000000000000000600082015250565b600061544f601683613b0c565b915061545a82615419565b602082019050919050565b6000602082019050818103600083015261547e81615442565b9050919050565b7f43616e6e6f74207472616e7366657220746f2073656c66000000000000000000600082015250565b60006154bb601783613b0c565b91506154c682615485565b602082019050919050565b600060208201905081810360008301526154ea816154ae565b9050919050565b7f6e6f6e207472616e7366657261626c6500000000000000000000000000000000600082015250565b6000615527601083613b0c565b9150615532826154f1565b602082019050919050565b600060208201905081810360008301526155568161551a565b9050919050565b600061556882613bb3565b91506000820361557b5761557a614645565b5b600182039050919050565b7f537472696e67733a20686578206c656e67746820696e73756666696369656e74600082015250565b60006155bc602083613b0c565b91506155c782615586565b602082019050919050565b600060208201905081810360008301526155eb816155af565b9050919050565b60006155fd82613bb3565b915061560883613bb3565b92508282039050818111156156205761561f614645565b5b92915050565b600060808201905061563b6000830187613c48565b6156486020830186613c48565b61565560408301856140f3565b81810360608301526156678184614139565b905095945050505050565b60008151905061568181613a72565b92915050565b60006020828403121561569d5761569c613a3c565b5b60006156ab84828501615672565b91505092915050565b60006156bf82613bb3565b91506156ca83613bb3565b9250826156da576156d9615245565b5b828206905092915050565b60008160011c9050919050565b6000808291508390505b600185111561573c5780860481111561571857615717614645565b5b60018516156157275780820291505b8081029050615735856156e5565b94506156fc565b94509492505050565b6000826157555760019050615811565b816157635760009050615811565b81600181146157795760028114615783576157b2565b6001915050615811565b60ff84111561579557615794614645565b5b8360020a9150848211156157ac576157ab614645565b5b50615811565b5060208310610133831016604e8410600b84101617156157e75782820a9050838111156157e2576157e1614645565b5b615811565b6157f484848460016156f2565b9250905081840481111561580b5761580a614645565b5b81810290505b9392505050565b600061582382613bb3565b915061582e83613bb3565b925061585b7fffffffffffffffffffffffffffffffffffffffffffffffffffffffffffffffff8484615745565b90509291505056fe68747470733a2f2f6c696e6b2d6265636f6d652d68756d616e2e76657263656c2e6170702f67616d652f696e6465782e68746d6c4142434445464748494a4b4c4d4e4f505152535455565758595a6162636465666768696a6b6c6d6e6f707172737475767778797a303132333435363738392b2fa26469706673582212203183730ee575f0525152fdcd72133e1c08cada90ff0a0935425dbb2b3b392d9664736f6c63430008130033636f6e73742061646472657373203d20617267735b305d3b636f6e737420617069526573706f6e7365203d2061776169742046756e6374696f6e732e6d616b654874747052657175657374287b75726c3a206068747470733a2f2f6c696e6b2d6265636f6d652d68756d616e2e76657263656c2e6170702f6170692f68756d616e6974792f247b616464726573737d607d293b69662028617069526573706f6e73652e6572726f7229207b7468726f77204572726f72282752657175657374206661696c656427293b7d636f6e7374207b2064617461207d203d20617069526573706f6e73653b72657475726e2046756e6374696f6e732e656e636f6465537472696e6728646174612e746f537472696e672829293b",
  "linkReferences": {},
  "deployedLinkReferences": {}
}