{
  "_format": "hh-sol-artifact-1",
  "contractName": "LinkBecomeHuman",
  "sourceName": "contracts/LinkBecomeHuman.sol",
  "abi": [
    {
      "inputs": [
        {
          "internalType": "uint64",
          "name": "subscriptionId",
          "type": "uint64"
        },
        {
          "internalType": "uint64",
          "name": "_func_subscriptionId",
          "type": "uint64"
        }
      ],
      "stateMutability": "nonpayable",
      "type": "constructor"
    },
    {
      "inputs": [],
      "name": "EmptyArgs",
      "type": "error"
    },
    {
      "inputs": [],
      "name": "EmptySource",
      "type": "error"
    },
    {
      "inputs": [],
      "name": "NoInlineSecrets",
      "type": "error"
    },
    {
      "inputs": [
        {
          "internalType": "address",
          "name": "have",
          "type": "address"
        },
        {
          "internalType": "address",
          "name": "want",
          "type": "address"
        }
      ],
      "name": "OnlyCoordinatorCanFulfill",
      "type": "error"
    },
    {
      "inputs": [],
      "name": "OnlyRouterCanFulfill",
      "type": "error"
    },
    {
      "inputs": [],
      "name": "OnlySimulatedBackend",
      "type": "error"
    },
    {
      "anonymous": false,
      "inputs": [
        {
          "indexed": true,
          "internalType": "address",
          "name": "owner",
          "type": "address"
        },
        {
          "indexed": true,
          "internalType": "address",
          "name": "approved",
          "type": "address"
        },
        {
          "indexed": true,
          "internalType": "uint256",
          "name": "tokenId",
          "type": "uint256"
        }
      ],
      "name": "Approval",
      "type": "event"
    },
    {
      "anonymous": false,
      "inputs": [
        {
          "indexed": true,
          "internalType": "address",
          "name": "owner",
          "type": "address"
        },
        {
          "indexed": true,
          "internalType": "address",
          "name": "operator",
          "type": "address"
        },
        {
          "indexed": false,
          "internalType": "bool",
          "name": "approved",
          "type": "bool"
        }
      ],
      "name": "ApprovalForAll",
      "type": "event"
    },
    {
      "anonymous": false,
      "inputs": [
        {
          "indexed": true,
          "internalType": "uint256",
          "name": "tokenId",
          "type": "uint256"
        },
        {
          "indexed": false,
          "internalType": "string",
          "name": "humanityScore",
          "type": "string"
        }
      ],
      "name": "HumanityScoreUpdated",
      "type": "event"
    },
    {
      "anonymous": false,
      "inputs": [
        {
          "indexed": true,
          "internalType": "address",
          "name": "from",
          "type": "address"
        },
        {
          "indexed": true,
          "internalType": "address",
          "name": "to",
          "type": "address"
        }
      ],
      "name": "OwnershipTransferRequested",
      "type": "event"
    },
    {
      "anonymous": false,
      "inputs": [
        {
          "indexed": true,
          "internalType": "address",
          "name": "from",
          "type": "address"
        },
        {
          "indexed": true,
          "internalType": "address",
          "name": "to",
          "type": "address"
        }
      ],
      "name": "OwnershipTransferred",
      "type": "event"
    },
    {
      "anonymous": false,
      "inputs": [
        {
          "indexed": true,
          "internalType": "bytes32",
          "name": "id",
          "type": "bytes32"
        }
      ],
      "name": "RequestFulfilled",
      "type": "event"
    },
    {
      "anonymous": false,
      "inputs": [
        {
          "indexed": true,
          "internalType": "bytes32",
          "name": "id",
          "type": "bytes32"
        }
      ],
      "name": "RequestSent",
      "type": "event"
    },
    {
      "anonymous": false,
      "inputs": [
        {
          "indexed": true,
          "internalType": "uint256",
          "name": "tokenId",
          "type": "uint256"
        },
        {
          "indexed": false,
          "internalType": "uint256",
          "name": "seed",
          "type": "uint256"
        }
      ],
      "name": "SeedUpdated",
      "type": "event"
    },
    {
      "anonymous": false,
      "inputs": [
        {
          "indexed": true,
          "internalType": "address",
          "name": "from",
          "type": "address"
        },
        {
          "indexed": true,
          "internalType": "address",
          "name": "to",
          "type": "address"
        },
        {
          "indexed": true,
          "internalType": "uint256",
          "name": "tokenId",
          "type": "uint256"
        }
      ],
      "name": "Transfer",
      "type": "event"
    },
    {
      "inputs": [],
      "name": "acceptOwnership",
      "outputs": [],
      "stateMutability": "nonpayable",
      "type": "function"
    },
    {
      "inputs": [
        {
          "internalType": "address",
          "name": "to",
          "type": "address"
        },
        {
          "internalType": "uint256",
          "name": "tokenId",
          "type": "uint256"
        }
      ],
      "name": "approve",
      "outputs": [],
      "stateMutability": "nonpayable",
      "type": "function"
    },
    {
      "inputs": [
        {
          "internalType": "address",
          "name": "owner",
          "type": "address"
        }
      ],
      "name": "balanceOf",
      "outputs": [
        {
          "internalType": "uint256",
          "name": "",
          "type": "uint256"
        }
      ],
      "stateMutability": "view",
      "type": "function"
    },
    {
      "inputs": [],
      "name": "character",
      "outputs": [
        {
          "internalType": "string",
          "name": "",
          "type": "string"
        }
      ],
      "stateMutability": "view",
      "type": "function"
    },
    {
      "inputs": [
        {
          "internalType": "bytes",
          "name": "",
          "type": "bytes"
        }
      ],
      "name": "checkUpkeep",
      "outputs": [
        {
          "internalType": "bool",
          "name": "upkeepNeeded",
          "type": "bool"
        },
        {
          "internalType": "bytes",
          "name": "",
          "type": "bytes"
        }
      ],
      "stateMutability": "view",
      "type": "function"
    },
    {
      "inputs": [
        {
          "internalType": "bytes32",
          "name": "",
          "type": "bytes32"
        }
      ],
      "name": "functionRequestIdToTokenId",
      "outputs": [
        {
          "internalType": "uint256",
          "name": "",
          "type": "uint256"
        }
      ],
      "stateMutability": "view",
      "type": "function"
    },
    {
      "inputs": [
        {
          "internalType": "uint256",
          "name": "tokenId",
          "type": "uint256"
        }
      ],
      "name": "getApproved",
      "outputs": [
        {
          "internalType": "address",
          "name": "",
          "type": "address"
        }
      ],
      "stateMutability": "view",
      "type": "function"
    },
    {
      "inputs": [
        {
          "internalType": "uint256",
          "name": "_tokenId",
          "type": "uint256"
        }
      ],
      "name": "getMetaData",
      "outputs": [
        {
          "internalType": "string",
          "name": "",
          "type": "string"
        }
      ],
      "stateMutability": "view",
      "type": "function"
    },
    {
      "inputs": [
        {
          "internalType": "address",
          "name": "_address",
          "type": "address"
        }
      ],
      "name": "getTokenIdByAddress",
      "outputs": [
        {
          "internalType": "uint256",
          "name": "",
          "type": "uint256"
        }
      ],
      "stateMutability": "view",
      "type": "function"
    },
    {
      "inputs": [
        {
          "internalType": "bytes32",
          "name": "requestId",
          "type": "bytes32"
        },
        {
          "internalType": "bytes",
          "name": "response",
          "type": "bytes"
        },
        {
          "internalType": "bytes",
          "name": "err",
          "type": "bytes"
        }
      ],
      "name": "handleOracleFulfillment",
      "outputs": [],
      "stateMutability": "nonpayable",
      "type": "function"
    },
    {
      "inputs": [
        {
          "internalType": "uint256",
          "name": "",
          "type": "uint256"
        }
      ],
      "name": "humanityScores",
      "outputs": [
        {
          "internalType": "string",
          "name": "",
          "type": "string"
        }
      ],
      "stateMutability": "view",
      "type": "function"
    },
    {
      "inputs": [
        {
          "internalType": "address",
          "name": "owner",
          "type": "address"
        },
        {
          "internalType": "address",
          "name": "operator",
          "type": "address"
        }
      ],
      "name": "isApprovedForAll",
      "outputs": [
        {
          "internalType": "bool",
          "name": "",
          "type": "bool"
        }
      ],
      "stateMutability": "view",
      "type": "function"
    },
    {
      "inputs": [
        {
          "internalType": "uint256",
          "name": "",
          "type": "uint256"
        }
      ],
      "name": "isUpkeepNeeded",
      "outputs": [
        {
          "internalType": "bool",
          "name": "",
          "type": "bool"
        }
      ],
      "stateMutability": "view",
      "type": "function"
    },
    {
      "inputs": [],
      "name": "lastUpdate",
      "outputs": [
        {
          "internalType": "uint256",
          "name": "",
          "type": "uint256"
        }
      ],
      "stateMutability": "view",
      "type": "function"
    },
    {
      "inputs": [],
      "name": "mint",
      "outputs": [],
      "stateMutability": "nonpayable",
      "type": "function"
    },
    {
      "inputs": [
        {
          "internalType": "uint256",
          "name": "",
          "type": "uint256"
        }
      ],
      "name": "mintedTokenId",
      "outputs": [
        {
          "internalType": "uint256",
          "name": "",
          "type": "uint256"
        }
      ],
      "stateMutability": "view",
      "type": "function"
    },
    {
      "inputs": [],
      "name": "name",
      "outputs": [
        {
          "internalType": "string",
          "name": "",
          "type": "string"
        }
      ],
      "stateMutability": "view",
      "type": "function"
    },
    {
      "inputs": [],
      "name": "owner",
      "outputs": [
        {
          "internalType": "address",
          "name": "",
          "type": "address"
        }
      ],
      "stateMutability": "view",
      "type": "function"
    },
    {
      "inputs": [
        {
          "internalType": "uint256",
          "name": "tokenId",
          "type": "uint256"
        }
      ],
      "name": "ownerOf",
      "outputs": [
        {
          "internalType": "address",
          "name": "",
          "type": "address"
        }
      ],
      "stateMutability": "view",
      "type": "function"
    },
    {
      "inputs": [
        {
          "internalType": "bytes",
          "name": "",
          "type": "bytes"
        }
      ],
      "name": "performUpkeep",
      "outputs": [],
      "stateMutability": "nonpayable",
      "type": "function"
    },
    {
      "inputs": [
        {
          "internalType": "uint256",
          "name": "requestId",
          "type": "uint256"
        },
        {
          "internalType": "uint256[]",
          "name": "randomWords",
          "type": "uint256[]"
        }
      ],
      "name": "rawFulfillRandomWords",
      "outputs": [],
      "stateMutability": "nonpayable",
      "type": "function"
    },
    {
      "inputs": [
        {
          "internalType": "uint256",
          "name": "_tokenId",
          "type": "uint256"
        }
      ],
      "name": "requestRandomness",
      "outputs": [],
      "stateMutability": "nonpayable",
      "type": "function"
    },
    {
      "inputs": [
        {
          "internalType": "address",
          "name": "from",
          "type": "address"
        },
        {
          "internalType": "address",
          "name": "to",
          "type": "address"
        },
        {
          "internalType": "uint256",
          "name": "tokenId",
          "type": "uint256"
        }
      ],
      "name": "safeTransferFrom",
      "outputs": [],
      "stateMutability": "nonpayable",
      "type": "function"
    },
    {
      "inputs": [
        {
          "internalType": "address",
          "name": "from",
          "type": "address"
        },
        {
          "internalType": "address",
          "name": "to",
          "type": "address"
        },
        {
          "internalType": "uint256",
          "name": "tokenId",
          "type": "uint256"
        },
        {
          "internalType": "bytes",
          "name": "data",
          "type": "bytes"
        }
      ],
      "name": "safeTransferFrom",
      "outputs": [],
      "stateMutability": "nonpayable",
      "type": "function"
    },
    {
      "inputs": [
        {
          "internalType": "uint256",
          "name": "",
          "type": "uint256"
        }
      ],
      "name": "seeds",
      "outputs": [
        {
          "internalType": "uint256",
          "name": "",
          "type": "uint256"
        }
      ],
      "stateMutability": "view",
      "type": "function"
    },
    {
      "inputs": [
        {
          "internalType": "uint256",
          "name": "tokenId",
          "type": "uint256"
        }
      ],
      "name": "sendRequest",
      "outputs": [],
      "stateMutability": "nonpayable",
      "type": "function"
    },
    {
      "inputs": [
        {
          "internalType": "address",
          "name": "operator",
          "type": "address"
        },
        {
          "internalType": "bool",
          "name": "approved",
          "type": "bool"
        }
      ],
      "name": "setApprovalForAll",
      "outputs": [],
      "stateMutability": "nonpayable",
      "type": "function"
    },
    {
      "inputs": [
        {
          "internalType": "uint256",
          "name": "tokenId",
          "type": "uint256"
        },
        {
          "internalType": "bool",
          "name": "status",
          "type": "bool"
        }
      ],
      "name": "setUpkeep",
      "outputs": [],
      "stateMutability": "nonpayable",
      "type": "function"
    },
    {
      "inputs": [
        {
          "internalType": "bytes4",
          "name": "interfaceId",
          "type": "bytes4"
        }
      ],
      "name": "supportsInterface",
      "outputs": [
        {
          "internalType": "bool",
          "name": "",
          "type": "bool"
        }
      ],
      "stateMutability": "view",
      "type": "function"
    },
    {
      "inputs": [],
      "name": "symbol",
      "outputs": [
        {
          "internalType": "string",
          "name": "",
          "type": "string"
        }
      ],
      "stateMutability": "view",
      "type": "function"
    },
    {
      "inputs": [
        {
          "internalType": "uint256",
          "name": "tokenId",
          "type": "uint256"
        }
      ],
      "name": "tokenURI",
      "outputs": [
        {
          "internalType": "string",
          "name": "",
          "type": "string"
        }
      ],
      "stateMutability": "view",
      "type": "function"
    },
    {
      "inputs": [
        {
          "internalType": "address",
          "name": "from",
          "type": "address"
        },
        {
          "internalType": "address",
          "name": "to",
          "type": "address"
        },
        {
          "internalType": "uint256",
          "name": "tokenId",
          "type": "uint256"
        }
      ],
      "name": "transferFrom",
      "outputs": [],
      "stateMutability": "nonpayable",
      "type": "function"
    },
    {
      "inputs": [
        {
          "internalType": "address",
          "name": "to",
          "type": "address"
        }
      ],
      "name": "transferOwnership",
      "outputs": [],
      "stateMutability": "nonpayable",
      "type": "function"
    },
    {
      "inputs": [
        {
          "internalType": "uint256",
          "name": "",
          "type": "uint256"
        }
      ],
      "name": "vrfRequestIdToTokenId",
      "outputs": [
        {
          "internalType": "uint256",
          "name": "",
          "type": "uint256"
        }
      ],
      "stateMutability": "view",
      "type": "function"
    }
  ],
  "bytecode": "0x60c0604052732ed832ba664535e5886b75d64c46eb9a228c2610600960006101000a81548173ffffffffffffffffffffffffffffffffffffffff021916908373ffffffffffffffffffffffffffffffffffffffff1602179055507f354d2f95da55398f44b7cff77da56283d9c6c829a4bdf1bbcaf2ad6a4d081f6160001b600a55619c40600b60006101000a81548163ffffffff021916908363ffffffff1602179055506003600b60046101000a81548161ffff021916908361ffff1602179055506001600b60066101000a81548163ffffffff021916908363ffffffff16021790555073a9d587a00a31a52ed70d6026794a8fc5e2f5dcb0600e60086101000a81548173ffffffffffffffffffffffffffffffffffffffff021916908373ffffffffffffffffffffffffffffffffffffffff160217905550620493e0600e601c6101000a81548163ffffffff021916908363ffffffff1602179055507f66756e2d6176616c616e6368652d66756a692d3100000000000000000000000060001b600f5560405180610140016040528061011681526020016200648b610116913960139081620001b091906200088f565b50348015620001be57600080fd5b50604051620065a1380380620065a18339818101604052810190620001e49190620009c0565b33806000600e60089054906101000a900473ffffffffffffffffffffffffffffffffffffffff16600960009054906101000a900473ffffffffffffffffffffffffffffffffffffffff166040518060400160405280601081526020017f4c696e6b3a4265636f6d6548756d616e000000000000000000000000000000008152506040518060400160405280600381526020017f4c424800000000000000000000000000000000000000000000000000000000008152508160009081620002ab91906200088f565b508060019081620002bd91906200088f565b5050508073ffffffffffffffffffffffffffffffffffffffff1660808173ffffffffffffffffffffffffffffffffffffffff1681525050508073ffffffffffffffffffffffffffffffffffffffff1660a08173ffffffffffffffffffffffffffffffffffffffff168152505050600073ffffffffffffffffffffffffffffffffffffffff168273ffffffffffffffffffffffffffffffffffffffff16036200039c576040517f08c379a0000000000000000000000000000000000000000000000000000000008152600401620003939062000a68565b60405180910390fd5b81600660006101000a81548173ffffffffffffffffffffffffffffffffffffffff021916908373ffffffffffffffffffffffffffffffffffffffff160217905550600073ffffffffffffffffffffffffffffffffffffffff168173ffffffffffffffffffffffffffffffffffffffff161462000424576200042381620004e460201b60201c565b5b505050600960009054906101000a900473ffffffffffffffffffffffffffffffffffffffff16600860006101000a81548173ffffffffffffffffffffffffffffffffffffffff021916908373ffffffffffffffffffffffffffffffffffffffff16021790555081600760146101000a81548167ffffffffffffffff021916908367ffffffffffffffff16021790555080600e60006101000a81548167ffffffffffffffff021916908367ffffffffffffffff160217905550505062000afc565b3373ffffffffffffffffffffffffffffffffffffffff168173ffffffffffffffffffffffffffffffffffffffff160362000555576040517f08c379a00000000000000000000000000000000000000000000000000000000081526004016200054c9062000ada565b60405180910390fd5b80600760006101000a81548173ffffffffffffffffffffffffffffffffffffffff021916908373ffffffffffffffffffffffffffffffffffffffff1602179055508073ffffffffffffffffffffffffffffffffffffffff16600660009054906101000a900473ffffffffffffffffffffffffffffffffffffffff1673ffffffffffffffffffffffffffffffffffffffff167fed8889f560326eb138920d842192f0eb3dd22b4f139c87a2c57538e05bae127860405160405180910390a350565b600081519050919050565b7f4e487b7100000000000000000000000000000000000000000000000000000000600052604160045260246000fd5b7f4e487b7100000000000000000000000000000000000000000000000000000000600052602260045260246000fd5b600060028204905060018216806200069757607f821691505b602082108103620006ad57620006ac6200064f565b5b50919050565b60008190508160005260206000209050919050565b60006020601f8301049050919050565b600082821b905092915050565b600060088302620007177fffffffffffffffffffffffffffffffffffffffffffffffffffffffffffffffff82620006d8565b620007238683620006d8565b95508019841693508086168417925050509392505050565b6000819050919050565b6000819050919050565b6000620007706200076a62000764846200073b565b62000745565b6200073b565b9050919050565b6000819050919050565b6200078c836200074f565b620007a46200079b8262000777565b848454620006e5565b825550505050565b600090565b620007bb620007ac565b620007c881848462000781565b505050565b5b81811015620007f057620007e4600082620007b1565b600181019050620007ce565b5050565b601f8211156200083f576200080981620006b3565b6200081484620006c8565b8101602085101562000824578190505b6200083c6200083385620006c8565b830182620007cd565b50505b505050565b600082821c905092915050565b6000620008646000198460080262000844565b1980831691505092915050565b60006200087f838362000851565b9150826002028217905092915050565b6200089a8262000615565b67ffffffffffffffff811115620008b657620008b562000620565b5b620008c282546200067e565b620008cf828285620007f4565b600060209050601f831160018114620009075760008415620008f2578287015190505b620008fe858262000871565b8655506200096e565b601f1984166200091786620006b3565b60005b8281101562000941578489015182556001820191506020850194506020810190506200091a565b868310156200096157848901516200095d601f89168262000851565b8355505b6001600288020188555050505b505050505050565b600080fd5b600067ffffffffffffffff82169050919050565b6200099a816200097b565b8114620009a657600080fd5b50565b600081519050620009ba816200098f565b92915050565b60008060408385031215620009da57620009d962000976565b5b6000620009ea85828601620009a9565b9250506020620009fd85828601620009a9565b9150509250929050565b600082825260208201905092915050565b7f43616e6e6f7420736574206f776e657220746f207a65726f0000000000000000600082015250565b600062000a5060188362000a07565b915062000a5d8262000a18565b602082019050919050565b6000602082019050818103600083015262000a838162000a41565b9050919050565b7f43616e6e6f74207472616e7366657220746f2073656c66000000000000000000600082015250565b600062000ac260178362000a07565b915062000acf8262000a8a565b602082019050919050565b6000602082019050818103600083015262000af58162000ab3565b9050919050565b60805160a05161595b62000b30600039600081816109a901526126d4015260008181610aae0152610b02015261595b6000f3fe608060405234801561001057600080fd5b50600436106102065760003560e01c80636352211e1161011a578063a22cb465116100ad578063c3a80f2b1161007c578063c3a80f2b146105fa578063c87b56dd1461062a578063e985e9c51461065a578063f0503e801461068a578063f2fde38b146106ba57610206565b8063a22cb46514610588578063b88d4fde146105a4578063c0463711146105c0578063c31e4eff146105de57610206565b806379ba5097116100e957806379ba5097146105125780638cbab7e41461051c5780638da5cb5b1461054c57806395d89b411461056a57610206565b80636352211e146104655780636e04ff0d1461049557806370a08231146104c65780637363ae1f146104f657610206565b806331e705081161019d5780634d2e03a01161016c5780634d2e03a01461038757806350822552146103a55780635280b034146103d5578063560dbafd1461040557806361eba5521461043557610206565b806331e705081461030357806342842e0e1461031f5780634585e33b1461033b5780634b857c791461035757610206565b80630ca76175116101d95780630ca76175146102a55780631249c58b146102c15780631fe543e3146102cb57806323b872dd146102e757610206565b806301ffc9a71461020b57806306fdde031461023b578063081812fc14610259578063095ea7b314610289575b600080fd5b61022560048036038101906102209190613aec565b6106d6565b6040516102329190613b34565b60405180910390f35b6102436107b8565b6040516102509190613bdf565b60405180910390f35b610273600480360381019061026e9190613c37565b61084a565b6040516102809190613ca5565b60405180910390f35b6102a3600480360381019061029e9190613cec565b610890565b005b6102bf60048036038101906102ba9190613e97565b6109a7565b005b6102c9610a69565b005b6102e560048036038101906102e09190613fea565b610aac565b005b61030160048036038101906102fc9190614046565b610b6c565b005b61031d60048036038101906103189190613c37565b610bcc565b005b61033960048036038101906103349190614046565b610e11565b005b610355600480360381019061035091906140f4565b610e31565b005b610371600480360381019061036c9190613c37565b610f16565b60405161037e9190613b34565b60405180910390f35b61038f610f36565b60405161039c9190613bdf565b60405180910390f35b6103bf60048036038101906103ba9190613c37565b610fc4565b6040516103cc9190613bdf565b60405180910390f35b6103ef60048036038101906103ea9190613c37565b611064565b6040516103fc9190614150565b60405180910390f35b61041f600480360381019061041a9190613c37565b61107c565b60405161042c9190614150565b60405180910390f35b61044f600480360381019061044a9190613c37565b6110a0565b60405161045c9190613bdf565b60405180910390f35b61047f600480360381019061047a9190613c37565b6111f0565b60405161048c9190613ca5565b60405180910390f35b6104af60048036038101906104aa91906140f4565b611276565b6040516104bd9291906141c0565b60405180910390f35b6104e060048036038101906104db91906141f0565b611315565b6040516104ed9190614150565b60405180910390f35b610510600480360381019061050b9190613c37565b6113cc565b005b61051a611554565b005b610536600480360381019061053191906141f0565b6116eb565b6040516105439190614150565b60405180910390f35b61055461170b565b6040516105619190613ca5565b60405180910390f35b610572611735565b60405161057f9190613bdf565b60405180910390f35b6105a2600480360381019061059d9190614249565b6117c7565b005b6105be60048036038101906105b99190614289565b6117dd565b005b6105c861183f565b6040516105d59190614150565b60405180910390f35b6105f860048036038101906105f3919061430c565b611845565b005b610614600480360381019061060f919061434c565b6118f0565b6040516106219190614150565b60405180910390f35b610644600480360381019061063f9190613c37565b611908565b6040516106519190613bdf565b60405180910390f35b610674600480360381019061066f9190614379565b611941565b6040516106819190613b34565b60405180910390f35b6106a4600480360381019061069f9190613c37565b6119d5565b6040516106b19190614150565b60405180910390f35b6106d460048036038101906106cf91906141f0565b6119ed565b005b60007f80ac58cd000000000000000000000000000000000000000000000000000000007bffffffffffffffffffffffffffffffffffffffffffffffffffffffff1916827bffffffffffffffffffffffffffffffffffffffffffffffffffffffff191614806107a157507f5b5e139f000000000000000000000000000000000000000000000000000000007bffffffffffffffffffffffffffffffffffffffffffffffffffffffff1916827bffffffffffffffffffffffffffffffffffffffffffffffffffffffff1916145b806107b157506107b082611a01565b5b9050919050565b6060600080546107c7906143e8565b80601f01602080910402602001604051908101604052809291908181526020018280546107f3906143e8565b80156108405780601f1061081557610100808354040283529160200191610840565b820191906000526020600020905b81548152906001019060200180831161082357829003601f168201915b5050505050905090565b600061085582611a6b565b6004600083815260200190815260200160002060009054906101000a900473ffffffffffffffffffffffffffffffffffffffff169050919050565b600061089b826111f0565b90508073ffffffffffffffffffffffffffffffffffffffff168373ffffffffffffffffffffffffffffffffffffffff160361090b576040517f08c379a00000000000000000000000000000000000000000000000000000000081526004016109029061448b565b60405180910390fd5b8073ffffffffffffffffffffffffffffffffffffffff1661092a611ab6565b73ffffffffffffffffffffffffffffffffffffffff161480610959575061095881610953611ab6565b611941565b5b610998576040517f08c379a000000000000000000000000000000000000000000000000000000000815260040161098f9061451d565b60405180910390fd5b6109a28383611abe565b505050565b7f000000000000000000000000000000000000000000000000000000000000000073ffffffffffffffffffffffffffffffffffffffff163373ffffffffffffffffffffffffffffffffffffffff1614610a2c576040517fc6829f8300000000000000000000000000000000000000000000000000000000815260040160405180910390fd5b610a37838383611b77565b827f85e1543bf2f84fe80c6badbce3648c8539ad1df4d2b3d822938ca0538be727e660405160405180910390a2505050565b6000610a74336116eb565b9050610a803382611bf4565b601481908060018154018082558091505060019003906000526020600020016000909190919091505550565b7f000000000000000000000000000000000000000000000000000000000000000073ffffffffffffffffffffffffffffffffffffffff163373ffffffffffffffffffffffffffffffffffffffff1614610b5e57337f00000000000000000000000000000000000000000000000000000000000000006040517f1cf993f4000000000000000000000000000000000000000000000000000000008152600401610b5592919061453d565b60405180910390fd5b610b688282611e11565b5050565b610b7d610b77611ab6565b82611e9f565b610bbc576040517f08c379a0000000000000000000000000000000000000000000000000000000008152600401610bb3906145d8565b60405180910390fd5b610bc7838383611f34565b505050565b6000610bd7826111f0565b90503373ffffffffffffffffffffffffffffffffffffffff168173ffffffffffffffffffffffffffffffffffffffff161480610c3e57503373ffffffffffffffffffffffffffffffffffffffff163073ffffffffffffffffffffffffffffffffffffffff16145b610c7d576040517f08c379a0000000000000000000000000000000000000000000000000000000008152600401610c7490614644565b60405180910390fd5b610c856139d4565b610d2260138054610c95906143e8565b80601f0160208091040260200160405190810160405280929190818152602001828054610cc1906143e8565b8015610d0e5780601f10610ce357610100808354040283529160200191610d0e565b820191906000526020600020905b815481529060010190602001808311610cf157829003601f168201915b50505050508261222d90919063ffffffff16565b6000600167ffffffffffffffff811115610d3f57610d3e613d6c565b5b604051908082528060200260200182016040528015610d7257816020015b6060815260200190600190039081610d5d5790505b509050610d7e8361223e565b81600081518110610d9257610d91614664565b5b6020026020010181905250610db0818361226b90919063ffffffff16565b6000610df0610dbe846122b3565b600e60009054906101000a900467ffffffffffffffff16600e601c9054906101000a900463ffffffff16600f546126cf565b90508460116000838152602001908152602001600020819055505050505050565b610e2c838383604051806020016040528060008152506117dd565b505050565b60005b601480549050811015610f0a57600060148281548110610e5757610e56614664565b5b906000526020600020015490506015600082815260200190815260200160002060009054906101000a900460ff1615610ef6573073ffffffffffffffffffffffffffffffffffffffff166331e70508826040518263ffffffff1660e01b8152600401610ec39190614150565b600060405180830381600087803b158015610edd57600080fd5b505af1158015610ef1573d6000803e3d6000fd5b505050505b508080610f02906146c2565b915050610e34565b50426016819055505050565b60156020528060005260406000206000915054906101000a900460ff1681565b60108054610f43906143e8565b80601f0160208091040260200160405190810160405280929190818152602001828054610f6f906143e8565b8015610fbc5780601f10610f9157610100808354040283529160200191610fbc565b820191906000526020600020905b815481529060010190602001808311610f9f57829003601f168201915b505050505081565b60126020528060005260406000206000915090508054610fe3906143e8565b80601f016020809104026020016040519081016040528092919081815260200182805461100f906143e8565b801561105c5780601f106110315761010080835404028352916020019161105c565b820191906000526020600020905b81548152906001019060200180831161103f57829003601f168201915b505050505081565b600c6020528060005260406000206000915090505481565b6014818154811061108c57600080fd5b906000526020600020016000915090505481565b60606110ab826127b2565b6110ea576040517f08c379a00000000000000000000000000000000000000000000000000000000081526004016110e190614756565b60405180910390fd5b60006040518060400160405280601081526020017f4c696e6b3a4265636f6d6548756d616e00000000000000000000000000000000815250905060006040518060400160405280601c81526020017f54686973206973204c696e6b3a4265636f6d6548756d616e204e465400000000815250905060006040518060400160405280602081526020017f68747470733a2f2f706c616365686f6c642e6a702f353030783530302e706e67815250905060006040518060600160405280603481526020016158b2603491399050838383836111c28a6127f3565b6040516020016111d695949392919061497a565b604051602081830303815290604052945050505050919050565b6000806111fc836128c1565b9050600073ffffffffffffffffffffffffffffffffffffffff168173ffffffffffffffffffffffffffffffffffffffff160361126d576040517f08c379a000000000000000000000000000000000000000000000000000000000815260040161126490614a53565b60405180910390fd5b80915050919050565b600060606000915061012c60165461128e9190614a73565b42111561130e5760005b60148054905081101561130c576000601482815481106112bb576112ba614664565b5b906000526020600020015490506015600082815260200190815260200160002060009054906101000a900460ff16156112f857600193505061130c565b508080611304906146c2565b915050611298565b505b9250929050565b60008073ffffffffffffffffffffffffffffffffffffffff168273ffffffffffffffffffffffffffffffffffffffff1603611385576040517f08c379a000000000000000000000000000000000000000000000000000000000815260040161137c90614b19565b60405180910390fd5b600360008373ffffffffffffffffffffffffffffffffffffffff1673ffffffffffffffffffffffffffffffffffffffff168152602001908152602001600020549050919050565b3373ffffffffffffffffffffffffffffffffffffffff166113ec826111f0565b73ffffffffffffffffffffffffffffffffffffffff1614611442576040517f08c379a000000000000000000000000000000000000000000000000000000000815260040161143990614b85565b60405180910390fd5b6000600860009054906101000a900473ffffffffffffffffffffffffffffffffffffffff1673ffffffffffffffffffffffffffffffffffffffff16635d3b1d30600a54600760149054906101000a900467ffffffffffffffff16600b60049054906101000a900461ffff16600b60009054906101000a900463ffffffff16600b60069054906101000a900463ffffffff166040518663ffffffff1660e01b81526004016114f3959493929190614c13565b6020604051808303816000875af1158015611512573d6000803e3d6000fd5b505050506040513d601f19601f820116820180604052508101906115369190614c7b565b905081600c6000838152602001908152602001600020819055505050565b600760009054906101000a900473ffffffffffffffffffffffffffffffffffffffff1673ffffffffffffffffffffffffffffffffffffffff163373ffffffffffffffffffffffffffffffffffffffff16146115e4576040517f08c379a00000000000000000000000000000000000000000000000000000000081526004016115db90614cf4565b60405180910390fd5b6000600660009054906101000a900473ffffffffffffffffffffffffffffffffffffffff16905033600660006101000a81548173ffffffffffffffffffffffffffffffffffffffff021916908373ffffffffffffffffffffffffffffffffffffffff1602179055506000600760006101000a81548173ffffffffffffffffffffffffffffffffffffffff021916908373ffffffffffffffffffffffffffffffffffffffff1602179055503373ffffffffffffffffffffffffffffffffffffffff168173ffffffffffffffffffffffffffffffffffffffff167f8be0079c531659141344cd1fd0a4f28419497f9722a3daafe3b4186f6b6457e060405160405180910390a350565b60008173ffffffffffffffffffffffffffffffffffffffff169050919050565b6000600660009054906101000a900473ffffffffffffffffffffffffffffffffffffffff16905090565b606060018054611744906143e8565b80601f0160208091040260200160405190810160405280929190818152602001828054611770906143e8565b80156117bd5780601f10611792576101008083540402835291602001916117bd565b820191906000526020600020905b8154815290600101906020018083116117a057829003601f168201915b5050505050905090565b6117d96117d2611ab6565b83836128fe565b5050565b6117ee6117e8611ab6565b83611e9f565b61182d576040517f08c379a0000000000000000000000000000000000000000000000000000000008152600401611824906145d8565b60405180910390fd5b61183984848484612a6a565b50505050565b60165481565b6000611850836111f0565b90503373ffffffffffffffffffffffffffffffffffffffff168173ffffffffffffffffffffffffffffffffffffffff16146118c0576040517f08c379a00000000000000000000000000000000000000000000000000000000081526004016118b790614b85565b60405180910390fd5b816015600085815260200190815260200160002060006101000a81548160ff021916908315150217905550505050565b60116020528060005260406000206000915090505481565b606061191b611916836110a0565b612ac6565b60405160200161192b9190614d60565b6040516020818303038152906040529050919050565b6000600560008473ffffffffffffffffffffffffffffffffffffffff1673ffffffffffffffffffffffffffffffffffffffff16815260200190815260200160002060008373ffffffffffffffffffffffffffffffffffffffff1673ffffffffffffffffffffffffffffffffffffffff16815260200190815260200160002060009054906101000a900460ff16905092915050565b600d6020528060005260406000206000915090505481565b6119f5612c29565b6119fe81612cbb565b50565b60007f01ffc9a7000000000000000000000000000000000000000000000000000000007bffffffffffffffffffffffffffffffffffffffffffffffffffffffff1916827bffffffffffffffffffffffffffffffffffffffffffffffffffffffff1916149050919050565b611a74816127b2565b611ab3576040517f08c379a0000000000000000000000000000000000000000000000000000000008152600401611aaa90614a53565b60405180910390fd5b50565b600033905090565b816004600083815260200190815260200160002060006101000a81548173ffffffffffffffffffffffffffffffffffffffff021916908373ffffffffffffffffffffffffffffffffffffffff160217905550808273ffffffffffffffffffffffffffffffffffffffff16611b31836111f0565b73ffffffffffffffffffffffffffffffffffffffff167f8c5be1e5ebec7d5bd14f71427d1e84f3dd0314c0f7b2291e5b200ac8c7c3b92560405160405180910390a45050565b600060116000858152602001908152602001600020549050600083905080601260008481526020019081526020016000209081611bb49190614f2e565b50817ff47163253d9118996665530a582f31414c63165d92eb1cd5d1d8e3ca8ad14aa682604051611be59190613bdf565b60405180910390a25050505050565b600073ffffffffffffffffffffffffffffffffffffffff168273ffffffffffffffffffffffffffffffffffffffff1603611c63576040517f08c379a0000000000000000000000000000000000000000000000000000000008152600401611c5a9061504c565b60405180910390fd5b611c6c816127b2565b15611cac576040517f08c379a0000000000000000000000000000000000000000000000000000000008152600401611ca3906150b8565b60405180910390fd5b611cba600083836001612de9565b611cc3816127b2565b15611d03576040517f08c379a0000000000000000000000000000000000000000000000000000000008152600401611cfa906150b8565b60405180910390fd5b6001600360008473ffffffffffffffffffffffffffffffffffffffff1673ffffffffffffffffffffffffffffffffffffffff16815260200190815260200160002060008282540192505081905550816002600083815260200190815260200160002060006101000a81548173ffffffffffffffffffffffffffffffffffffffff021916908373ffffffffffffffffffffffffffffffffffffffff160217905550808273ffffffffffffffffffffffffffffffffffffffff16600073ffffffffffffffffffffffffffffffffffffffff167fddf252ad1be2c89b69c2b068fc378daa952ba7f163c4a11628f55a4df523b3ef60405160405180910390a4611e0d600083836001612e6a565b5050565b6000600c6000848152602001908152602001600020549050600082600081518110611e3f57611e3e614664565b5b6020026020010151905080600d600084815260200190815260200160002081905550817faabfe5e8bccf1a1352f72b557ce580211305c37f88d5783ae467a1ba5e0761e082604051611e919190614150565b60405180910390a250505050565b600080611eab836111f0565b90508073ffffffffffffffffffffffffffffffffffffffff168473ffffffffffffffffffffffffffffffffffffffff161480611eed5750611eec8185611941565b5b80611f2b57508373ffffffffffffffffffffffffffffffffffffffff16611f138461084a565b73ffffffffffffffffffffffffffffffffffffffff16145b91505092915050565b8273ffffffffffffffffffffffffffffffffffffffff16611f54826111f0565b73ffffffffffffffffffffffffffffffffffffffff1614611faa576040517f08c379a0000000000000000000000000000000000000000000000000000000008152600401611fa19061514a565b60405180910390fd5b600073ffffffffffffffffffffffffffffffffffffffff168273ffffffffffffffffffffffffffffffffffffffff1603612019576040517f08c379a0000000000000000000000000000000000000000000000000000000008152600401612010906151dc565b60405180910390fd5b6120268383836001612de9565b8273ffffffffffffffffffffffffffffffffffffffff16612046826111f0565b73ffffffffffffffffffffffffffffffffffffffff161461209c576040517f08c379a00000000000000000000000000000000000000000000000000000000081526004016120939061514a565b60405180910390fd5b6004600082815260200190815260200160002060006101000a81549073ffffffffffffffffffffffffffffffffffffffff02191690556001600360008573ffffffffffffffffffffffffffffffffffffffff1673ffffffffffffffffffffffffffffffffffffffff168152602001908152602001600020600082825403925050819055506001600360008473ffffffffffffffffffffffffffffffffffffffff1673ffffffffffffffffffffffffffffffffffffffff16815260200190815260200160002060008282540192505081905550816002600083815260200190815260200160002060006101000a81548173ffffffffffffffffffffffffffffffffffffffff021916908373ffffffffffffffffffffffffffffffffffffffff160217905550808273ffffffffffffffffffffffffffffffffffffffff168473ffffffffffffffffffffffffffffffffffffffff167fddf252ad1be2c89b69c2b068fc378daa952ba7f163c4a11628f55a4df523b3ef60405160405180910390a46122288383836001612e6a565b505050565b61223a8260008084612e70565b5050565b60606122648273ffffffffffffffffffffffffffffffffffffffff16601460ff16612f1a565b9050919050565b60008151036122a6576040517ffe936cb700000000000000000000000000000000000000000000000000000000815260040160405180910390fd5b808260a001819052505050565b606060006122c2610100613156565b905061230c6040518060400160405280600c81526020017f636f64654c6f636174696f6e00000000000000000000000000000000000000008152508261317d90919063ffffffff16565b61233583600001516002811115612326576123256151fc565b5b826131a690919063ffffffff16565b61237d6040518060400160405280600881526020017f6c616e67756167650000000000000000000000000000000000000000000000008152508261317d90919063ffffffff16565b6123a683604001516000811115612397576123966151fc565b5b826131a690919063ffffffff16565b6123ee6040518060400160405280600681526020017f736f7572636500000000000000000000000000000000000000000000000000008152508261317d90919063ffffffff16565b61240583606001518261317d90919063ffffffff16565b60008360a001515111156124c15761245b6040518060400160405280600481526020017f61726773000000000000000000000000000000000000000000000000000000008152508261317d90919063ffffffff16565b612464816131f6565b60005b8360a00151518110156124b6576124a58460a00151828151811061248e5761248d614664565b5b60200260200101518361317d90919063ffffffff16565b806124af906146c2565b9050612467565b506124c08161321e565b5b6000836080015151111561260257600060028111156124e3576124e26151fc565b5b836020015160028111156124fa576124f96151fc565b5b03612531576040517fa80d31f700000000000000000000000000000000000000000000000000000000815260040160405180910390fd5b6125796040518060400160405280600f81526020017f736563726574734c6f636174696f6e00000000000000000000000000000000008152508261317d90919063ffffffff16565b6125a283602001516002811115612593576125926151fc565b5b826131a690919063ffffffff16565b6125ea6040518060400160405280600781526020017f73656372657473000000000000000000000000000000000000000000000000008152508261317d90919063ffffffff16565b61260183608001518261324690919063ffffffff16565b5b60008360c001515111156126be576126586040518060400160405280600981526020017f62797465734172677300000000000000000000000000000000000000000000008152508261317d90919063ffffffff16565b612661816131f6565b60005b8360c00151518110156126b3576126a28460c00151828151811061268b5761268a614664565b5b60200260200101518361324690919063ffffffff16565b806126ac906146c2565b9050612664565b506126bd8161321e565b5b806000015160000151915050919050565b6000807f000000000000000000000000000000000000000000000000000000000000000073ffffffffffffffffffffffffffffffffffffffff1663461d27628688600188886040518663ffffffff1660e01b815260040161273495949392919061522b565b6020604051808303816000875af1158015612753573d6000803e3d6000fd5b505050506040513d601f19601f82011682018060405250810190612777919061529a565b9050807f1131472297a800fee664d1d89cfa8f7676ff07189ecc53f80bbb5f4969099db860405160405180910390a280915050949350505050565b60008073ffffffffffffffffffffffffffffffffffffffff166127d4836128c1565b73ffffffffffffffffffffffffffffffffffffffff1614159050919050565b6060600060016128028461326f565b01905060008167ffffffffffffffff81111561282157612820613d6c565b5b6040519080825280601f01601f1916602001820160405280156128535781602001600182028036833780820191505090505b509050600082602001820190505b6001156128b6578080600190039150507f3031323334353637383961626364656600000000000000000000000000000000600a86061a8153600a85816128aa576128a96152c7565b5b04945060008503612861575b819350505050919050565b60006002600083815260200190815260200160002060009054906101000a900473ffffffffffffffffffffffffffffffffffffffff169050919050565b8173ffffffffffffffffffffffffffffffffffffffff168373ffffffffffffffffffffffffffffffffffffffff160361296c576040517f08c379a000000000000000000000000000000000000000000000000000000000815260040161296390615342565b60405180910390fd5b80600560008573ffffffffffffffffffffffffffffffffffffffff1673ffffffffffffffffffffffffffffffffffffffff16815260200190815260200160002060008473ffffffffffffffffffffffffffffffffffffffff1673ffffffffffffffffffffffffffffffffffffffff16815260200190815260200160002060006101000a81548160ff0219169083151502179055508173ffffffffffffffffffffffffffffffffffffffff168373ffffffffffffffffffffffffffffffffffffffff167f17307eab39ab6107e8899845ad3d59bd9653f200f220920489ca2b5937696c3183604051612a5d9190613b34565b60405180910390a3505050565b612a75848484611f34565b612a81848484846133c2565b612ac0576040517f08c379a0000000000000000000000000000000000000000000000000000000008152600401612ab7906153d4565b60405180910390fd5b50505050565b60606000825103612ae857604051806020016040528060008152509050612c24565b60006040518060600160405280604081526020016158e66040913990506000600360028551612b179190614a73565b612b2191906153f4565b6004612b2d9190615425565b67ffffffffffffffff811115612b4657612b45613d6c565b5b6040519080825280601f01601f191660200182016040528015612b785781602001600182028036833780820191505090505b509050600182016020820185865187015b80821015612be4576003820191508151603f8160121c168501518453600184019350603f81600c1c168501518453600184019350603f8160061c168501518453600184019350603f8116850151845360018401935050612b89565b5050600386510660018114612c005760028114612c1357612c1b565b603d6001830353603d6002830353612c1b565b603d60018303535b50505080925050505b919050565b600660009054906101000a900473ffffffffffffffffffffffffffffffffffffffff1673ffffffffffffffffffffffffffffffffffffffff163373ffffffffffffffffffffffffffffffffffffffff1614612cb9576040517f08c379a0000000000000000000000000000000000000000000000000000000008152600401612cb0906154b3565b60405180910390fd5b565b3373ffffffffffffffffffffffffffffffffffffffff168173ffffffffffffffffffffffffffffffffffffffff1603612d29576040517f08c379a0000000000000000000000000000000000000000000000000000000008152600401612d209061551f565b60405180910390fd5b80600760006101000a81548173ffffffffffffffffffffffffffffffffffffffff021916908373ffffffffffffffffffffffffffffffffffffffff1602179055508073ffffffffffffffffffffffffffffffffffffffff16600660009054906101000a900473ffffffffffffffffffffffffffffffffffffffff1673ffffffffffffffffffffffffffffffffffffffff167fed8889f560326eb138920d842192f0eb3dd22b4f139c87a2c57538e05bae127860405160405180910390a350565b600073ffffffffffffffffffffffffffffffffffffffff168473ffffffffffffffffffffffffffffffffffffffff1614612e58576040517f08c379a0000000000000000000000000000000000000000000000000000000008152600401612e4f9061558b565b60405180910390fd5b612e6484848484613549565b50505050565b50505050565b6000815103612eab576040517f22ce3edd00000000000000000000000000000000000000000000000000000000815260040160405180910390fd5b8284600001906002811115612ec357612ec26151fc565b5b90816002811115612ed757612ed66151fc565b5b815250508184604001906000811115612ef357612ef26151fc565b5b90816000811115612f0757612f066151fc565b5b8152505080846060018190525050505050565b606060006002836002612f2d9190615425565b612f379190614a73565b67ffffffffffffffff811115612f5057612f4f613d6c565b5b6040519080825280601f01601f191660200182016040528015612f825781602001600182028036833780820191505090505b5090507f300000000000000000000000000000000000000000000000000000000000000081600081518110612fba57612fb9614664565b5b60200101907effffffffffffffffffffffffffffffffffffffffffffffffffffffffffffff1916908160001a9053507f78000000000000000000000000000000000000000000000000000000000000008160018151811061301e5761301d614664565b5b60200101907effffffffffffffffffffffffffffffffffffffffffffffffffffffffffffff1916908160001a9053506000600184600261305e9190615425565b6130689190614a73565b90505b6001811115613108577f3031323334353637383961626364656600000000000000000000000000000000600f8616601081106130aa576130a9614664565b5b1a60f81b8282815181106130c1576130c0614664565b5b60200101907effffffffffffffffffffffffffffffffffffffffffffffffffffffffffffff1916908160001a905350600485901c945080613101906155ab565b905061306b565b506000841461314c576040517f08c379a000000000000000000000000000000000000000000000000000000000815260040161314390615620565b60405180910390fd5b8091505092915050565b61315e613a46565b61316c81600001518361354f565b506000816020018181525050919050565b61318a82600383516135c8565b6131a181836000015161377190919063ffffffff16565b505050565b6131c860026005600660ff16901b17836000015161378d90919063ffffffff16565b506131f282826040516020016131de9190614150565b604051602081830303815290604052613246565b5050565b6132018160046137f7565b6001816020018181516132149190614a73565b9150818152505050565b6132298160076137f7565b60018160200181815161323c9190615640565b9150818152505050565b61325382600283516135c8565b61326a81836000015161377190919063ffffffff16565b505050565b600080600090507a184f03e93ff9f4daa797ed6e38ed64bf6a1f01000000000000000083106132cd577a184f03e93ff9f4daa797ed6e38ed64bf6a1f01000000000000000083816132c3576132c26152c7565b5b0492506040810190505b6d04ee2d6d415b85acef8100000000831061330a576d04ee2d6d415b85acef81000000008381613300576132ff6152c7565b5b0492506020810190505b662386f26fc10000831061333957662386f26fc10000838161332f5761332e6152c7565b5b0492506010810190505b6305f5e1008310613362576305f5e1008381613358576133576152c7565b5b0492506008810190505b612710831061338757612710838161337d5761337c6152c7565b5b0492506004810190505b606483106133aa57606483816133a05761339f6152c7565b5b0492506002810190505b600a83106133b9576001810190505b80915050919050565b60006133e38473ffffffffffffffffffffffffffffffffffffffff1661381d565b1561353c578373ffffffffffffffffffffffffffffffffffffffff1663150b7a0261340c611ab6565b8786866040518563ffffffff1660e01b815260040161342e9493929190615674565b6020604051808303816000875af192505050801561346a57506040513d601f19601f8201168201806040525081019061346791906156d5565b60015b6134ec573d806000811461349a576040519150601f19603f3d011682016040523d82523d6000602084013e61349f565b606091505b5060008151036134e4576040517f08c379a00000000000000000000000000000000000000000000000000000000081526004016134db906153d4565b60405180910390fd5b805181602001fd5b63150b7a0260e01b7bffffffffffffffffffffffffffffffffffffffffffffffffffffffff1916817bffffffffffffffffffffffffffffffffffffffffffffffffffffffff191614915050613541565b600190505b949350505050565b50505050565b613557613a66565b60006020836135669190615702565b14613592576020826135789190615702565b60206135849190615640565b8261358f9190614a73565b91505b8183602001818152505060405180845260008152828101602001818110156135b957600080fd5b80604052505082905092915050565b60178167ffffffffffffffff1611613603576135fd8160058460ff16901b60ff1617846000015161378d90919063ffffffff16565b5061376c565b60ff8167ffffffffffffffff161161366157613636601860058460ff16901b17846000015161378d90919063ffffffff16565b5061365b8167ffffffffffffffff16600185600001516138409092919063ffffffff16565b5061376b565b61ffff8167ffffffffffffffff16116136c057613695601960058460ff16901b17846000015161378d90919063ffffffff16565b506136ba8167ffffffffffffffff16600285600001516138409092919063ffffffff16565b5061376a565b63ffffffff8167ffffffffffffffff1611613721576136f6601a60058460ff16901b17846000015161378d90919063ffffffff16565b5061371b8167ffffffffffffffff16600485600001516138409092919063ffffffff16565b50613769565b613742601b60058460ff16901b17846000015161378d90919063ffffffff16565b506137678167ffffffffffffffff16600885600001516138409092919063ffffffff16565b505b5b5b5b505050565b613779613a66565b613785838384516138cd565b905092915050565b613795613a66565b6000836000015151905060006001826137ae9190614a73565b9050846020015182106137d2576137d1856002836137cc9190615425565b6139b0565b5b845160208382010185815381518311156137ea578282525b5050849250505092915050565b613818601f60058360ff16901b17836000015161378d90919063ffffffff16565b505050565b6000808273ffffffffffffffffffffffffffffffffffffffff163b119050919050565b613848613a66565b60008460000151519050600081846138609190614a73565b90508560200151811115613885576138848660028361387f9190615425565b6139b0565b5b60006001856101006138979190615866565b6138a19190615640565b9050865182810187831982511617815281518411156138be578382525b50508693505050509392505050565b6138d5613a66565b82518211156138e357600080fd5b60008460000151519050600083826138fb9190614a73565b905085602001518111156139205761391f8660028361391a9190615425565b6139b0565b5b6000808751805185602083010193508085111561393b578482525b60208901925050505b60208610613982578051825260208261395d9190614a73565b915060208161396c9190614a73565b905060208661397b9190615640565b9550613944565b60006001876020036101000a0390508019825116818451168181178552505050879450505050509392505050565b6000826000015190506139c3838361354f565b506139ce8382613771565b50505050565b6040518060e00160405280600060028111156139f3576139f26151fc565b5b815260200160006002811115613a0c57613a0b6151fc565b5b8152602001600080811115613a2457613a236151fc565b5b8152602001606081526020016060815260200160608152602001606081525090565b6040518060400160405280613a59613a66565b8152602001600081525090565b604051806040016040528060608152602001600081525090565b6000604051905090565b600080fd5b600080fd5b60007fffffffff0000000000000000000000000000000000000000000000000000000082169050919050565b613ac981613a94565b8114613ad457600080fd5b50565b600081359050613ae681613ac0565b92915050565b600060208284031215613b0257613b01613a8a565b5b6000613b1084828501613ad7565b91505092915050565b60008115159050919050565b613b2e81613b19565b82525050565b6000602082019050613b496000830184613b25565b92915050565b600081519050919050565b600082825260208201905092915050565b60005b83811015613b89578082015181840152602081019050613b6e565b60008484015250505050565b6000601f19601f8301169050919050565b6000613bb182613b4f565b613bbb8185613b5a565b9350613bcb818560208601613b6b565b613bd481613b95565b840191505092915050565b60006020820190508181036000830152613bf98184613ba6565b905092915050565b6000819050919050565b613c1481613c01565b8114613c1f57600080fd5b50565b600081359050613c3181613c0b565b92915050565b600060208284031215613c4d57613c4c613a8a565b5b6000613c5b84828501613c22565b91505092915050565b600073ffffffffffffffffffffffffffffffffffffffff82169050919050565b6000613c8f82613c64565b9050919050565b613c9f81613c84565b82525050565b6000602082019050613cba6000830184613c96565b92915050565b613cc981613c84565b8114613cd457600080fd5b50565b600081359050613ce681613cc0565b92915050565b60008060408385031215613d0357613d02613a8a565b5b6000613d1185828601613cd7565b9250506020613d2285828601613c22565b9150509250929050565b6000819050919050565b613d3f81613d2c565b8114613d4a57600080fd5b50565b600081359050613d5c81613d36565b92915050565b600080fd5b600080fd5b7f4e487b7100000000000000000000000000000000000000000000000000000000600052604160045260246000fd5b613da482613b95565b810181811067ffffffffffffffff82111715613dc357613dc2613d6c565b5b80604052505050565b6000613dd6613a80565b9050613de28282613d9b565b919050565b600067ffffffffffffffff821115613e0257613e01613d6c565b5b613e0b82613b95565b9050602081019050919050565b82818337600083830152505050565b6000613e3a613e3584613de7565b613dcc565b905082815260208101848484011115613e5657613e55613d67565b5b613e61848285613e18565b509392505050565b600082601f830112613e7e57613e7d613d62565b5b8135613e8e848260208601613e27565b91505092915050565b600080600060608486031215613eb057613eaf613a8a565b5b6000613ebe86828701613d4d565b935050602084013567ffffffffffffffff811115613edf57613ede613a8f565b5b613eeb86828701613e69565b925050604084013567ffffffffffffffff811115613f0c57613f0b613a8f565b5b613f1886828701613e69565b9150509250925092565b600067ffffffffffffffff821115613f3d57613f3c613d6c565b5b602082029050602081019050919050565b600080fd5b6000613f66613f6184613f22565b613dcc565b90508083825260208201905060208402830185811115613f8957613f88613f4e565b5b835b81811015613fb25780613f9e8882613c22565b845260208401935050602081019050613f8b565b5050509392505050565b600082601f830112613fd157613fd0613d62565b5b8135613fe1848260208601613f53565b91505092915050565b6000806040838503121561400157614000613a8a565b5b600061400f85828601613c22565b925050602083013567ffffffffffffffff8111156140305761402f613a8f565b5b61403c85828601613fbc565b9150509250929050565b60008060006060848603121561405f5761405e613a8a565b5b600061406d86828701613cd7565b935050602061407e86828701613cd7565b925050604061408f86828701613c22565b9150509250925092565b600080fd5b60008083601f8401126140b4576140b3613d62565b5b8235905067ffffffffffffffff8111156140d1576140d0614099565b5b6020830191508360018202830111156140ed576140ec613f4e565b5b9250929050565b6000806020838503121561410b5761410a613a8a565b5b600083013567ffffffffffffffff81111561412957614128613a8f565b5b6141358582860161409e565b92509250509250929050565b61414a81613c01565b82525050565b60006020820190506141656000830184614141565b92915050565b600081519050919050565b600082825260208201905092915050565b60006141928261416b565b61419c8185614176565b93506141ac818560208601613b6b565b6141b581613b95565b840191505092915050565b60006040820190506141d56000830185613b25565b81810360208301526141e78184614187565b90509392505050565b60006020828403121561420657614205613a8a565b5b600061421484828501613cd7565b91505092915050565b61422681613b19565b811461423157600080fd5b50565b6000813590506142438161421d565b92915050565b600080604083850312156142605761425f613a8a565b5b600061426e85828601613cd7565b925050602061427f85828601614234565b9150509250929050565b600080600080608085870312156142a3576142a2613a8a565b5b60006142b187828801613cd7565b94505060206142c287828801613cd7565b93505060406142d387828801613c22565b925050606085013567ffffffffffffffff8111156142f4576142f3613a8f565b5b61430087828801613e69565b91505092959194509250565b6000806040838503121561432357614322613a8a565b5b600061433185828601613c22565b925050602061434285828601614234565b9150509250929050565b60006020828403121561436257614361613a8a565b5b600061437084828501613d4d565b91505092915050565b600080604083850312156143905761438f613a8a565b5b600061439e85828601613cd7565b92505060206143af85828601613cd7565b9150509250929050565b7f4e487b7100000000000000000000000000000000000000000000000000000000600052602260045260246000fd5b6000600282049050600182168061440057607f821691505b602082108103614413576144126143b9565b5b50919050565b7f4552433732313a20617070726f76616c20746f2063757272656e74206f776e6560008201527f7200000000000000000000000000000000000000000000000000000000000000602082015250565b6000614475602183613b5a565b915061448082614419565b604082019050919050565b600060208201905081810360008301526144a481614468565b9050919050565b7f4552433732313a20617070726f76652063616c6c6572206973206e6f7420746f60008201527f6b656e206f776e6572206f7220617070726f76656420666f7220616c6c000000602082015250565b6000614507603d83613b5a565b9150614512826144ab565b604082019050919050565b60006020820190508181036000830152614536816144fa565b9050919050565b60006040820190506145526000830185613c96565b61455f6020830184613c96565b9392505050565b7f4552433732313a2063616c6c6572206973206e6f7420746f6b656e206f776e6560008201527f72206f7220617070726f76656400000000000000000000000000000000000000602082015250565b60006145c2602d83613b5a565b91506145cd82614566565b604082019050919050565b600060208201905081810360008301526145f1816145b5565b9050919050565b7f6e6f7420746f6b656e206f776e6572206f7220636f6e74726163740000000000600082015250565b600061462e601b83613b5a565b9150614639826145f8565b602082019050919050565b6000602082019050818103600083015261465d81614621565b9050919050565b7f4e487b7100000000000000000000000000000000000000000000000000000000600052603260045260246000fd5b7f4e487b7100000000000000000000000000000000000000000000000000000000600052601160045260246000fd5b60006146cd82613c01565b91507fffffffffffffffffffffffffffffffffffffffffffffffffffffffffffffffff82036146ff576146fe614693565b5b600182019050919050565b7f717565727920666f72206e6f6e6578697374656e7420746f6b656e0000000000600082015250565b6000614740601b83613b5a565b915061474b8261470a565b602082019050919050565b6000602082019050818103600083015261476f81614733565b9050919050565b600081905092915050565b7f7b226e616d65223a220000000000000000000000000000000000000000000000600082015250565b60006147b7600983614776565b91506147c282614781565b600982019050919050565b60006147d882613b4f565b6147e28185614776565b93506147f2818560208601613b6b565b80840191505092915050565b7f222c226465736372697074696f6e223a22000000000000000000000000000000600082015250565b6000614834601183614776565b915061483f826147fe565b601182019050919050565b7f222c22696d616765223a22000000000000000000000000000000000000000000600082015250565b6000614880600b83614776565b915061488b8261484a565b600b82019050919050565b7f222c22616e696d6174696f6e5f75726c223a2200000000000000000000000000600082015250565b60006148cc601383614776565b91506148d782614896565b601382019050919050565b7f3f69643d00000000000000000000000000000000000000000000000000000000600082015250565b6000614918600483614776565b9150614923826148e2565b600482019050919050565b7f227d000000000000000000000000000000000000000000000000000000000000600082015250565b6000614964600283614776565b915061496f8261492e565b600282019050919050565b6000614985826147aa565b915061499182886147cd565b915061499c82614827565b91506149a882876147cd565b91506149b382614873565b91506149bf82866147cd565b91506149ca826148bf565b91506149d682856147cd565b91506149e18261490b565b91506149ed82846147cd565b91506149f882614957565b91508190509695505050505050565b7f4552433732313a20696e76616c696420746f6b656e2049440000000000000000600082015250565b6000614a3d601883613b5a565b9150614a4882614a07565b602082019050919050565b60006020820190508181036000830152614a6c81614a30565b9050919050565b6000614a7e82613c01565b9150614a8983613c01565b9250828201905080821115614aa157614aa0614693565b5b92915050565b7f4552433732313a2061646472657373207a65726f206973206e6f74206120766160008201527f6c6964206f776e65720000000000000000000000000000000000000000000000602082015250565b6000614b03602983613b5a565b9150614b0e82614aa7565b604082019050919050565b60006020820190508181036000830152614b3281614af6565b9050919050565b7f6e6f7420746f6b656e206f776e65720000000000000000000000000000000000600082015250565b6000614b6f600f83613b5a565b9150614b7a82614b39565b602082019050919050565b60006020820190508181036000830152614b9e81614b62565b9050919050565b614bae81613d2c565b82525050565b600067ffffffffffffffff82169050919050565b614bd181614bb4565b82525050565b600061ffff82169050919050565b614bee81614bd7565b82525050565b600063ffffffff82169050919050565b614c0d81614bf4565b82525050565b600060a082019050614c286000830188614ba5565b614c356020830187614bc8565b614c426040830186614be5565b614c4f6060830185614c04565b614c5c6080830184614c04565b9695505050505050565b600081519050614c7581613c0b565b92915050565b600060208284031215614c9157614c90613a8a565b5b6000614c9f84828501614c66565b91505092915050565b7f4d7573742062652070726f706f736564206f776e657200000000000000000000600082015250565b6000614cde601683613b5a565b9150614ce982614ca8565b602082019050919050565b60006020820190508181036000830152614d0d81614cd1565b9050919050565b7f646174613a6170706c69636174696f6e2f6a736f6e3b6261736536342c000000600082015250565b6000614d4a601d83614776565b9150614d5582614d14565b601d82019050919050565b6000614d6b82614d3d565b9150614d7782846147cd565b915081905092915050565b60008190508160005260206000209050919050565b60006020601f8301049050919050565b600082821b905092915050565b600060088302614de47fffffffffffffffffffffffffffffffffffffffffffffffffffffffffffffffff82614da7565b614dee8683614da7565b95508019841693508086168417925050509392505050565b6000819050919050565b6000614e2b614e26614e2184613c01565b614e06565b613c01565b9050919050565b6000819050919050565b614e4583614e10565b614e59614e5182614e32565b848454614db4565b825550505050565b600090565b614e6e614e61565b614e79818484614e3c565b505050565b5b81811015614e9d57614e92600082614e66565b600181019050614e7f565b5050565b601f821115614ee257614eb381614d82565b614ebc84614d97565b81016020851015614ecb578190505b614edf614ed785614d97565b830182614e7e565b50505b505050565b600082821c905092915050565b6000614f0560001984600802614ee7565b1980831691505092915050565b6000614f1e8383614ef4565b9150826002028217905092915050565b614f3782613b4f565b67ffffffffffffffff811115614f5057614f4f613d6c565b5b614f5a82546143e8565b614f65828285614ea1565b600060209050601f831160018114614f985760008415614f86578287015190505b614f908582614f12565b865550614ff8565b601f198416614fa686614d82565b60005b82811015614fce57848901518255600182019150602085019450602081019050614fa9565b86831015614feb5784890151614fe7601f891682614ef4565b8355505b6001600288020188555050505b505050505050565b7f4552433732313a206d696e7420746f20746865207a65726f2061646472657373600082015250565b6000615036602083613b5a565b915061504182615000565b602082019050919050565b6000602082019050818103600083015261506581615029565b9050919050565b7f4552433732313a20746f6b656e20616c7265616479206d696e74656400000000600082015250565b60006150a2601c83613b5a565b91506150ad8261506c565b602082019050919050565b600060208201905081810360008301526150d181615095565b9050919050565b7f4552433732313a207472616e736665722066726f6d20696e636f72726563742060008201527f6f776e6572000000000000000000000000000000000000000000000000000000602082015250565b6000615134602583613b5a565b915061513f826150d8565b604082019050919050565b6000602082019050818103600083015261516381615127565b9050919050565b7f4552433732313a207472616e7366657220746f20746865207a65726f2061646460008201527f7265737300000000000000000000000000000000000000000000000000000000602082015250565b60006151c6602483613b5a565b91506151d18261516a565b604082019050919050565b600060208201905081810360008301526151f5816151b9565b9050919050565b7f4e487b7100000000000000000000000000000000000000000000000000000000600052602160045260246000fd5b600060a0820190506152406000830188614bc8565b81810360208301526152528187614187565b90506152616040830186614be5565b61526e6060830185614c04565b61527b6080830184614ba5565b9695505050505050565b60008151905061529481613d36565b92915050565b6000602082840312156152b0576152af613a8a565b5b60006152be84828501615285565b91505092915050565b7f4e487b7100000000000000000000000000000000000000000000000000000000600052601260045260246000fd5b7f4552433732313a20617070726f766520746f2063616c6c657200000000000000600082015250565b600061532c601983613b5a565b9150615337826152f6565b602082019050919050565b6000602082019050818103600083015261535b8161531f565b9050919050565b7f4552433732313a207472616e7366657220746f206e6f6e20455243373231526560008201527f63656976657220696d706c656d656e7465720000000000000000000000000000602082015250565b60006153be603283613b5a565b91506153c982615362565b604082019050919050565b600060208201905081810360008301526153ed816153b1565b9050919050565b60006153ff82613c01565b915061540a83613c01565b92508261541a576154196152c7565b5b828204905092915050565b600061543082613c01565b915061543b83613c01565b925082820261544981613c01565b915082820484148315176154605761545f614693565b5b5092915050565b7f4f6e6c792063616c6c61626c65206279206f776e657200000000000000000000600082015250565b600061549d601683613b5a565b91506154a882615467565b602082019050919050565b600060208201905081810360008301526154cc81615490565b9050919050565b7f43616e6e6f74207472616e7366657220746f2073656c66000000000000000000600082015250565b6000615509601783613b5a565b9150615514826154d3565b602082019050919050565b60006020820190508181036000830152615538816154fc565b9050919050565b7f6e6f6e207472616e7366657261626c6500000000000000000000000000000000600082015250565b6000615575601083613b5a565b91506155808261553f565b602082019050919050565b600060208201905081810360008301526155a481615568565b9050919050565b60006155b682613c01565b9150600082036155c9576155c8614693565b5b600182039050919050565b7f537472696e67733a20686578206c656e67746820696e73756666696369656e74600082015250565b600061560a602083613b5a565b9150615615826155d4565b602082019050919050565b60006020820190508181036000830152615639816155fd565b9050919050565b600061564b82613c01565b915061565683613c01565b925082820390508181111561566e5761566d614693565b5b92915050565b60006080820190506156896000830187613c96565b6156966020830186613c96565b6156a36040830185614141565b81810360608301526156b58184614187565b905095945050505050565b6000815190506156cf81613ac0565b92915050565b6000602082840312156156eb576156ea613a8a565b5b60006156f9848285016156c0565b91505092915050565b600061570d82613c01565b915061571883613c01565b925082615728576157276152c7565b5b828206905092915050565b60008160011c9050919050565b6000808291508390505b600185111561578a5780860481111561576657615765614693565b5b60018516156157755780820291505b808102905061578385615733565b945061574a565b94509492505050565b6000826157a3576001905061585f565b816157b1576000905061585f565b81600181146157c757600281146157d157615800565b600191505061585f565b60ff8411156157e3576157e2614693565b5b8360020a9150848211156157fa576157f9614693565b5b5061585f565b5060208310610133831016604e8410600b84101617156158355782820a9050838111156158305761582f614693565b5b61585f565b6158428484846001615740565b9250905081840481111561585957615858614693565b5b81810290505b9392505050565b600061587182613c01565b915061587c83613c01565b92506158a97fffffffffffffffffffffffffffffffffffffffffffffffffffffffffffffffff8484615793565b90509291505056fe68747470733a2f2f6c696e6b2d6265636f6d652d68756d616e2e76657263656c2e6170702f67616d652f696e6465782e68746d6c4142434445464748494a4b4c4d4e4f505152535455565758595a6162636465666768696a6b6c6d6e6f707172737475767778797a303132333435363738392b2fa26469706673582212207ac94f062f235496962fec9278c870e3ea18f317f3b8656612c0586fadcfdc9e64736f6c63430008130033636f6e73742061646472657373203d20617267735b305d3b636f6e737420617069526573706f6e7365203d2061776169742046756e6374696f6e732e6d616b654874747052657175657374287b75726c3a206068747470733a2f2f6c696e6b2d6265636f6d652d68756d616e2e76657263656c2e6170702f6170692f68756d616e6974792f247b616464726573737d607d293b69662028617069526573706f6e73652e6572726f7229207b7468726f77204572726f72282752657175657374206661696c656427293b7d636f6e7374207b2064617461207d203d20617069526573706f6e73653b72657475726e2046756e6374696f6e732e656e636f6465537472696e6728646174612e746f537472696e672829293b",
  "linkReferences": {},
  "deployedLinkReferences": {}
}