{
  "_format": "hh-sol-artifact-1",
  "contractName": "LinkBecomeHuman",
  "sourceName": "contracts/LinkBecomeHuman.sol",
  "abi": [
    {
      "inputs": [
        {
          "internalType": "uint64",
          "name": "subscriptionId",
          "type": "uint64"
        }
      ],
      "stateMutability": "nonpayable",
      "type": "constructor"
    },
    {
      "inputs": [
        {
          "internalType": "address",
          "name": "have",
          "type": "address"
        },
        {
          "internalType": "address",
          "name": "want",
          "type": "address"
        }
      ],
      "name": "OnlyCoordinatorCanFulfill",
      "type": "error"
    },
    {
      "anonymous": false,
      "inputs": [
        {
          "indexed": true,
          "internalType": "address",
          "name": "owner",
          "type": "address"
        },
        {
          "indexed": true,
          "internalType": "address",
          "name": "approved",
          "type": "address"
        },
        {
          "indexed": true,
          "internalType": "uint256",
          "name": "tokenId",
          "type": "uint256"
        }
      ],
      "name": "Approval",
      "type": "event"
    },
    {
      "anonymous": false,
      "inputs": [
        {
          "indexed": true,
          "internalType": "address",
          "name": "owner",
          "type": "address"
        },
        {
          "indexed": true,
          "internalType": "address",
          "name": "operator",
          "type": "address"
        },
        {
          "indexed": false,
          "internalType": "bool",
          "name": "approved",
          "type": "bool"
        }
      ],
      "name": "ApprovalForAll",
      "type": "event"
    },
    {
      "anonymous": false,
      "inputs": [
        {
          "indexed": true,
          "internalType": "uint256",
          "name": "tokenId",
          "type": "uint256"
        },
        {
          "indexed": false,
          "internalType": "uint256",
          "name": "seed",
          "type": "uint256"
        }
      ],
      "name": "SeedUpdated",
      "type": "event"
    },
    {
      "anonymous": false,
      "inputs": [
        {
          "indexed": true,
          "internalType": "address",
          "name": "from",
          "type": "address"
        },
        {
          "indexed": true,
          "internalType": "address",
          "name": "to",
          "type": "address"
        },
        {
          "indexed": true,
          "internalType": "uint256",
          "name": "tokenId",
          "type": "uint256"
        }
      ],
      "name": "Transfer",
      "type": "event"
    },
    {
      "inputs": [
        {
          "internalType": "address",
          "name": "to",
          "type": "address"
        },
        {
          "internalType": "uint256",
          "name": "tokenId",
          "type": "uint256"
        }
      ],
      "name": "approve",
      "outputs": [],
      "stateMutability": "nonpayable",
      "type": "function"
    },
    {
      "inputs": [
        {
          "internalType": "address",
          "name": "owner",
          "type": "address"
        }
      ],
      "name": "balanceOf",
      "outputs": [
        {
          "internalType": "uint256",
          "name": "",
          "type": "uint256"
        }
      ],
      "stateMutability": "view",
      "type": "function"
    },
    {
      "inputs": [
        {
          "internalType": "uint256",
          "name": "tokenId",
          "type": "uint256"
        }
      ],
      "name": "getApproved",
      "outputs": [
        {
          "internalType": "address",
          "name": "",
          "type": "address"
        }
      ],
      "stateMutability": "view",
      "type": "function"
    },
    {
      "inputs": [
        {
          "internalType": "uint256",
          "name": "_tokenId",
          "type": "uint256"
        }
      ],
      "name": "getMetaData",
      "outputs": [
        {
          "internalType": "string",
          "name": "",
          "type": "string"
        }
      ],
      "stateMutability": "view",
      "type": "function"
    },
    {
      "inputs": [
        {
          "internalType": "address",
          "name": "_address",
          "type": "address"
        }
      ],
      "name": "getTokenIdByAddress",
      "outputs": [
        {
          "internalType": "uint256",
          "name": "",
          "type": "uint256"
        }
      ],
      "stateMutability": "view",
      "type": "function"
    },
    {
      "inputs": [
        {
          "internalType": "address",
          "name": "owner",
          "type": "address"
        },
        {
          "internalType": "address",
          "name": "operator",
          "type": "address"
        }
      ],
      "name": "isApprovedForAll",
      "outputs": [
        {
          "internalType": "bool",
          "name": "",
          "type": "bool"
        }
      ],
      "stateMutability": "view",
      "type": "function"
    },
    {
      "inputs": [],
      "name": "mint",
      "outputs": [],
      "stateMutability": "nonpayable",
      "type": "function"
    },
    {
      "inputs": [],
      "name": "name",
      "outputs": [
        {
          "internalType": "string",
          "name": "",
          "type": "string"
        }
      ],
      "stateMutability": "view",
      "type": "function"
    },
    {
      "inputs": [
        {
          "internalType": "uint256",
          "name": "tokenId",
          "type": "uint256"
        }
      ],
      "name": "ownerOf",
      "outputs": [
        {
          "internalType": "address",
          "name": "",
          "type": "address"
        }
      ],
      "stateMutability": "view",
      "type": "function"
    },
    {
      "inputs": [
        {
          "internalType": "uint256",
          "name": "requestId",
          "type": "uint256"
        },
        {
          "internalType": "uint256[]",
          "name": "randomWords",
          "type": "uint256[]"
        }
      ],
      "name": "rawFulfillRandomWords",
      "outputs": [],
      "stateMutability": "nonpayable",
      "type": "function"
    },
    {
      "inputs": [
        {
          "internalType": "uint256",
          "name": "",
          "type": "uint256"
        }
      ],
      "name": "requestIdToTokenId",
      "outputs": [
        {
          "internalType": "uint256",
          "name": "",
          "type": "uint256"
        }
      ],
      "stateMutability": "view",
      "type": "function"
    },
    {
      "inputs": [
        {
          "internalType": "uint256",
          "name": "_tokenId",
          "type": "uint256"
        }
      ],
      "name": "requestRandomness",
      "outputs": [],
      "stateMutability": "nonpayable",
      "type": "function"
    },
    {
      "inputs": [
        {
          "internalType": "address",
          "name": "from",
          "type": "address"
        },
        {
          "internalType": "address",
          "name": "to",
          "type": "address"
        },
        {
          "internalType": "uint256",
          "name": "tokenId",
          "type": "uint256"
        }
      ],
      "name": "safeTransferFrom",
      "outputs": [],
      "stateMutability": "nonpayable",
      "type": "function"
    },
    {
      "inputs": [
        {
          "internalType": "address",
          "name": "from",
          "type": "address"
        },
        {
          "internalType": "address",
          "name": "to",
          "type": "address"
        },
        {
          "internalType": "uint256",
          "name": "tokenId",
          "type": "uint256"
        },
        {
          "internalType": "bytes",
          "name": "data",
          "type": "bytes"
        }
      ],
      "name": "safeTransferFrom",
      "outputs": [],
      "stateMutability": "nonpayable",
      "type": "function"
    },
    {
      "inputs": [
        {
          "internalType": "uint256",
          "name": "",
          "type": "uint256"
        }
      ],
      "name": "seeds",
      "outputs": [
        {
          "internalType": "uint256",
          "name": "",
          "type": "uint256"
        }
      ],
      "stateMutability": "view",
      "type": "function"
    },
    {
      "inputs": [
        {
          "internalType": "address",
          "name": "operator",
          "type": "address"
        },
        {
          "internalType": "bool",
          "name": "approved",
          "type": "bool"
        }
      ],
      "name": "setApprovalForAll",
      "outputs": [],
      "stateMutability": "nonpayable",
      "type": "function"
    },
    {
      "inputs": [
        {
          "internalType": "bytes4",
          "name": "interfaceId",
          "type": "bytes4"
        }
      ],
      "name": "supportsInterface",
      "outputs": [
        {
          "internalType": "bool",
          "name": "",
          "type": "bool"
        }
      ],
      "stateMutability": "view",
      "type": "function"
    },
    {
      "inputs": [],
      "name": "symbol",
      "outputs": [
        {
          "internalType": "string",
          "name": "",
          "type": "string"
        }
      ],
      "stateMutability": "view",
      "type": "function"
    },
    {
      "inputs": [
        {
          "internalType": "uint256",
          "name": "tokenId",
          "type": "uint256"
        }
      ],
      "name": "tokenURI",
      "outputs": [
        {
          "internalType": "string",
          "name": "",
          "type": "string"
        }
      ],
      "stateMutability": "view",
      "type": "function"
    },
    {
      "inputs": [
        {
          "internalType": "address",
          "name": "from",
          "type": "address"
        },
        {
          "internalType": "address",
          "name": "to",
          "type": "address"
        },
        {
          "internalType": "uint256",
          "name": "tokenId",
          "type": "uint256"
        }
      ],
      "name": "transferFrom",
      "outputs": [],
      "stateMutability": "nonpayable",
      "type": "function"
    }
  ],
  "bytecode": "0x60a0604052737a1bac17ccc5b313516c5e16fb24f7659aa5ebed600760006101000a81548173ffffffffffffffffffffffffffffffffffffffff021916908373ffffffffffffffffffffffffffffffffffffffff1602179055507f4b09e658ed251bcafeebbc69400383d49f344ace09b9576fe248bb02c003fe9f60001b600855619c40600960006101000a81548163ffffffff021916908363ffffffff1602179055506003600960046101000a81548161ffff021916908361ffff1602179055506001600960066101000a81548163ffffffff021916908363ffffffff160217905550348015620000f057600080fd5b5060405162003a6138038062003a618339818101604052810190620001169190620002dd565b600760009054906101000a900473ffffffffffffffffffffffffffffffffffffffff166040518060400160405280601081526020017f4c696e6b3a4265636f6d6548756d616e000000000000000000000000000000008152506040518060400160405280600381526020017f4c424800000000000000000000000000000000000000000000000000000000008152508160009081620001b6919062000589565b508060019081620001c8919062000589565b5050508073ffffffffffffffffffffffffffffffffffffffff1660808173ffffffffffffffffffffffffffffffffffffffff168152505050600760009054906101000a900473ffffffffffffffffffffffffffffffffffffffff16600660086101000a81548173ffffffffffffffffffffffffffffffffffffffff021916908373ffffffffffffffffffffffffffffffffffffffff16021790555080600660006101000a81548167ffffffffffffffff021916908367ffffffffffffffff1602179055505062000670565b600080fd5b600067ffffffffffffffff82169050919050565b620002b78162000298565b8114620002c357600080fd5b50565b600081519050620002d781620002ac565b92915050565b600060208284031215620002f657620002f562000293565b5b60006200030684828501620002c6565b91505092915050565b600081519050919050565b7f4e487b7100000000000000000000000000000000000000000000000000000000600052604160045260246000fd5b7f4e487b7100000000000000000000000000000000000000000000000000000000600052602260045260246000fd5b600060028204905060018216806200039157607f821691505b602082108103620003a757620003a662000349565b5b50919050565b60008190508160005260206000209050919050565b60006020601f8301049050919050565b600082821b905092915050565b600060088302620004117fffffffffffffffffffffffffffffffffffffffffffffffffffffffffffffffff82620003d2565b6200041d8683620003d2565b95508019841693508086168417925050509392505050565b6000819050919050565b6000819050919050565b60006200046a620004646200045e8462000435565b6200043f565b62000435565b9050919050565b6000819050919050565b620004868362000449565b6200049e620004958262000471565b848454620003df565b825550505050565b600090565b620004b5620004a6565b620004c28184846200047b565b505050565b5b81811015620004ea57620004de600082620004ab565b600181019050620004c8565b5050565b601f82111562000539576200050381620003ad565b6200050e84620003c2565b810160208510156200051e578190505b620005366200052d85620003c2565b830182620004c7565b50505b505050565b600082821c905092915050565b60006200055e600019846008026200053e565b1980831691505092915050565b60006200057983836200054b565b9150826002028217905092915050565b62000594826200030f565b67ffffffffffffffff811115620005b057620005af6200031a565b5b620005bc825462000378565b620005c9828285620004ee565b600060209050601f831160018114620006015760008415620005ec578287015190505b620005f885826200056b565b86555062000668565b601f1984166200061186620003ad565b60005b828110156200063b5784890151825560018201915060208501945060208101905062000614565b868310156200065b578489015162000657601f8916826200054b565b8355505b6001600288020188555050505b505050505050565b6080516133ce6200069360003960008181610720015261077401526133ce6000f3fe608060405234801561001057600080fd5b506004361061012c5760003560e01c80636352211e116100ad578063a22cb46511610071578063a22cb46514610353578063b88d4fde1461036f578063c87b56dd1461038b578063e985e9c5146103bb578063f0503e80146103eb5761012c565b80636352211e1461028957806370a08231146102b95780637363ae1f146102e95780638cbab7e41461030557806395d89b41146103355761012c565b80631249c58b116100f45780631249c58b146101fb5780631fe543e31461020557806323b872dd1461022157806342842e0e1461023d57806361eba552146102595761012c565b806301ffc9a71461013157806306fdde03146101615780630750b1631461017f578063081812fc146101af578063095ea7b3146101df575b600080fd5b61014b60048036038101906101469190611eb1565b61041b565b6040516101589190611ef9565b60405180910390f35b6101696104fd565b6040516101769190611fa4565b60405180910390f35b61019960048036038101906101949190611ffc565b61058f565b6040516101a69190612038565b60405180910390f35b6101c960048036038101906101c49190611ffc565b6105a7565b6040516101d69190612094565b60405180910390f35b6101f960048036038101906101f491906120db565b6105ed565b005b610203610704565b005b61021f600480360381019061021a9190612263565b61071e565b005b61023b600480360381019061023691906122bf565b6107de565b005b610257600480360381019061025291906122bf565b61083e565b005b610273600480360381019061026e9190611ffc565b61085e565b6040516102809190611fa4565b60405180910390f35b6102a3600480360381019061029e9190611ffc565b6109ae565b6040516102b09190612094565b60405180910390f35b6102d360048036038101906102ce9190612312565b610a34565b6040516102e09190612038565b60405180910390f35b61030360048036038101906102fe9190611ffc565b610aeb565b005b61031f600480360381019061031a9190612312565b610c73565b60405161032c9190612038565b60405180910390f35b61033d610ca6565b60405161034a9190611fa4565b60405180910390f35b61036d6004803603810190610368919061236b565b610d38565b005b61038960048036038101906103849190612460565b610d4e565b005b6103a560048036038101906103a09190611ffc565b610db0565b6040516103b29190611fa4565b60405180910390f35b6103d560048036038101906103d091906124e3565b610de9565b6040516103e29190611ef9565b60405180910390f35b61040560048036038101906104009190611ffc565b610e7d565b6040516104129190612038565b60405180910390f35b60007f80ac58cd000000000000000000000000000000000000000000000000000000007bffffffffffffffffffffffffffffffffffffffffffffffffffffffff1916827bffffffffffffffffffffffffffffffffffffffffffffffffffffffff191614806104e657507f5b5e139f000000000000000000000000000000000000000000000000000000007bffffffffffffffffffffffffffffffffffffffffffffffffffffffff1916827bffffffffffffffffffffffffffffffffffffffffffffffffffffffff1916145b806104f657506104f582610e95565b5b9050919050565b60606000805461050c90612552565b80601f016020809104026020016040519081016040528092919081815260200182805461053890612552565b80156105855780601f1061055a57610100808354040283529160200191610585565b820191906000526020600020905b81548152906001019060200180831161056857829003601f168201915b5050505050905090565b600a6020528060005260406000206000915090505481565b60006105b282610eff565b6004600083815260200190815260200160002060009054906101000a900473ffffffffffffffffffffffffffffffffffffffff169050919050565b60006105f8826109ae565b90508073ffffffffffffffffffffffffffffffffffffffff168373ffffffffffffffffffffffffffffffffffffffff1603610668576040517f08c379a000000000000000000000000000000000000000000000000000000000815260040161065f906125f5565b60405180910390fd5b8073ffffffffffffffffffffffffffffffffffffffff16610687610f4a565b73ffffffffffffffffffffffffffffffffffffffff1614806106b657506106b5816106b0610f4a565b610de9565b5b6106f5576040517f08c379a00000000000000000000000000000000000000000000000000000000081526004016106ec90612687565b60405180910390fd5b6106ff8383610f52565b505050565b600061070f33610c73565b905061071b338261100b565b50565b7f000000000000000000000000000000000000000000000000000000000000000073ffffffffffffffffffffffffffffffffffffffff163373ffffffffffffffffffffffffffffffffffffffff16146107d057337f00000000000000000000000000000000000000000000000000000000000000006040517f1cf993f40000000000000000000000000000000000000000000000000000000081526004016107c79291906126a7565b60405180910390fd5b6107da8282611228565b5050565b6107ef6107e9610f4a565b826112b6565b61082e576040517f08c379a000000000000000000000000000000000000000000000000000000000815260040161082590612742565b60405180910390fd5b61083983838361134b565b505050565b61085983838360405180602001604052806000815250610d4e565b505050565b606061086982611644565b6108a8576040517f08c379a000000000000000000000000000000000000000000000000000000000815260040161089f906127ae565b60405180910390fd5b60006040518060400160405280601081526020017f4c696e6b3a4265636f6d6548756d616e00000000000000000000000000000000815250905060006040518060400160405280601c81526020017f54686973206973204c696e6b3a4265636f6d6548756d616e204e465400000000815250905060006040518060400160405280602081526020017f68747470733a2f2f706c616365686f6c642e6a702f353030783530302e706e6781525090506000604051806060016040528060348152602001613325603491399050838383836109808a611685565b6040516020016109949594939291906129d2565b604051602081830303815290604052945050505050919050565b6000806109ba83611753565b9050600073ffffffffffffffffffffffffffffffffffffffff168173ffffffffffffffffffffffffffffffffffffffff1603610a2b576040517f08c379a0000000000000000000000000000000000000000000000000000000008152600401610a2290612aab565b60405180910390fd5b80915050919050565b60008073ffffffffffffffffffffffffffffffffffffffff168273ffffffffffffffffffffffffffffffffffffffff1603610aa4576040517f08c379a0000000000000000000000000000000000000000000000000000000008152600401610a9b90612b3d565b60405180910390fd5b600360008373ffffffffffffffffffffffffffffffffffffffff1673ffffffffffffffffffffffffffffffffffffffff168152602001908152602001600020549050919050565b3373ffffffffffffffffffffffffffffffffffffffff16610b0b826109ae565b73ffffffffffffffffffffffffffffffffffffffff1614610b61576040517f08c379a0000000000000000000000000000000000000000000000000000000008152600401610b5890612ba9565b60405180910390fd5b6000600660089054906101000a900473ffffffffffffffffffffffffffffffffffffffff1673ffffffffffffffffffffffffffffffffffffffff16635d3b1d30600854600660009054906101000a900467ffffffffffffffff16600960049054906101000a900461ffff16600960009054906101000a900463ffffffff16600960069054906101000a900463ffffffff166040518663ffffffff1660e01b8152600401610c12959493929190612c41565b6020604051808303816000875af1158015610c31573d6000803e3d6000fd5b505050506040513d601f19601f82011682018060405250810190610c559190612ca9565b905081600a6000838152602001908152602001600020819055505050565b600081604051602001610c869190612d1e565b6040516020818303038152906040528051906020012060001c9050919050565b606060018054610cb590612552565b80601f0160208091040260200160405190810160405280929190818152602001828054610ce190612552565b8015610d2e5780601f10610d0357610100808354040283529160200191610d2e565b820191906000526020600020905b815481529060010190602001808311610d1157829003601f168201915b5050505050905090565b610d4a610d43610f4a565b8383611790565b5050565b610d5f610d59610f4a565b836112b6565b610d9e576040517f08c379a0000000000000000000000000000000000000000000000000000000008152600401610d9590612742565b60405180910390fd5b610daa848484846118fc565b50505050565b6060610dc3610dbe8361085e565b611958565b604051602001610dd39190612d85565b6040516020818303038152906040529050919050565b6000600560008473ffffffffffffffffffffffffffffffffffffffff1673ffffffffffffffffffffffffffffffffffffffff16815260200190815260200160002060008373ffffffffffffffffffffffffffffffffffffffff1673ffffffffffffffffffffffffffffffffffffffff16815260200190815260200160002060009054906101000a900460ff16905092915050565b600b6020528060005260406000206000915090505481565b60007f01ffc9a7000000000000000000000000000000000000000000000000000000007bffffffffffffffffffffffffffffffffffffffffffffffffffffffff1916827bffffffffffffffffffffffffffffffffffffffffffffffffffffffff1916149050919050565b610f0881611644565b610f47576040517f08c379a0000000000000000000000000000000000000000000000000000000008152600401610f3e90612aab565b60405180910390fd5b50565b600033905090565b816004600083815260200190815260200160002060006101000a81548173ffffffffffffffffffffffffffffffffffffffff021916908373ffffffffffffffffffffffffffffffffffffffff160217905550808273ffffffffffffffffffffffffffffffffffffffff16610fc5836109ae565b73ffffffffffffffffffffffffffffffffffffffff167f8c5be1e5ebec7d5bd14f71427d1e84f3dd0314c0f7b2291e5b200ac8c7c3b92560405160405180910390a45050565b600073ffffffffffffffffffffffffffffffffffffffff168273ffffffffffffffffffffffffffffffffffffffff160361107a576040517f08c379a000000000000000000000000000000000000000000000000000000000815260040161107190612df3565b60405180910390fd5b61108381611644565b156110c3576040517f08c379a00000000000000000000000000000000000000000000000000000000081526004016110ba90612e5f565b60405180910390fd5b6110d1600083836001611abb565b6110da81611644565b1561111a576040517f08c379a000000000000000000000000000000000000000000000000000000000815260040161111190612e5f565b60405180910390fd5b6001600360008473ffffffffffffffffffffffffffffffffffffffff1673ffffffffffffffffffffffffffffffffffffffff16815260200190815260200160002060008282540192505081905550816002600083815260200190815260200160002060006101000a81548173ffffffffffffffffffffffffffffffffffffffff021916908373ffffffffffffffffffffffffffffffffffffffff160217905550808273ffffffffffffffffffffffffffffffffffffffff16600073ffffffffffffffffffffffffffffffffffffffff167fddf252ad1be2c89b69c2b068fc378daa952ba7f163c4a11628f55a4df523b3ef60405160405180910390a4611224600083836001611b3c565b5050565b6000600a600084815260200190815260200160002054905060008260008151811061125657611255612e7f565b5b6020026020010151905080600b600084815260200190815260200160002081905550817faabfe5e8bccf1a1352f72b557ce580211305c37f88d5783ae467a1ba5e0761e0826040516112a89190612038565b60405180910390a250505050565b6000806112c2836109ae565b90508073ffffffffffffffffffffffffffffffffffffffff168473ffffffffffffffffffffffffffffffffffffffff16148061130457506113038185610de9565b5b8061134257508373ffffffffffffffffffffffffffffffffffffffff1661132a846105a7565b73ffffffffffffffffffffffffffffffffffffffff16145b91505092915050565b8273ffffffffffffffffffffffffffffffffffffffff1661136b826109ae565b73ffffffffffffffffffffffffffffffffffffffff16146113c1576040517f08c379a00000000000000000000000000000000000000000000000000000000081526004016113b890612f20565b60405180910390fd5b600073ffffffffffffffffffffffffffffffffffffffff168273ffffffffffffffffffffffffffffffffffffffff1603611430576040517f08c379a000000000000000000000000000000000000000000000000000000000815260040161142790612fb2565b60405180910390fd5b61143d8383836001611abb565b8273ffffffffffffffffffffffffffffffffffffffff1661145d826109ae565b73ffffffffffffffffffffffffffffffffffffffff16146114b3576040517f08c379a00000000000000000000000000000000000000000000000000000000081526004016114aa90612f20565b60405180910390fd5b6004600082815260200190815260200160002060006101000a81549073ffffffffffffffffffffffffffffffffffffffff02191690556001600360008573ffffffffffffffffffffffffffffffffffffffff1673ffffffffffffffffffffffffffffffffffffffff168152602001908152602001600020600082825403925050819055506001600360008473ffffffffffffffffffffffffffffffffffffffff1673ffffffffffffffffffffffffffffffffffffffff16815260200190815260200160002060008282540192505081905550816002600083815260200190815260200160002060006101000a81548173ffffffffffffffffffffffffffffffffffffffff021916908373ffffffffffffffffffffffffffffffffffffffff160217905550808273ffffffffffffffffffffffffffffffffffffffff168473ffffffffffffffffffffffffffffffffffffffff167fddf252ad1be2c89b69c2b068fc378daa952ba7f163c4a11628f55a4df523b3ef60405160405180910390a461163f8383836001611b3c565b505050565b60008073ffffffffffffffffffffffffffffffffffffffff1661166683611753565b73ffffffffffffffffffffffffffffffffffffffff1614159050919050565b60606000600161169484611b42565b01905060008167ffffffffffffffff8111156116b3576116b2612120565b5b6040519080825280601f01601f1916602001820160405280156116e55781602001600182028036833780820191505090505b509050600082602001820190505b600115611748578080600190039150507f3031323334353637383961626364656600000000000000000000000000000000600a86061a8153600a858161173c5761173b612fd2565b5b049450600085036116f3575b819350505050919050565b60006002600083815260200190815260200160002060009054906101000a900473ffffffffffffffffffffffffffffffffffffffff169050919050565b8173ffffffffffffffffffffffffffffffffffffffff168373ffffffffffffffffffffffffffffffffffffffff16036117fe576040517f08c379a00000000000000000000000000000000000000000000000000000000081526004016117f59061304d565b60405180910390fd5b80600560008573ffffffffffffffffffffffffffffffffffffffff1673ffffffffffffffffffffffffffffffffffffffff16815260200190815260200160002060008473ffffffffffffffffffffffffffffffffffffffff1673ffffffffffffffffffffffffffffffffffffffff16815260200190815260200160002060006101000a81548160ff0219169083151502179055508173ffffffffffffffffffffffffffffffffffffffff168373ffffffffffffffffffffffffffffffffffffffff167f17307eab39ab6107e8899845ad3d59bd9653f200f220920489ca2b5937696c31836040516118ef9190611ef9565b60405180910390a3505050565b61190784848461134b565b61191384848484611c95565b611952576040517f08c379a0000000000000000000000000000000000000000000000000000000008152600401611949906130df565b60405180910390fd5b50505050565b6060600082510361197a57604051806020016040528060008152509050611ab6565b600060405180606001604052806040815260200161335960409139905060006003600285516119a9919061312e565b6119b39190613162565b60046119bf9190613193565b67ffffffffffffffff8111156119d8576119d7612120565b5b6040519080825280601f01601f191660200182016040528015611a0a5781602001600182028036833780820191505090505b509050600182016020820185865187015b80821015611a76576003820191508151603f8160121c168501518453600184019350603f81600c1c168501518453600184019350603f8160061c168501518453600184019350603f8116850151845360018401935050611a1b565b5050600386510660018114611a925760028114611aa557611aad565b603d6001830353603d6002830353611aad565b603d60018303535b50505080925050505b919050565b600073ffffffffffffffffffffffffffffffffffffffff168473ffffffffffffffffffffffffffffffffffffffff1614611b2a576040517f08c379a0000000000000000000000000000000000000000000000000000000008152600401611b2190613221565b60405180910390fd5b611b3684848484611e1c565b50505050565b50505050565b600080600090507a184f03e93ff9f4daa797ed6e38ed64bf6a1f0100000000000000008310611ba0577a184f03e93ff9f4daa797ed6e38ed64bf6a1f0100000000000000008381611b9657611b95612fd2565b5b0492506040810190505b6d04ee2d6d415b85acef81000000008310611bdd576d04ee2d6d415b85acef81000000008381611bd357611bd2612fd2565b5b0492506020810190505b662386f26fc100008310611c0c57662386f26fc100008381611c0257611c01612fd2565b5b0492506010810190505b6305f5e1008310611c35576305f5e1008381611c2b57611c2a612fd2565b5b0492506008810190505b6127108310611c5a576127108381611c5057611c4f612fd2565b5b0492506004810190505b60648310611c7d5760648381611c7357611c72612fd2565b5b0492506002810190505b600a8310611c8c576001810190505b80915050919050565b6000611cb68473ffffffffffffffffffffffffffffffffffffffff16611e22565b15611e0f578373ffffffffffffffffffffffffffffffffffffffff1663150b7a02611cdf610f4a565b8786866040518563ffffffff1660e01b8152600401611d019493929190613296565b6020604051808303816000875af1925050508015611d3d57506040513d601f19601f82011682018060405250810190611d3a91906132f7565b60015b611dbf573d8060008114611d6d576040519150601f19603f3d011682016040523d82523d6000602084013e611d72565b606091505b506000815103611db7576040517f08c379a0000000000000000000000000000000000000000000000000000000008152600401611dae906130df565b60405180910390fd5b805181602001fd5b63150b7a0260e01b7bffffffffffffffffffffffffffffffffffffffffffffffffffffffff1916817bffffffffffffffffffffffffffffffffffffffffffffffffffffffff191614915050611e14565b600190505b949350505050565b50505050565b6000808273ffffffffffffffffffffffffffffffffffffffff163b119050919050565b6000604051905090565b600080fd5b600080fd5b60007fffffffff0000000000000000000000000000000000000000000000000000000082169050919050565b611e8e81611e59565b8114611e9957600080fd5b50565b600081359050611eab81611e85565b92915050565b600060208284031215611ec757611ec6611e4f565b5b6000611ed584828501611e9c565b91505092915050565b60008115159050919050565b611ef381611ede565b82525050565b6000602082019050611f0e6000830184611eea565b92915050565b600081519050919050565b600082825260208201905092915050565b60005b83811015611f4e578082015181840152602081019050611f33565b60008484015250505050565b6000601f19601f8301169050919050565b6000611f7682611f14565b611f808185611f1f565b9350611f90818560208601611f30565b611f9981611f5a565b840191505092915050565b60006020820190508181036000830152611fbe8184611f6b565b905092915050565b6000819050919050565b611fd981611fc6565b8114611fe457600080fd5b50565b600081359050611ff681611fd0565b92915050565b60006020828403121561201257612011611e4f565b5b600061202084828501611fe7565b91505092915050565b61203281611fc6565b82525050565b600060208201905061204d6000830184612029565b92915050565b600073ffffffffffffffffffffffffffffffffffffffff82169050919050565b600061207e82612053565b9050919050565b61208e81612073565b82525050565b60006020820190506120a96000830184612085565b92915050565b6120b881612073565b81146120c357600080fd5b50565b6000813590506120d5816120af565b92915050565b600080604083850312156120f2576120f1611e4f565b5b6000612100858286016120c6565b925050602061211185828601611fe7565b9150509250929050565b600080fd5b7f4e487b7100000000000000000000000000000000000000000000000000000000600052604160045260246000fd5b61215882611f5a565b810181811067ffffffffffffffff8211171561217757612176612120565b5b80604052505050565b600061218a611e45565b9050612196828261214f565b919050565b600067ffffffffffffffff8211156121b6576121b5612120565b5b602082029050602081019050919050565b600080fd5b60006121df6121da8461219b565b612180565b90508083825260208201905060208402830185811115612202576122016121c7565b5b835b8181101561222b57806122178882611fe7565b845260208401935050602081019050612204565b5050509392505050565b600082601f83011261224a5761224961211b565b5b813561225a8482602086016121cc565b91505092915050565b6000806040838503121561227a57612279611e4f565b5b600061228885828601611fe7565b925050602083013567ffffffffffffffff8111156122a9576122a8611e54565b5b6122b585828601612235565b9150509250929050565b6000806000606084860312156122d8576122d7611e4f565b5b60006122e6868287016120c6565b93505060206122f7868287016120c6565b925050604061230886828701611fe7565b9150509250925092565b60006020828403121561232857612327611e4f565b5b6000612336848285016120c6565b91505092915050565b61234881611ede565b811461235357600080fd5b50565b6000813590506123658161233f565b92915050565b6000806040838503121561238257612381611e4f565b5b6000612390858286016120c6565b92505060206123a185828601612356565b9150509250929050565b600080fd5b600067ffffffffffffffff8211156123cb576123ca612120565b5b6123d482611f5a565b9050602081019050919050565b82818337600083830152505050565b60006124036123fe846123b0565b612180565b90508281526020810184848401111561241f5761241e6123ab565b5b61242a8482856123e1565b509392505050565b600082601f8301126124475761244661211b565b5b81356124578482602086016123f0565b91505092915050565b6000806000806080858703121561247a57612479611e4f565b5b6000612488878288016120c6565b9450506020612499878288016120c6565b93505060406124aa87828801611fe7565b925050606085013567ffffffffffffffff8111156124cb576124ca611e54565b5b6124d787828801612432565b91505092959194509250565b600080604083850312156124fa576124f9611e4f565b5b6000612508858286016120c6565b9250506020612519858286016120c6565b9150509250929050565b7f4e487b7100000000000000000000000000000000000000000000000000000000600052602260045260246000fd5b6000600282049050600182168061256a57607f821691505b60208210810361257d5761257c612523565b5b50919050565b7f4552433732313a20617070726f76616c20746f2063757272656e74206f776e6560008201527f7200000000000000000000000000000000000000000000000000000000000000602082015250565b60006125df602183611f1f565b91506125ea82612583565b604082019050919050565b6000602082019050818103600083015261260e816125d2565b9050919050565b7f4552433732313a20617070726f76652063616c6c6572206973206e6f7420746f60008201527f6b656e206f776e6572206f7220617070726f76656420666f7220616c6c000000602082015250565b6000612671603d83611f1f565b915061267c82612615565b604082019050919050565b600060208201905081810360008301526126a081612664565b9050919050565b60006040820190506126bc6000830185612085565b6126c96020830184612085565b9392505050565b7f4552433732313a2063616c6c6572206973206e6f7420746f6b656e206f776e6560008201527f72206f7220617070726f76656400000000000000000000000000000000000000602082015250565b600061272c602d83611f1f565b9150612737826126d0565b604082019050919050565b6000602082019050818103600083015261275b8161271f565b9050919050565b7f717565727920666f72206e6f6e6578697374656e7420746f6b656e0000000000600082015250565b6000612798601b83611f1f565b91506127a382612762565b602082019050919050565b600060208201905081810360008301526127c78161278b565b9050919050565b600081905092915050565b7f7b226e616d65223a220000000000000000000000000000000000000000000000600082015250565b600061280f6009836127ce565b915061281a826127d9565b600982019050919050565b600061283082611f14565b61283a81856127ce565b935061284a818560208601611f30565b80840191505092915050565b7f222c226465736372697074696f6e223a22000000000000000000000000000000600082015250565b600061288c6011836127ce565b915061289782612856565b601182019050919050565b7f222c22696d616765223a22000000000000000000000000000000000000000000600082015250565b60006128d8600b836127ce565b91506128e3826128a2565b600b82019050919050565b7f222c22616e696d6174696f6e5f75726c223a2200000000000000000000000000600082015250565b60006129246013836127ce565b915061292f826128ee565b601382019050919050565b7f3f69643d00000000000000000000000000000000000000000000000000000000600082015250565b60006129706004836127ce565b915061297b8261293a565b600482019050919050565b7f227d000000000000000000000000000000000000000000000000000000000000600082015250565b60006129bc6002836127ce565b91506129c782612986565b600282019050919050565b60006129dd82612802565b91506129e98288612825565b91506129f48261287f565b9150612a008287612825565b9150612a0b826128cb565b9150612a178286612825565b9150612a2282612917565b9150612a2e8285612825565b9150612a3982612963565b9150612a458284612825565b9150612a50826129af565b91508190509695505050505050565b7f4552433732313a20696e76616c696420746f6b656e2049440000000000000000600082015250565b6000612a95601883611f1f565b9150612aa082612a5f565b602082019050919050565b60006020820190508181036000830152612ac481612a88565b9050919050565b7f4552433732313a2061646472657373207a65726f206973206e6f74206120766160008201527f6c6964206f776e65720000000000000000000000000000000000000000000000602082015250565b6000612b27602983611f1f565b9150612b3282612acb565b604082019050919050565b60006020820190508181036000830152612b5681612b1a565b9050919050565b7f6e6f7420746f6b656e206f776e65720000000000000000000000000000000000600082015250565b6000612b93600f83611f1f565b9150612b9e82612b5d565b602082019050919050565b60006020820190508181036000830152612bc281612b86565b9050919050565b6000819050919050565b612bdc81612bc9565b82525050565b600067ffffffffffffffff82169050919050565b612bff81612be2565b82525050565b600061ffff82169050919050565b612c1c81612c05565b82525050565b600063ffffffff82169050919050565b612c3b81612c22565b82525050565b600060a082019050612c566000830188612bd3565b612c636020830187612bf6565b612c706040830186612c13565b612c7d6060830185612c32565b612c8a6080830184612c32565b9695505050505050565b600081519050612ca381611fd0565b92915050565b600060208284031215612cbf57612cbe611e4f565b5b6000612ccd84828501612c94565b91505092915050565b60008160601b9050919050565b6000612cee82612cd6565b9050919050565b6000612d0082612ce3565b9050919050565b612d18612d1382612073565b612cf5565b82525050565b6000612d2a8284612d07565b60148201915081905092915050565b7f646174613a6170706c69636174696f6e2f6a736f6e3b6261736536342c000000600082015250565b6000612d6f601d836127ce565b9150612d7a82612d39565b601d82019050919050565b6000612d9082612d62565b9150612d9c8284612825565b915081905092915050565b7f4552433732313a206d696e7420746f20746865207a65726f2061646472657373600082015250565b6000612ddd602083611f1f565b9150612de882612da7565b602082019050919050565b60006020820190508181036000830152612e0c81612dd0565b9050919050565b7f4552433732313a20746f6b656e20616c7265616479206d696e74656400000000600082015250565b6000612e49601c83611f1f565b9150612e5482612e13565b602082019050919050565b60006020820190508181036000830152612e7881612e3c565b9050919050565b7f4e487b7100000000000000000000000000000000000000000000000000000000600052603260045260246000fd5b7f4552433732313a207472616e736665722066726f6d20696e636f72726563742060008201527f6f776e6572000000000000000000000000000000000000000000000000000000602082015250565b6000612f0a602583611f1f565b9150612f1582612eae565b604082019050919050565b60006020820190508181036000830152612f3981612efd565b9050919050565b7f4552433732313a207472616e7366657220746f20746865207a65726f2061646460008201527f7265737300000000000000000000000000000000000000000000000000000000602082015250565b6000612f9c602483611f1f565b9150612fa782612f40565b604082019050919050565b60006020820190508181036000830152612fcb81612f8f565b9050919050565b7f4e487b7100000000000000000000000000000000000000000000000000000000600052601260045260246000fd5b7f4552433732313a20617070726f766520746f2063616c6c657200000000000000600082015250565b6000613037601983611f1f565b915061304282613001565b602082019050919050565b600060208201905081810360008301526130668161302a565b9050919050565b7f4552433732313a207472616e7366657220746f206e6f6e20455243373231526560008201527f63656976657220696d706c656d656e7465720000000000000000000000000000602082015250565b60006130c9603283611f1f565b91506130d48261306d565b604082019050919050565b600060208201905081810360008301526130f8816130bc565b9050919050565b7f4e487b7100000000000000000000000000000000000000000000000000000000600052601160045260246000fd5b600061313982611fc6565b915061314483611fc6565b925082820190508082111561315c5761315b6130ff565b5b92915050565b600061316d82611fc6565b915061317883611fc6565b92508261318857613187612fd2565b5b828204905092915050565b600061319e82611fc6565b91506131a983611fc6565b92508282026131b781611fc6565b915082820484148315176131ce576131cd6130ff565b5b5092915050565b7f6e6f6e207472616e7366657261626c6500000000000000000000000000000000600082015250565b600061320b601083611f1f565b9150613216826131d5565b602082019050919050565b6000602082019050818103600083015261323a816131fe565b9050919050565b600081519050919050565b600082825260208201905092915050565b600061326882613241565b613272818561324c565b9350613282818560208601611f30565b61328b81611f5a565b840191505092915050565b60006080820190506132ab6000830187612085565b6132b86020830186612085565b6132c56040830185612029565b81810360608301526132d7818461325d565b905095945050505050565b6000815190506132f181611e85565b92915050565b60006020828403121561330d5761330c611e4f565b5b600061331b848285016132e2565b9150509291505056fe68747470733a2f2f6c696e6b2d6265636f6d652d68756d616e2e76657263656c2e6170702f67616d652f696e6465782e68746d6c4142434445464748494a4b4c4d4e4f505152535455565758595a6162636465666768696a6b6c6d6e6f707172737475767778797a303132333435363738392b2fa2646970667358221220f0dedcb94b901aeee6ee8439d7185f40968ac268c90d831660c63caed9cbb65964736f6c63430008120033",
  "linkReferences": {},
  "deployedLinkReferences": {}
}