{
  "_format": "hh-sol-artifact-1",
  "contractName": "LinkBecomeHuman",
  "sourceName": "contracts/LinkBecomeHuman.sol",
  "abi": [
    {
      "inputs": [],
      "stateMutability": "nonpayable",
      "type": "constructor"
    },
    {
      "anonymous": false,
      "inputs": [
        {
          "indexed": true,
          "internalType": "address",
          "name": "owner",
          "type": "address"
        },
        {
          "indexed": true,
          "internalType": "address",
          "name": "approved",
          "type": "address"
        },
        {
          "indexed": true,
          "internalType": "uint256",
          "name": "tokenId",
          "type": "uint256"
        }
      ],
      "name": "Approval",
      "type": "event"
    },
    {
      "anonymous": false,
      "inputs": [
        {
          "indexed": true,
          "internalType": "address",
          "name": "owner",
          "type": "address"
        },
        {
          "indexed": true,
          "internalType": "address",
          "name": "operator",
          "type": "address"
        },
        {
          "indexed": false,
          "internalType": "bool",
          "name": "approved",
          "type": "bool"
        }
      ],
      "name": "ApprovalForAll",
      "type": "event"
    },
    {
      "anonymous": false,
      "inputs": [
        {
          "indexed": true,
          "internalType": "address",
          "name": "from",
          "type": "address"
        },
        {
          "indexed": true,
          "internalType": "address",
          "name": "to",
          "type": "address"
        },
        {
          "indexed": true,
          "internalType": "uint256",
          "name": "tokenId",
          "type": "uint256"
        }
      ],
      "name": "Transfer",
      "type": "event"
    },
    {
      "inputs": [
        {
          "internalType": "address",
          "name": "to",
          "type": "address"
        },
        {
          "internalType": "uint256",
          "name": "tokenId",
          "type": "uint256"
        }
      ],
      "name": "approve",
      "outputs": [],
      "stateMutability": "nonpayable",
      "type": "function"
    },
    {
      "inputs": [
        {
          "internalType": "address",
          "name": "owner",
          "type": "address"
        }
      ],
      "name": "balanceOf",
      "outputs": [
        {
          "internalType": "uint256",
          "name": "",
          "type": "uint256"
        }
      ],
      "stateMutability": "view",
      "type": "function"
    },
    {
      "inputs": [
        {
          "internalType": "uint256",
          "name": "tokenId",
          "type": "uint256"
        }
      ],
      "name": "getApproved",
      "outputs": [
        {
          "internalType": "address",
          "name": "",
          "type": "address"
        }
      ],
      "stateMutability": "view",
      "type": "function"
    },
    {
      "inputs": [
        {
          "internalType": "uint256",
          "name": "_tokenId",
          "type": "uint256"
        }
      ],
      "name": "getMetaData",
      "outputs": [
        {
          "internalType": "string",
          "name": "",
          "type": "string"
        }
      ],
      "stateMutability": "view",
      "type": "function"
    },
    {
      "inputs": [
        {
          "internalType": "address",
          "name": "_address",
          "type": "address"
        }
      ],
      "name": "getTokenIdByAddress",
      "outputs": [
        {
          "internalType": "uint256",
          "name": "",
          "type": "uint256"
        }
      ],
      "stateMutability": "view",
      "type": "function"
    },
    {
      "inputs": [
        {
          "internalType": "address",
          "name": "owner",
          "type": "address"
        },
        {
          "internalType": "address",
          "name": "operator",
          "type": "address"
        }
      ],
      "name": "isApprovedForAll",
      "outputs": [
        {
          "internalType": "bool",
          "name": "",
          "type": "bool"
        }
      ],
      "stateMutability": "view",
      "type": "function"
    },
    {
      "inputs": [],
      "name": "mint",
      "outputs": [],
      "stateMutability": "nonpayable",
      "type": "function"
    },
    {
      "inputs": [],
      "name": "name",
      "outputs": [
        {
          "internalType": "string",
          "name": "",
          "type": "string"
        }
      ],
      "stateMutability": "view",
      "type": "function"
    },
    {
      "inputs": [
        {
          "internalType": "uint256",
          "name": "tokenId",
          "type": "uint256"
        }
      ],
      "name": "ownerOf",
      "outputs": [
        {
          "internalType": "address",
          "name": "",
          "type": "address"
        }
      ],
      "stateMutability": "view",
      "type": "function"
    },
    {
      "inputs": [
        {
          "internalType": "address",
          "name": "from",
          "type": "address"
        },
        {
          "internalType": "address",
          "name": "to",
          "type": "address"
        },
        {
          "internalType": "uint256",
          "name": "tokenId",
          "type": "uint256"
        }
      ],
      "name": "safeTransferFrom",
      "outputs": [],
      "stateMutability": "nonpayable",
      "type": "function"
    },
    {
      "inputs": [
        {
          "internalType": "address",
          "name": "from",
          "type": "address"
        },
        {
          "internalType": "address",
          "name": "to",
          "type": "address"
        },
        {
          "internalType": "uint256",
          "name": "tokenId",
          "type": "uint256"
        },
        {
          "internalType": "bytes",
          "name": "data",
          "type": "bytes"
        }
      ],
      "name": "safeTransferFrom",
      "outputs": [],
      "stateMutability": "nonpayable",
      "type": "function"
    },
    {
      "inputs": [
        {
          "internalType": "address",
          "name": "operator",
          "type": "address"
        },
        {
          "internalType": "bool",
          "name": "approved",
          "type": "bool"
        }
      ],
      "name": "setApprovalForAll",
      "outputs": [],
      "stateMutability": "nonpayable",
      "type": "function"
    },
    {
      "inputs": [
        {
          "internalType": "bytes4",
          "name": "interfaceId",
          "type": "bytes4"
        }
      ],
      "name": "supportsInterface",
      "outputs": [
        {
          "internalType": "bool",
          "name": "",
          "type": "bool"
        }
      ],
      "stateMutability": "view",
      "type": "function"
    },
    {
      "inputs": [],
      "name": "symbol",
      "outputs": [
        {
          "internalType": "string",
          "name": "",
          "type": "string"
        }
      ],
      "stateMutability": "view",
      "type": "function"
    },
    {
      "inputs": [
        {
          "internalType": "uint256",
          "name": "tokenId",
          "type": "uint256"
        }
      ],
      "name": "tokenURI",
      "outputs": [
        {
          "internalType": "string",
          "name": "",
          "type": "string"
        }
      ],
      "stateMutability": "view",
      "type": "function"
    },
    {
      "inputs": [
        {
          "internalType": "address",
          "name": "from",
          "type": "address"
        },
        {
          "internalType": "address",
          "name": "to",
          "type": "address"
        },
        {
          "internalType": "uint256",
          "name": "tokenId",
          "type": "uint256"
        }
      ],
      "name": "transferFrom",
      "outputs": [],
      "stateMutability": "nonpayable",
      "type": "function"
    }
  ],
  "bytecode": "0x60806040523480156200001157600080fd5b506040518060400160405280600f81526020017f4c696e6b4265636f6d6548756d616e00000000000000000000000000000000008152506040518060400160405280600381526020017f4c4248000000000000000000000000000000000000000000000000000000000081525081600090816200008f919062000324565b508060019081620000a1919062000324565b5050506200040b565b600081519050919050565b7f4e487b7100000000000000000000000000000000000000000000000000000000600052604160045260246000fd5b7f4e487b7100000000000000000000000000000000000000000000000000000000600052602260045260246000fd5b600060028204905060018216806200012c57607f821691505b602082108103620001425762000141620000e4565b5b50919050565b60008190508160005260206000209050919050565b60006020601f8301049050919050565b600082821b905092915050565b600060088302620001ac7fffffffffffffffffffffffffffffffffffffffffffffffffffffffffffffffff826200016d565b620001b886836200016d565b95508019841693508086168417925050509392505050565b6000819050919050565b6000819050919050565b600062000205620001ff620001f984620001d0565b620001da565b620001d0565b9050919050565b6000819050919050565b6200022183620001e4565b6200023962000230826200020c565b8484546200017a565b825550505050565b600090565b6200025062000241565b6200025d81848462000216565b505050565b5b8181101562000285576200027960008262000246565b60018101905062000263565b5050565b601f821115620002d4576200029e8162000148565b620002a9846200015d565b81016020851015620002b9578190505b620002d1620002c8856200015d565b83018262000262565b50505b505050565b600082821c905092915050565b6000620002f960001984600802620002d9565b1980831691505092915050565b6000620003148383620002e6565b9150826002028217905092915050565b6200032f82620000aa565b67ffffffffffffffff8111156200034b576200034a620000b5565b5b62000357825462000113565b6200036482828562000289565b600060209050601f8311600181146200039c576000841562000387578287015190505b62000393858262000306565b86555062000403565b601f198416620003ac8662000148565b60005b82811015620003d657848901518255600182019150602085019450602081019050620003af565b86831015620003f65784890151620003f2601f891682620002e6565b8355505b6001600288020188555050505b505050505050565b612c22806200041b6000396000f3fe608060405234801561001057600080fd5b50600436106101005760003560e01c80636352211e11610097578063a22cb46511610066578063a22cb465146102bf578063b88d4fde146102db578063c87b56dd146102f7578063e985e9c51461032757610100565b80636352211e1461021157806370a08231146102415780638cbab7e41461027157806395d89b41146102a157610100565b80631249c58b116100d35780631249c58b1461019f57806323b872dd146101a957806342842e0e146101c557806361eba552146101e157610100565b806301ffc9a71461010557806306fdde0314610135578063081812fc14610153578063095ea7b314610183575b600080fd5b61011f600480360381019061011a9190611a66565b610357565b60405161012c9190611aae565b60405180910390f35b61013d610439565b60405161014a9190611b59565b60405180910390f35b61016d60048036038101906101689190611bb1565b6104cb565b60405161017a9190611c1f565b60405180910390f35b61019d60048036038101906101989190611c66565b610511565b005b6101a7610628565b005b6101c360048036038101906101be9190611ca6565b610642565b005b6101df60048036038101906101da9190611ca6565b6106a2565b005b6101fb60048036038101906101f69190611bb1565b6106c2565b6040516102089190611b59565b60405180910390f35b61022b60048036038101906102269190611bb1565b610812565b6040516102389190611c1f565b60405180910390f35b61025b60048036038101906102569190611cf9565b610898565b6040516102689190611d35565b60405180910390f35b61028b60048036038101906102869190611cf9565b61094f565b6040516102989190611d35565b60405180910390f35b6102a9610982565b6040516102b69190611b59565b60405180910390f35b6102d960048036038101906102d49190611d7c565b610a14565b005b6102f560048036038101906102f09190611ef1565b610a2a565b005b610311600480360381019061030c9190611bb1565b610a8c565b60405161031e9190611b59565b60405180910390f35b610341600480360381019061033c9190611f74565b610ac5565b60405161034e9190611aae565b60405180910390f35b60007f80ac58cd000000000000000000000000000000000000000000000000000000007bffffffffffffffffffffffffffffffffffffffffffffffffffffffff1916827bffffffffffffffffffffffffffffffffffffffffffffffffffffffff1916148061042257507f5b5e139f000000000000000000000000000000000000000000000000000000007bffffffffffffffffffffffffffffffffffffffffffffffffffffffff1916827bffffffffffffffffffffffffffffffffffffffffffffffffffffffff1916145b80610432575061043182610b59565b5b9050919050565b60606000805461044890611fe3565b80601f016020809104026020016040519081016040528092919081815260200182805461047490611fe3565b80156104c15780601f10610496576101008083540402835291602001916104c1565b820191906000526020600020905b8154815290600101906020018083116104a457829003601f168201915b5050505050905090565b60006104d682610bc3565b6004600083815260200190815260200160002060009054906101000a900473ffffffffffffffffffffffffffffffffffffffff169050919050565b600061051c82610812565b90508073ffffffffffffffffffffffffffffffffffffffff168373ffffffffffffffffffffffffffffffffffffffff160361058c576040517f08c379a000000000000000000000000000000000000000000000000000000000815260040161058390612086565b60405180910390fd5b8073ffffffffffffffffffffffffffffffffffffffff166105ab610c0e565b73ffffffffffffffffffffffffffffffffffffffff1614806105da57506105d9816105d4610c0e565b610ac5565b5b610619576040517f08c379a000000000000000000000000000000000000000000000000000000000815260040161061090612118565b60405180910390fd5b6106238383610c16565b505050565b60006106333361094f565b905061063f3382610ccf565b50565b61065361064d610c0e565b82610eec565b610692576040517f08c379a0000000000000000000000000000000000000000000000000000000008152600401610689906121aa565b60405180910390fd5b61069d838383610f81565b505050565b6106bd83838360405180602001604052806000815250610a2a565b505050565b60606106cd8261127a565b61070c576040517f08c379a000000000000000000000000000000000000000000000000000000000815260040161070390612216565b60405180910390fd5b60006040518060400160405280601081526020017f4c696e6b3a4265636f6d6548756d616e00000000000000000000000000000000815250905060006040518060400160405280601c81526020017f54686973206973204c696e6b3a4265636f6d6548756d616e204e465400000000815250905060006040518060400160405280602081526020017f68747470733a2f2f706c616365686f6c642e6a702f353030783530302e706e6781525090506000604051806060016040528060348152602001612b79603491399050838383836107e48a6112bb565b6040516020016107f895949392919061243a565b604051602081830303815290604052945050505050919050565b60008061081e83611389565b9050600073ffffffffffffffffffffffffffffffffffffffff168173ffffffffffffffffffffffffffffffffffffffff160361088f576040517f08c379a000000000000000000000000000000000000000000000000000000000815260040161088690612513565b60405180910390fd5b80915050919050565b60008073ffffffffffffffffffffffffffffffffffffffff168273ffffffffffffffffffffffffffffffffffffffff1603610908576040517f08c379a00000000000000000000000000000000000000000000000000000000081526004016108ff906125a5565b60405180910390fd5b600360008373ffffffffffffffffffffffffffffffffffffffff1673ffffffffffffffffffffffffffffffffffffffff168152602001908152602001600020549050919050565b600033604051602001610962919061260d565b6040516020818303038152906040528051906020012060001c9050919050565b60606001805461099190611fe3565b80601f01602080910402602001604051908101604052809291908181526020018280546109bd90611fe3565b8015610a0a5780601f106109df57610100808354040283529160200191610a0a565b820191906000526020600020905b8154815290600101906020018083116109ed57829003601f168201915b5050505050905090565b610a26610a1f610c0e565b83836113c6565b5050565b610a3b610a35610c0e565b83610eec565b610a7a576040517f08c379a0000000000000000000000000000000000000000000000000000000008152600401610a71906121aa565b60405180910390fd5b610a8684848484611532565b50505050565b6060610a9f610a9a836106c2565b61158e565b604051602001610aaf9190612674565b6040516020818303038152906040529050919050565b6000600560008473ffffffffffffffffffffffffffffffffffffffff1673ffffffffffffffffffffffffffffffffffffffff16815260200190815260200160002060008373ffffffffffffffffffffffffffffffffffffffff1673ffffffffffffffffffffffffffffffffffffffff16815260200190815260200160002060009054906101000a900460ff16905092915050565b60007f01ffc9a7000000000000000000000000000000000000000000000000000000007bffffffffffffffffffffffffffffffffffffffffffffffffffffffff1916827bffffffffffffffffffffffffffffffffffffffffffffffffffffffff1916149050919050565b610bcc8161127a565b610c0b576040517f08c379a0000000000000000000000000000000000000000000000000000000008152600401610c0290612513565b60405180910390fd5b50565b600033905090565b816004600083815260200190815260200160002060006101000a81548173ffffffffffffffffffffffffffffffffffffffff021916908373ffffffffffffffffffffffffffffffffffffffff160217905550808273ffffffffffffffffffffffffffffffffffffffff16610c8983610812565b73ffffffffffffffffffffffffffffffffffffffff167f8c5be1e5ebec7d5bd14f71427d1e84f3dd0314c0f7b2291e5b200ac8c7c3b92560405160405180910390a45050565b600073ffffffffffffffffffffffffffffffffffffffff168273ffffffffffffffffffffffffffffffffffffffff1603610d3e576040517f08c379a0000000000000000000000000000000000000000000000000000000008152600401610d35906126e2565b60405180910390fd5b610d478161127a565b15610d87576040517f08c379a0000000000000000000000000000000000000000000000000000000008152600401610d7e9061274e565b60405180910390fd5b610d956000838360016116f1565b610d9e8161127a565b15610dde576040517f08c379a0000000000000000000000000000000000000000000000000000000008152600401610dd59061274e565b60405180910390fd5b6001600360008473ffffffffffffffffffffffffffffffffffffffff1673ffffffffffffffffffffffffffffffffffffffff16815260200190815260200160002060008282540192505081905550816002600083815260200190815260200160002060006101000a81548173ffffffffffffffffffffffffffffffffffffffff021916908373ffffffffffffffffffffffffffffffffffffffff160217905550808273ffffffffffffffffffffffffffffffffffffffff16600073ffffffffffffffffffffffffffffffffffffffff167fddf252ad1be2c89b69c2b068fc378daa952ba7f163c4a11628f55a4df523b3ef60405160405180910390a4610ee86000838360016116f7565b5050565b600080610ef883610812565b90508073ffffffffffffffffffffffffffffffffffffffff168473ffffffffffffffffffffffffffffffffffffffff161480610f3a5750610f398185610ac5565b5b80610f7857508373ffffffffffffffffffffffffffffffffffffffff16610f60846104cb565b73ffffffffffffffffffffffffffffffffffffffff16145b91505092915050565b8273ffffffffffffffffffffffffffffffffffffffff16610fa182610812565b73ffffffffffffffffffffffffffffffffffffffff1614610ff7576040517f08c379a0000000000000000000000000000000000000000000000000000000008152600401610fee906127e0565b60405180910390fd5b600073ffffffffffffffffffffffffffffffffffffffff168273ffffffffffffffffffffffffffffffffffffffff1603611066576040517f08c379a000000000000000000000000000000000000000000000000000000000815260040161105d90612872565b60405180910390fd5b61107383838360016116f1565b8273ffffffffffffffffffffffffffffffffffffffff1661109382610812565b73ffffffffffffffffffffffffffffffffffffffff16146110e9576040517f08c379a00000000000000000000000000000000000000000000000000000000081526004016110e0906127e0565b60405180910390fd5b6004600082815260200190815260200160002060006101000a81549073ffffffffffffffffffffffffffffffffffffffff02191690556001600360008573ffffffffffffffffffffffffffffffffffffffff1673ffffffffffffffffffffffffffffffffffffffff168152602001908152602001600020600082825403925050819055506001600360008473ffffffffffffffffffffffffffffffffffffffff1673ffffffffffffffffffffffffffffffffffffffff16815260200190815260200160002060008282540192505081905550816002600083815260200190815260200160002060006101000a81548173ffffffffffffffffffffffffffffffffffffffff021916908373ffffffffffffffffffffffffffffffffffffffff160217905550808273ffffffffffffffffffffffffffffffffffffffff168473ffffffffffffffffffffffffffffffffffffffff167fddf252ad1be2c89b69c2b068fc378daa952ba7f163c4a11628f55a4df523b3ef60405160405180910390a461127583838360016116f7565b505050565b60008073ffffffffffffffffffffffffffffffffffffffff1661129c83611389565b73ffffffffffffffffffffffffffffffffffffffff1614159050919050565b6060600060016112ca846116fd565b01905060008167ffffffffffffffff8111156112e9576112e8611dc6565b5b6040519080825280601f01601f19166020018201604052801561131b5781602001600182028036833780820191505090505b509050600082602001820190505b60011561137e578080600190039150507f3031323334353637383961626364656600000000000000000000000000000000600a86061a8153600a858161137257611371612892565b5b04945060008503611329575b819350505050919050565b60006002600083815260200190815260200160002060009054906101000a900473ffffffffffffffffffffffffffffffffffffffff169050919050565b8173ffffffffffffffffffffffffffffffffffffffff168373ffffffffffffffffffffffffffffffffffffffff1603611434576040517f08c379a000000000000000000000000000000000000000000000000000000000815260040161142b9061290d565b60405180910390fd5b80600560008573ffffffffffffffffffffffffffffffffffffffff1673ffffffffffffffffffffffffffffffffffffffff16815260200190815260200160002060008473ffffffffffffffffffffffffffffffffffffffff1673ffffffffffffffffffffffffffffffffffffffff16815260200190815260200160002060006101000a81548160ff0219169083151502179055508173ffffffffffffffffffffffffffffffffffffffff168373ffffffffffffffffffffffffffffffffffffffff167f17307eab39ab6107e8899845ad3d59bd9653f200f220920489ca2b5937696c31836040516115259190611aae565b60405180910390a3505050565b61153d848484610f81565b61154984848484611850565b611588576040517f08c379a000000000000000000000000000000000000000000000000000000000815260040161157f9061299f565b60405180910390fd5b50505050565b606060008251036115b0576040518060200160405280600081525090506116ec565b6000604051806060016040528060408152602001612bad60409139905060006003600285516115df91906129ee565b6115e99190612a22565b60046115f59190612a53565b67ffffffffffffffff81111561160e5761160d611dc6565b5b6040519080825280601f01601f1916602001820160405280156116405781602001600182028036833780820191505090505b509050600182016020820185865187015b808210156116ac576003820191508151603f8160121c168501518453600184019350603f81600c1c168501518453600184019350603f8160061c168501518453600184019350603f8116850151845360018401935050611651565b50506003865106600181146116c857600281146116db576116e3565b603d6001830353603d60028303536116e3565b603d60018303535b50505080925050505b919050565b50505050565b50505050565b600080600090507a184f03e93ff9f4daa797ed6e38ed64bf6a1f010000000000000000831061175b577a184f03e93ff9f4daa797ed6e38ed64bf6a1f010000000000000000838161175157611750612892565b5b0492506040810190505b6d04ee2d6d415b85acef81000000008310611798576d04ee2d6d415b85acef8100000000838161178e5761178d612892565b5b0492506020810190505b662386f26fc1000083106117c757662386f26fc1000083816117bd576117bc612892565b5b0492506010810190505b6305f5e10083106117f0576305f5e10083816117e6576117e5612892565b5b0492506008810190505b612710831061181557612710838161180b5761180a612892565b5b0492506004810190505b60648310611838576064838161182e5761182d612892565b5b0492506002810190505b600a8310611847576001810190505b80915050919050565b60006118718473ffffffffffffffffffffffffffffffffffffffff166119d7565b156119ca578373ffffffffffffffffffffffffffffffffffffffff1663150b7a0261189a610c0e565b8786866040518563ffffffff1660e01b81526004016118bc9493929190612aea565b6020604051808303816000875af19250505080156118f857506040513d601f19601f820116820180604052508101906118f59190612b4b565b60015b61197a573d8060008114611928576040519150601f19603f3d011682016040523d82523d6000602084013e61192d565b606091505b506000815103611972576040517f08c379a00000000000000000000000000000000000000000000000000000000081526004016119699061299f565b60405180910390fd5b805181602001fd5b63150b7a0260e01b7bffffffffffffffffffffffffffffffffffffffffffffffffffffffff1916817bffffffffffffffffffffffffffffffffffffffffffffffffffffffff1916149150506119cf565b600190505b949350505050565b6000808273ffffffffffffffffffffffffffffffffffffffff163b119050919050565b6000604051905090565b600080fd5b600080fd5b60007fffffffff0000000000000000000000000000000000000000000000000000000082169050919050565b611a4381611a0e565b8114611a4e57600080fd5b50565b600081359050611a6081611a3a565b92915050565b600060208284031215611a7c57611a7b611a04565b5b6000611a8a84828501611a51565b91505092915050565b60008115159050919050565b611aa881611a93565b82525050565b6000602082019050611ac36000830184611a9f565b92915050565b600081519050919050565b600082825260208201905092915050565b60005b83811015611b03578082015181840152602081019050611ae8565b60008484015250505050565b6000601f19601f8301169050919050565b6000611b2b82611ac9565b611b358185611ad4565b9350611b45818560208601611ae5565b611b4e81611b0f565b840191505092915050565b60006020820190508181036000830152611b738184611b20565b905092915050565b6000819050919050565b611b8e81611b7b565b8114611b9957600080fd5b50565b600081359050611bab81611b85565b92915050565b600060208284031215611bc757611bc6611a04565b5b6000611bd584828501611b9c565b91505092915050565b600073ffffffffffffffffffffffffffffffffffffffff82169050919050565b6000611c0982611bde565b9050919050565b611c1981611bfe565b82525050565b6000602082019050611c346000830184611c10565b92915050565b611c4381611bfe565b8114611c4e57600080fd5b50565b600081359050611c6081611c3a565b92915050565b60008060408385031215611c7d57611c7c611a04565b5b6000611c8b85828601611c51565b9250506020611c9c85828601611b9c565b9150509250929050565b600080600060608486031215611cbf57611cbe611a04565b5b6000611ccd86828701611c51565b9350506020611cde86828701611c51565b9250506040611cef86828701611b9c565b9150509250925092565b600060208284031215611d0f57611d0e611a04565b5b6000611d1d84828501611c51565b91505092915050565b611d2f81611b7b565b82525050565b6000602082019050611d4a6000830184611d26565b92915050565b611d5981611a93565b8114611d6457600080fd5b50565b600081359050611d7681611d50565b92915050565b60008060408385031215611d9357611d92611a04565b5b6000611da185828601611c51565b9250506020611db285828601611d67565b9150509250929050565b600080fd5b600080fd5b7f4e487b7100000000000000000000000000000000000000000000000000000000600052604160045260246000fd5b611dfe82611b0f565b810181811067ffffffffffffffff82111715611e1d57611e1c611dc6565b5b80604052505050565b6000611e306119fa565b9050611e3c8282611df5565b919050565b600067ffffffffffffffff821115611e5c57611e5b611dc6565b5b611e6582611b0f565b9050602081019050919050565b82818337600083830152505050565b6000611e94611e8f84611e41565b611e26565b905082815260208101848484011115611eb057611eaf611dc1565b5b611ebb848285611e72565b509392505050565b600082601f830112611ed857611ed7611dbc565b5b8135611ee8848260208601611e81565b91505092915050565b60008060008060808587031215611f0b57611f0a611a04565b5b6000611f1987828801611c51565b9450506020611f2a87828801611c51565b9350506040611f3b87828801611b9c565b925050606085013567ffffffffffffffff811115611f5c57611f5b611a09565b5b611f6887828801611ec3565b91505092959194509250565b60008060408385031215611f8b57611f8a611a04565b5b6000611f9985828601611c51565b9250506020611faa85828601611c51565b9150509250929050565b7f4e487b7100000000000000000000000000000000000000000000000000000000600052602260045260246000fd5b60006002820490506001821680611ffb57607f821691505b60208210810361200e5761200d611fb4565b5b50919050565b7f4552433732313a20617070726f76616c20746f2063757272656e74206f776e6560008201527f7200000000000000000000000000000000000000000000000000000000000000602082015250565b6000612070602183611ad4565b915061207b82612014565b604082019050919050565b6000602082019050818103600083015261209f81612063565b9050919050565b7f4552433732313a20617070726f76652063616c6c6572206973206e6f7420746f60008201527f6b656e206f776e6572206f7220617070726f76656420666f7220616c6c000000602082015250565b6000612102603d83611ad4565b915061210d826120a6565b604082019050919050565b60006020820190508181036000830152612131816120f5565b9050919050565b7f4552433732313a2063616c6c6572206973206e6f7420746f6b656e206f776e6560008201527f72206f7220617070726f76656400000000000000000000000000000000000000602082015250565b6000612194602d83611ad4565b915061219f82612138565b604082019050919050565b600060208201905081810360008301526121c381612187565b9050919050565b7f717565727920666f72206e6f6e6578697374656e7420746f6b656e0000000000600082015250565b6000612200601b83611ad4565b915061220b826121ca565b602082019050919050565b6000602082019050818103600083015261222f816121f3565b9050919050565b600081905092915050565b7f7b226e616d65223a220000000000000000000000000000000000000000000000600082015250565b6000612277600983612236565b915061228282612241565b600982019050919050565b600061229882611ac9565b6122a28185612236565b93506122b2818560208601611ae5565b80840191505092915050565b7f222c226465736372697074696f6e223a22000000000000000000000000000000600082015250565b60006122f4601183612236565b91506122ff826122be565b601182019050919050565b7f222c22696d616765223a22000000000000000000000000000000000000000000600082015250565b6000612340600b83612236565b915061234b8261230a565b600b82019050919050565b7f222c22616e696d6174696f6e5f75726c223a2200000000000000000000000000600082015250565b600061238c601383612236565b915061239782612356565b601382019050919050565b7f3f69643d00000000000000000000000000000000000000000000000000000000600082015250565b60006123d8600483612236565b91506123e3826123a2565b600482019050919050565b7f227d000000000000000000000000000000000000000000000000000000000000600082015250565b6000612424600283612236565b915061242f826123ee565b600282019050919050565b60006124458261226a565b9150612451828861228d565b915061245c826122e7565b9150612468828761228d565b915061247382612333565b915061247f828661228d565b915061248a8261237f565b9150612496828561228d565b91506124a1826123cb565b91506124ad828461228d565b91506124b882612417565b91508190509695505050505050565b7f4552433732313a20696e76616c696420746f6b656e2049440000000000000000600082015250565b60006124fd601883611ad4565b9150612508826124c7565b602082019050919050565b6000602082019050818103600083015261252c816124f0565b9050919050565b7f4552433732313a2061646472657373207a65726f206973206e6f74206120766160008201527f6c6964206f776e65720000000000000000000000000000000000000000000000602082015250565b600061258f602983611ad4565b915061259a82612533565b604082019050919050565b600060208201905081810360008301526125be81612582565b9050919050565b60008160601b9050919050565b60006125dd826125c5565b9050919050565b60006125ef826125d2565b9050919050565b61260761260282611bfe565b6125e4565b82525050565b600061261982846125f6565b60148201915081905092915050565b7f646174613a6170706c69636174696f6e2f6a736f6e3b6261736536342c000000600082015250565b600061265e601d83612236565b915061266982612628565b601d82019050919050565b600061267f82612651565b915061268b828461228d565b915081905092915050565b7f4552433732313a206d696e7420746f20746865207a65726f2061646472657373600082015250565b60006126cc602083611ad4565b91506126d782612696565b602082019050919050565b600060208201905081810360008301526126fb816126bf565b9050919050565b7f4552433732313a20746f6b656e20616c7265616479206d696e74656400000000600082015250565b6000612738601c83611ad4565b915061274382612702565b602082019050919050565b600060208201905081810360008301526127678161272b565b9050919050565b7f4552433732313a207472616e736665722066726f6d20696e636f72726563742060008201527f6f776e6572000000000000000000000000000000000000000000000000000000602082015250565b60006127ca602583611ad4565b91506127d58261276e565b604082019050919050565b600060208201905081810360008301526127f9816127bd565b9050919050565b7f4552433732313a207472616e7366657220746f20746865207a65726f2061646460008201527f7265737300000000000000000000000000000000000000000000000000000000602082015250565b600061285c602483611ad4565b915061286782612800565b604082019050919050565b6000602082019050818103600083015261288b8161284f565b9050919050565b7f4e487b7100000000000000000000000000000000000000000000000000000000600052601260045260246000fd5b7f4552433732313a20617070726f766520746f2063616c6c657200000000000000600082015250565b60006128f7601983611ad4565b9150612902826128c1565b602082019050919050565b60006020820190508181036000830152612926816128ea565b9050919050565b7f4552433732313a207472616e7366657220746f206e6f6e20455243373231526560008201527f63656976657220696d706c656d656e7465720000000000000000000000000000602082015250565b6000612989603283611ad4565b91506129948261292d565b604082019050919050565b600060208201905081810360008301526129b88161297c565b9050919050565b7f4e487b7100000000000000000000000000000000000000000000000000000000600052601160045260246000fd5b60006129f982611b7b565b9150612a0483611b7b565b9250828201905080821115612a1c57612a1b6129bf565b5b92915050565b6000612a2d82611b7b565b9150612a3883611b7b565b925082612a4857612a47612892565b5b828204905092915050565b6000612a5e82611b7b565b9150612a6983611b7b565b9250828202612a7781611b7b565b91508282048414831517612a8e57612a8d6129bf565b5b5092915050565b600081519050919050565b600082825260208201905092915050565b6000612abc82612a95565b612ac68185612aa0565b9350612ad6818560208601611ae5565b612adf81611b0f565b840191505092915050565b6000608082019050612aff6000830187611c10565b612b0c6020830186611c10565b612b196040830185611d26565b8181036060830152612b2b8184612ab1565b905095945050505050565b600081519050612b4581611a3a565b92915050565b600060208284031215612b6157612b60611a04565b5b6000612b6f84828501612b36565b9150509291505056fe68747470733a2f2f6c696e6b2d6265636f6d652d68756d616e2e76657263656c2e6170702f67616d652f696e6465782e68746d6c4142434445464748494a4b4c4d4e4f505152535455565758595a6162636465666768696a6b6c6d6e6f707172737475767778797a303132333435363738392b2fa2646970667358221220282ad1f949693abbb3cde5460ebeae25c12291d550855580d540453857b5fd0964736f6c63430008120033",
  "linkReferences": {},
  "deployedLinkReferences": {}
}